{
  "_format": "hh-sol-artifact-1",
  "contractName": "ClassicMint",
  "sourceName": "contracts/templates/classics/ClassicMint.sol",
  "abi": [
    {
      "inputs": [],
      "name": "ApprovalCallerNotOwnerNorApproved",
      "type": "error"
    },
    {
      "inputs": [],
      "name": "ApprovalQueryForNonexistentToken",
      "type": "error"
    },
    {
      "inputs": [],
      "name": "ApproveToCaller",
      "type": "error"
    },
    {
      "inputs": [],
      "name": "BalanceQueryForZeroAddress",
      "type": "error"
    },
    {
      "inputs": [],
      "name": "MintERC2309QuantityExceedsLimit",
      "type": "error"
    },
    {
      "inputs": [],
      "name": "MintToZeroAddress",
      "type": "error"
    },
    {
      "inputs": [],
      "name": "MintZeroQuantity",
      "type": "error"
    },
    {
      "inputs": [],
      "name": "OwnerQueryForNonexistentToken",
      "type": "error"
    },
    {
      "inputs": [],
      "name": "OwnershipNotInitializedForExtraData",
      "type": "error"
    },
    {
      "inputs": [],
      "name": "TransferCallerNotOwnerNorApproved",
      "type": "error"
    },
    {
      "inputs": [],
      "name": "TransferFromIncorrectOwner",
      "type": "error"
    },
    {
      "inputs": [],
      "name": "TransferToNonERC721ReceiverImplementer",
      "type": "error"
    },
    {
      "inputs": [],
      "name": "TransferToZeroAddress",
      "type": "error"
    },
    {
      "inputs": [],
      "name": "URIQueryForNonexistentToken",
      "type": "error"
    },
    {
      "anonymous": false,
      "inputs": [
        {
          "indexed": true,
          "internalType": "address",
          "name": "owner",
          "type": "address"
        },
        {
          "indexed": true,
          "internalType": "address",
          "name": "approved",
          "type": "address"
        },
        {
          "indexed": true,
          "internalType": "uint256",
          "name": "tokenId",
          "type": "uint256"
        }
      ],
      "name": "Approval",
      "type": "event"
    },
    {
      "anonymous": false,
      "inputs": [
        {
          "indexed": true,
          "internalType": "address",
          "name": "owner",
          "type": "address"
        },
        {
          "indexed": true,
          "internalType": "address",
          "name": "operator",
          "type": "address"
        },
        {
          "indexed": false,
          "internalType": "bool",
          "name": "approved",
          "type": "bool"
        }
      ],
      "name": "ApprovalForAll",
      "type": "event"
    },
    {
      "anonymous": false,
      "inputs": [
        {
          "indexed": true,
          "internalType": "uint256",
          "name": "fromTokenId",
          "type": "uint256"
        },
        {
          "indexed": false,
          "internalType": "uint256",
          "name": "toTokenId",
          "type": "uint256"
        },
        {
          "indexed": true,
          "internalType": "address",
          "name": "from",
          "type": "address"
        },
        {
          "indexed": true,
          "internalType": "address",
          "name": "to",
          "type": "address"
        }
      ],
      "name": "ConsecutiveTransfer",
      "type": "event"
    },
    {
      "anonymous": false,
      "inputs": [
        {
          "indexed": false,
          "internalType": "uint8",
          "name": "version",
          "type": "uint8"
        }
      ],
      "name": "Initialized",
      "type": "event"
    },
    {
      "anonymous": false,
      "inputs": [
        {
          "indexed": true,
          "internalType": "address",
          "name": "previousOwner",
          "type": "address"
        },
        {
          "indexed": true,
          "internalType": "address",
          "name": "newOwner",
          "type": "address"
        }
      ],
      "name": "OwnershipTransferred",
      "type": "event"
    },
    {
      "anonymous": false,
      "inputs": [
        {
          "indexed": false,
          "internalType": "address",
          "name": "account",
          "type": "address"
        }
      ],
      "name": "Paused",
      "type": "event"
    },
    {
      "anonymous": false,
      "inputs": [
        {
          "indexed": true,
          "internalType": "address",
          "name": "from",
          "type": "address"
        },
        {
          "indexed": true,
          "internalType": "address",
          "name": "to",
          "type": "address"
        },
        {
          "indexed": true,
          "internalType": "uint256",
          "name": "tokenId",
          "type": "uint256"
        }
      ],
      "name": "Transfer",
      "type": "event"
    },
    {
      "anonymous": false,
      "inputs": [
        {
          "indexed": false,
          "internalType": "address",
          "name": "account",
          "type": "address"
        }
      ],
      "name": "Unpaused",
      "type": "event"
    },
    {
      "inputs": [
        {
          "internalType": "address",
          "name": "to",
          "type": "address"
        },
        {
          "internalType": "uint256",
          "name": "tokenId",
          "type": "uint256"
        }
      ],
      "name": "approve",
      "outputs": [],
      "stateMutability": "nonpayable",
      "type": "function"
    },
    {
      "inputs": [
        {
          "internalType": "address",
          "name": "owner",
          "type": "address"
        }
      ],
      "name": "balanceOf",
      "outputs": [
        {
          "internalType": "uint256",
          "name": "",
          "type": "uint256"
        }
      ],
      "stateMutability": "view",
      "type": "function"
    },
    {
      "inputs": [],
      "name": "baseExtension",
      "outputs": [
        {
          "internalType": "string",
          "name": "",
          "type": "string"
        }
      ],
      "stateMutability": "view",
      "type": "function"
    },
    {
      "inputs": [],
      "name": "baseURI",
      "outputs": [
        {
          "internalType": "string",
          "name": "",
          "type": "string"
        }
      ],
      "stateMutability": "view",
      "type": "function"
    },
    {
      "inputs": [],
      "name": "contractType",
      "outputs": [
        {
          "internalType": "bytes32",
          "name": "",
          "type": "bytes32"
        }
      ],
      "stateMutability": "pure",
      "type": "function"
    },
    {
      "inputs": [],
      "name": "contractVersion",
      "outputs": [
        {
          "internalType": "uint8",
          "name": "",
          "type": "uint8"
        }
      ],
      "stateMutability": "pure",
      "type": "function"
    },
    {
      "inputs": [],
      "name": "delayReveal",
      "outputs": [
        {
          "internalType": "bool",
          "name": "",
          "type": "bool"
        }
      ],
      "stateMutability": "view",
      "type": "function"
    },
    {
      "inputs": [],
      "name": "endingTimestamp",
      "outputs": [
        {
          "internalType": "uint256",
          "name": "",
          "type": "uint256"
        }
      ],
      "stateMutability": "view",
      "type": "function"
    },
    {
      "inputs": [
        {
          "internalType": "uint256",
          "name": "tokenId",
          "type": "uint256"
        }
      ],
      "name": "getApproved",
      "outputs": [
        {
          "internalType": "address",
          "name": "",
          "type": "address"
        }
      ],
      "stateMutability": "view",
      "type": "function"
    },
    {
      "inputs": [],
      "name": "hasMintStarted",
      "outputs": [
        {
          "internalType": "bool",
          "name": "",
          "type": "bool"
        }
      ],
      "stateMutability": "view",
      "type": "function"
    },
    {
      "inputs": [
        {
          "internalType": "address",
          "name": "owner",
          "type": "address"
        },
        {
          "internalType": "address",
          "name": "trustedForwarder",
          "type": "address"
        },
        {
          "internalType": "string",
          "name": "name",
          "type": "string"
        },
        {
          "internalType": "string",
          "name": "symbol",
          "type": "string"
        },
        {
          "components": [
            {
              "internalType": "uint256",
              "name": "quantity",
              "type": "uint256"
            },
            {
              "internalType": "uint256",
              "name": "reservedTokens",
              "type": "uint256"
            },
            {
              "internalType": "uint256",
              "name": "maxMint",
              "type": "uint256"
            },
            {
              "internalType": "uint256",
              "name": "maxMintTx",
              "type": "uint256"
            },
            {
              "internalType": "uint256",
              "name": "price",
              "type": "uint256"
            },
            {
              "internalType": "uint256",
              "name": "startTime",
              "type": "uint256"
            },
            {
              "internalType": "uint256",
              "name": "endTime",
              "type": "uint256"
            }
          ],
          "internalType": "struct ClassicMint.SaleConfig",
          "name": "saleConfig",
          "type": "tuple"
        }
      ],
      "name": "initialize",
      "outputs": [],
      "stateMutability": "nonpayable",
      "type": "function"
    },
    {
      "inputs": [
        {
          "internalType": "address",
          "name": "owner",
          "type": "address"
        },
        {
          "internalType": "address",
          "name": "operator",
          "type": "address"
        }
      ],
      "name": "isApprovedForAll",
      "outputs": [
        {
          "internalType": "bool",
          "name": "",
          "type": "bool"
        }
      ],
      "stateMutability": "view",
      "type": "function"
    },
    {
      "inputs": [],
      "name": "isReservedTokensMinted",
      "outputs": [
        {
          "internalType": "bool",
          "name": "",
          "type": "bool"
        }
      ],
      "stateMutability": "view",
      "type": "function"
    },
    {
      "inputs": [],
      "name": "isRevealed",
      "outputs": [
        {
          "internalType": "bool",
          "name": "",
          "type": "bool"
        }
      ],
      "stateMutability": "view",
      "type": "function"
    },
    {
      "inputs": [
        {
          "internalType": "address",
          "name": "forwarder",
          "type": "address"
        }
      ],
      "name": "isTrustedForwarder",
      "outputs": [
        {
          "internalType": "bool",
          "name": "",
          "type": "bool"
        }
      ],
      "stateMutability": "view",
      "type": "function"
    },
    {
      "inputs": [],
      "name": "maxMintPerTx",
      "outputs": [
        {
          "internalType": "uint256",
          "name": "",
          "type": "uint256"
        }
      ],
      "stateMutability": "view",
      "type": "function"
    },
    {
      "inputs": [],
      "name": "maxMintPerWallet",
      "outputs": [
        {
          "internalType": "uint256",
          "name": "",
          "type": "uint256"
        }
      ],
      "stateMutability": "view",
      "type": "function"
    },
    {
      "inputs": [
        {
          "internalType": "uint8",
          "name": "quantity",
          "type": "uint8"
        }
      ],
      "name": "mint",
      "outputs": [],
      "stateMutability": "payable",
      "type": "function"
    },
    {
      "inputs": [],
      "name": "mintPrice",
      "outputs": [
        {
          "internalType": "uint256",
          "name": "",
          "type": "uint256"
        }
      ],
      "stateMutability": "view",
      "type": "function"
    },
    {
      "inputs": [],
      "name": "mintReservedTokens",
      "outputs": [],
      "stateMutability": "nonpayable",
      "type": "function"
    },
    {
      "inputs": [],
      "name": "mintTotalSupply",
      "outputs": [
        {
          "internalType": "uint256",
          "name": "",
          "type": "uint256"
        }
      ],
      "stateMutability": "view",
      "type": "function"
    },
    {
      "inputs": [],
      "name": "name",
      "outputs": [
        {
          "internalType": "string",
          "name": "",
          "type": "string"
        }
      ],
      "stateMutability": "view",
      "type": "function"
    },
    {
      "inputs": [],
      "name": "owner",
      "outputs": [
        {
          "internalType": "address",
          "name": "",
          "type": "address"
        }
      ],
      "stateMutability": "view",
      "type": "function"
    },
    {
      "inputs": [
        {
          "internalType": "uint256",
          "name": "tokenId",
          "type": "uint256"
        }
      ],
      "name": "ownerOf",
      "outputs": [
        {
          "internalType": "address",
          "name": "",
          "type": "address"
        }
      ],
      "stateMutability": "view",
      "type": "function"
    },
    {
      "inputs": [],
      "name": "pause",
      "outputs": [],
      "stateMutability": "nonpayable",
      "type": "function"
    },
    {
      "inputs": [],
      "name": "paused",
      "outputs": [
        {
          "internalType": "bool",
          "name": "",
          "type": "bool"
        }
      ],
      "stateMutability": "view",
      "type": "function"
    },
    {
      "inputs": [],
      "name": "previewURI",
      "outputs": [
        {
          "internalType": "string",
          "name": "",
          "type": "string"
        }
      ],
      "stateMutability": "view",
      "type": "function"
    },
    {
      "inputs": [],
      "name": "renounceOwnership",
      "outputs": [],
      "stateMutability": "nonpayable",
      "type": "function"
    },
    {
      "inputs": [],
      "name": "reservedTokens",
      "outputs": [
        {
          "internalType": "uint256",
          "name": "",
          "type": "uint256"
        }
      ],
      "stateMutability": "view",
      "type": "function"
    },
    {
      "inputs": [],
      "name": "reveal",
      "outputs": [],
      "stateMutability": "nonpayable",
      "type": "function"
    },
    {
      "inputs": [
        {
          "internalType": "address",
          "name": "from",
          "type": "address"
        },
        {
          "internalType": "address",
          "name": "to",
          "type": "address"
        },
        {
          "internalType": "uint256",
          "name": "tokenId",
          "type": "uint256"
        }
      ],
      "name": "safeTransferFrom",
      "outputs": [],
      "stateMutability": "nonpayable",
      "type": "function"
    },
    {
      "inputs": [
        {
          "internalType": "address",
          "name": "from",
          "type": "address"
        },
        {
          "internalType": "address",
          "name": "to",
          "type": "address"
        },
        {
          "internalType": "uint256",
          "name": "tokenId",
          "type": "uint256"
        },
        {
          "internalType": "bytes",
          "name": "_data",
          "type": "bytes"
        }
      ],
      "name": "safeTransferFrom",
      "outputs": [],
      "stateMutability": "nonpayable",
      "type": "function"
    },
    {
      "inputs": [
        {
          "internalType": "address",
          "name": "operator",
          "type": "address"
        },
        {
          "internalType": "bool",
          "name": "approved",
          "type": "bool"
        }
      ],
      "name": "setApprovalForAll",
      "outputs": [],
      "stateMutability": "nonpayable",
      "type": "function"
    },
    {
      "inputs": [
        {
          "internalType": "string",
          "name": "extension",
          "type": "string"
        }
      ],
      "name": "setBaseExtension",
      "outputs": [],
      "stateMutability": "nonpayable",
      "type": "function"
    },
    {
      "inputs": [
        {
          "internalType": "string",
          "name": "uri",
          "type": "string"
        }
      ],
      "name": "setBaseURI",
      "outputs": [],
      "stateMutability": "nonpayable",
      "type": "function"
    },
    {
      "inputs": [
        {
          "internalType": "uint256",
          "name": "endTime",
          "type": "uint256"
        }
      ],
      "name": "setEndTime",
      "outputs": [],
      "stateMutability": "nonpayable",
      "type": "function"
    },
    {
      "inputs": [
        {
          "internalType": "uint256",
          "name": "maxMint",
          "type": "uint256"
        }
      ],
      "name": "setMaxMint",
      "outputs": [],
      "stateMutability": "nonpayable",
      "type": "function"
    },
    {
      "inputs": [
        {
          "internalType": "uint256",
          "name": "maxMintTx",
          "type": "uint256"
        }
      ],
      "name": "setMaxMintTx",
      "outputs": [],
      "stateMutability": "nonpayable",
      "type": "function"
    },
    {
      "inputs": [
        {
          "internalType": "uint256",
          "name": "price",
          "type": "uint256"
        }
      ],
      "name": "setMintPrice",
      "outputs": [],
      "stateMutability": "nonpayable",
      "type": "function"
    },
    {
      "inputs": [
        {
          "internalType": "string",
          "name": "name",
          "type": "string"
        }
      ],
      "name": "setName",
      "outputs": [],
      "stateMutability": "nonpayable",
      "type": "function"
    },
    {
      "inputs": [
        {
          "internalType": "string",
          "name": "uri",
          "type": "string"
        }
      ],
      "name": "setPreviewURI",
      "outputs": [],
      "stateMutability": "nonpayable",
      "type": "function"
    },
    {
      "inputs": [
        {
          "internalType": "uint256",
          "name": "tokens",
          "type": "uint256"
        }
      ],
      "name": "setReservedTokens",
      "outputs": [],
      "stateMutability": "nonpayable",
      "type": "function"
    },
    {
      "inputs": [
        {
          "internalType": "uint256",
          "name": "startTime",
          "type": "uint256"
        }
      ],
      "name": "setStartTime",
      "outputs": [],
      "stateMutability": "nonpayable",
      "type": "function"
    },
    {
      "inputs": [
        {
          "internalType": "string",
          "name": "symbol",
          "type": "string"
        }
      ],
      "name": "setSymbol",
      "outputs": [],
      "stateMutability": "nonpayable",
      "type": "function"
    },
    {
      "inputs": [
        {
          "internalType": "uint256",
          "name": "quantity",
          "type": "uint256"
        }
      ],
      "name": "setTotalQuantity",
      "outputs": [],
      "stateMutability": "nonpayable",
      "type": "function"
    },
    {
      "inputs": [],
      "name": "startingTimestamp",
      "outputs": [
        {
          "internalType": "uint256",
          "name": "",
          "type": "uint256"
        }
      ],
      "stateMutability": "view",
      "type": "function"
    },
    {
      "inputs": [
        {
          "internalType": "bytes4",
          "name": "interfaceId",
          "type": "bytes4"
        }
      ],
      "name": "supportsInterface",
      "outputs": [
        {
          "internalType": "bool",
          "name": "",
          "type": "bool"
        }
      ],
      "stateMutability": "view",
      "type": "function"
    },
    {
      "inputs": [],
      "name": "symbol",
      "outputs": [
        {
          "internalType": "string",
          "name": "",
          "type": "string"
        }
      ],
      "stateMutability": "view",
      "type": "function"
    },
    {
      "inputs": [],
      "name": "toggleDelayReveal",
      "outputs": [],
      "stateMutability": "nonpayable",
      "type": "function"
    },
    {
      "inputs": [
        {
          "internalType": "uint256",
          "name": "tokenId",
          "type": "uint256"
        }
      ],
      "name": "tokenURI",
      "outputs": [
        {
          "internalType": "string",
          "name": "",
          "type": "string"
        }
      ],
      "stateMutability": "view",
      "type": "function"
    },
    {
      "inputs": [
        {
          "internalType": "address",
          "name": "wallet",
          "type": "address"
        }
      ],
      "name": "tokensMinted",
      "outputs": [
        {
          "internalType": "uint256",
          "name": "",
          "type": "uint256"
        }
      ],
      "stateMutability": "view",
      "type": "function"
    },
    {
      "inputs": [],
      "name": "totalQuantity",
      "outputs": [
        {
          "internalType": "uint256",
          "name": "",
          "type": "uint256"
        }
      ],
      "stateMutability": "view",
      "type": "function"
    },
    {
      "inputs": [],
      "name": "totalSupply",
      "outputs": [
        {
          "internalType": "uint256",
          "name": "",
          "type": "uint256"
        }
      ],
      "stateMutability": "view",
      "type": "function"
    },
    {
      "inputs": [
        {
          "internalType": "address",
          "name": "from",
          "type": "address"
        },
        {
          "internalType": "address",
          "name": "to",
          "type": "address"
        },
        {
          "internalType": "uint256",
          "name": "tokenId",
          "type": "uint256"
        }
      ],
      "name": "transferFrom",
      "outputs": [],
      "stateMutability": "nonpayable",
      "type": "function"
    },
    {
      "inputs": [
        {
          "internalType": "address",
          "name": "newOwner",
          "type": "address"
        }
      ],
      "name": "transferOwnership",
      "outputs": [],
      "stateMutability": "nonpayable",
      "type": "function"
    },
    {
      "inputs": [],
      "name": "unpause",
      "outputs": [],
      "stateMutability": "nonpayable",
      "type": "function"
    },
    {
      "inputs": [],
      "name": "withdrawFunds",
      "outputs": [],
      "stateMutability": "nonpayable",
      "type": "function"
    },
    {
      "inputs": [],
      "name": "withdrawUnmintedTokens",
      "outputs": [],
      "stateMutability": "nonpayable",
      "type": "function"
    }
  ],
  "bytecode": "0x60c06040526005608081905264173539b7b760d91b60a0908152620000289160fe91906200003d565b503480156200003657600080fd5b5062000120565b8280546200004b90620000e3565b90600052602060002090601f0160209004810192826200006f5760008555620000ba565b82601f106200008a57805160ff1916838001178555620000ba565b82800160010185558215620000ba579182015b82811115620000ba5782518255916020019190600101906200009d565b50620000c8929150620000cc565b5090565b5b80821115620000c85760008155600101620000cd565b600181811c90821680620000f857607f821691505b602082108114156200011a57634e487b7160e01b600052602260045260246000fd5b50919050565b61367580620001306000396000f3fe6080604052600436106103815760003560e01c806370a08231116101d1578063c47f002711610102578063d6bbe739116100a0578063e315019d1161006f578063e315019d146109dc578063e985e9c5146109f1578063f2fde38b14610a59578063f4a0a52814610a7957600080fd5b8063d6bbe73914610977578063da3ef23f1461098c578063de09daea146109ac578063de7fcb1d146109c557600080fd5b8063c87b56dd116100dc578063c87b56dd146108ef578063cb2ef6f71461090f578063ccb98ffc14610942578063d3ff166c1461096257600080fd5b8063c47f0027146108a3578063c616f412146108c3578063c6682862146108da57600080fd5b8063a0a8e4601161016f578063ab88d28611610149578063ab88d2861461082c578063b228d9251461084c578063b84c824614610863578063b88d4fde1461088357600080fd5b8063a0a8e460146107db578063a22cb465146107f7578063a475b5dd1461081757600080fd5b806388786272116101ab57806388786272146107715780638da5cb5b1461078857806390498f93146107a657806395d89b41146107c657600080fd5b806370a0823114610727578063715018a6146107475780638456cb591461075c57600080fd5b80633f4ba83a116102b6578063572b6c051161025457806367768ceb1161022357806367768ceb146106d35780636817c76c146106e85780636c0360eb146106ff5780636ecd23061461071457600080fd5b8063572b6c05146106555780635c975abb146106845780635e5294b71461069c5780636352211e146106b357600080fd5b806354214f691161029057806354214f69146105d657806354610481146105f5578063547520fe1461061557806355f804b31461063557600080fd5b80633f4ba83a1461058657806342842e0e1461059b57806349e51097146105bb57600080fd5b806318160ddd1161032357806324600fc3116102fd57806324600fc31461051c5780633a991ba9146105315780633e0a322d146105515780633eefe2391461057157600080fd5b806318160ddd146104935780631c67cc61146104dc57806323b872dd146104fc57600080fd5b8063081812fc1161035f578063081812fc146103ff578063095ea7b3146104375780630c01ae341461045757806315a553471461047c57600080fd5b806301ffc9a714610386578063027903ef146103bb57806306fdde03146103dd575b600080fd5b34801561039257600080fd5b506103a66103a1366004612ff1565b610a99565b60405190151581526020015b60405180910390f35b3480156103c757600080fd5b506103db6103d636600461300e565b610b36565b005b3480156103e957600080fd5b506103f2610b44565b6040516103b2919061307f565b34801561040b57600080fd5b5061041f61041a36600461300e565b610be6565b6040516001600160a01b0390911681526020016103b2565b34801561044357600080fd5b506103db6104523660046130ae565b610c62565b34801561046357600080fd5b5061046e6101015481565b6040519081526020016103b2565b34801561048857600080fd5b5061046e6101065481565b34801561049f57600080fd5b507f2569078dfb4b0305704d3008e7403993ae9601b85f7ae5e742de3de8f8011c415460008051602061362083398151915254036000190161046e565b3480156104e857600080fd5b506103db6104f736600461300e565b610d83565b34801561050857600080fd5b506103db6105173660046130d8565b610d91565b34801561052857600080fd5b506103db611053565b34801561053d57600080fd5b506103db61054c3660046131e9565b6111c7565b34801561055d57600080fd5b506103db61056c36600461300e565b6114ac565b34801561057d57600080fd5b506103db6114ba565b34801561059257600080fd5b506103db6115d0565b3480156105a757600080fd5b506103db6105b63660046130d8565b6115e0565b3480156105c757600080fd5b50610107546103a69060ff1681565b3480156105e257600080fd5b5060ff80546103a6916101009091041681565b34801561060157600080fd5b5061046e6106103660046132d8565b611600565b34801561062157600080fd5b506103db61063036600461300e565b61164a565b34801561064157600080fd5b506103db6106503660046132f3565b611658565b34801561066157600080fd5b506103a66106703660046132d8565b6033546001600160a01b0391821691161490565b34801561069057600080fd5b5060665460ff166103a6565b3480156106a857600080fd5b5061046e6101055481565b3480156106bf57600080fd5b5061041f6106ce36600461300e565b611677565b3480156106df57600080fd5b506103a6611682565b3480156106f457600080fd5b5061046e6101085481565b34801561070b57600080fd5b506103f261169f565b6103db610722366004613328565b61172d565b34801561073357600080fd5b5061046e6107423660046132d8565b611b40565b34801561075357600080fd5b506103db611bc7565b34801561076857600080fd5b506103db611bd9565b34801561077d57600080fd5b5061046e6101045481565b34801561079457600080fd5b506098546001600160a01b031661041f565b3480156107b257600080fd5b506103db6107c13660046132f3565b611be9565b3480156107d257600080fd5b506103f2611c63565b3480156107e757600080fd5b50604051600181526020016103b2565b34801561080357600080fd5b506103db61081236600461334b565b611c82565b34801561082357600080fd5b506103db611d50565b34801561083857600080fd5b506103db61084736600461300e565b611e45565b34801561085857600080fd5b5061046e6101025481565b34801561086f57600080fd5b506103db61087e3660046132f3565b611e53565b34801561088f57600080fd5b506103db61089e366004613387565b611e8d565b3480156108af57600080fd5b506103db6108be3660046132f3565b611ed7565b3480156108cf57600080fd5b5061046e6101005481565b3480156108e657600080fd5b506103f2611f11565b3480156108fb57600080fd5b506103f261090a36600461300e565b611f1e565b34801561091b57600080fd5b507f436c61737369634d696e7400000000000000000000000000000000000000000061046e565b34801561094e57600080fd5b506103db61095d36600461300e565b612017565b34801561096e57600080fd5b506103f2612025565b34801561098357600080fd5b506103db612032565b34801561099857600080fd5b506103db6109a73660046132f3565b61204c565b3480156109b857600080fd5b5060ff80546103a6911681565b3480156109d157600080fd5b5061046e6101035481565b3480156109e857600080fd5b506103db612067565b3480156109fd57600080fd5b506103a6610a0c366004613403565b6001600160a01b0391821660009081527f2569078dfb4b0305704d3008e7403993ae9601b85f7ae5e742de3de8f8011c476020908152604080832093909416825291909152205460ff1690565b348015610a6557600080fd5b506103db610a743660046132d8565b612200565b348015610a8557600080fd5b506103db610a9436600461300e565b612290565b60007f01ffc9a7000000000000000000000000000000000000000000000000000000006001600160e01b031983161480610afc57507f80ac58cd000000000000000000000000000000000000000000000000000000006001600160e01b03198316145b80610b3057507f5b5e139f000000000000000000000000000000000000000000000000000000006001600160e01b03198316145b92915050565b610b3e61229e565b61010655565b60606000805160206136208339815191526002018054610b6390613436565b80601f0160208091040260200160405190810160405280929190818152602001828054610b8f90613436565b8015610bdc5780601f10610bb157610100808354040283529160200191610bdc565b820191906000526020600020905b815481529060010190602001808311610bbf57829003601f168201915b5050505050905090565b6000610bf182612317565b610c27576040517fcf4700e400000000000000000000000000000000000000000000000000000000815260040160405180910390fd5b5060009081527f2569078dfb4b0305704d3008e7403993ae9601b85f7ae5e742de3de8f8011c4660205260409020546001600160a01b031690565b6000610c6d82611677565b9050336001600160a01b03821614610cfb576001600160a01b03811660009081527f2569078dfb4b0305704d3008e7403993ae9601b85f7ae5e742de3de8f8011c476020908152604080832033845290915290205460ff16610cfb576040517fcfb3b94200000000000000000000000000000000000000000000000000000000815260040160405180910390fd5b60008281527f2569078dfb4b0305704d3008e7403993ae9601b85f7ae5e742de3de8f8011c466020526040808220805473ffffffffffffffffffffffffffffffffffffffff19166001600160a01b0387811691821790925591518593918516917f8c5be1e5ebec7d5bd14f71427d1e84f3dd0314c0f7b2291e5b200ac8c7c3b92591a4505050565b610d8b61229e565b61010355565b6000610d9c82612378565b9050836001600160a01b0316816001600160a01b031614610de9576040517fa114810000000000000000000000000000000000000000000000000000000000815260040160405180910390fd5b60008281527f2569078dfb4b0305704d3008e7403993ae9601b85f7ae5e742de3de8f8011c46602052604090208054338082146001600160a01b03881690911417610eaa576001600160a01b03861660009081527f2569078dfb4b0305704d3008e7403993ae9601b85f7ae5e742de3de8f8011c476020908152604080832033845290915290205460ff16610eaa576040517f59c896be00000000000000000000000000000000000000000000000000000000815260040160405180910390fd5b6001600160a01b038516610eea576040517fea553b3400000000000000000000000000000000000000000000000000000000815260040160405180910390fd5b8015610ef557600082555b6001600160a01b0386811660009081527f2569078dfb4b0305704d3008e7403993ae9601b85f7ae5e742de3de8f8011c4560205260408082208054600019019055918716808252919020805460010190554260a01b17600160e11b1760008581527f2569078dfb4b0305704d3008e7403993ae9601b85f7ae5e742de3de8f8011c446020526040902055600160e11b8316611009576001840160008181527f2569078dfb4b0305704d3008e7403993ae9601b85f7ae5e742de3de8f8011c446020526040902054611007576000805160206136208339815191525481146110075760008181527f2569078dfb4b0305704d3008e7403993ae9601b85f7ae5e742de3de8f8011c44602052604090208490555b505b83856001600160a01b0316876001600160a01b03167fddf252ad1be2c89b69c2b068fc378daa952ba7f163c4a11628f55a4df523b3ef60405160405180910390a45b505050505050565b61105b61229e565b610105544210156110b35760405162461bcd60e51b815260206004820152601560248201527f4d696e74696e6720686173206e6f7420656e646564000000000000000000000060448201526064015b60405180910390fd5b600260ca5414156111065760405162461bcd60e51b815260206004820152601f60248201527f5265656e7472616e637947756172643a207265656e7472616e742063616c6c0060448201526064016110aa565b600260ca55600061111f6098546001600160a01b031690565b6001600160a01b03164760405160006040518083038185875af1925050503d8060008114611169576040519150601f19603f3d011682016040523d82523d6000602084013e61116e565b606091505b50509050806111bf5760405162461bcd60e51b815260206004820152600f60248201527f5472616e73666572206661696c6564000000000000000000000000000000000060448201526064016110aa565b50600160ca55565b7fee151c8401928dc223602bb187aff91b9a56c7cae5476ef1b3287b085a16c85f54610100900460ff16611220577fee151c8401928dc223602bb187aff91b9a56c7cae5476ef1b3287b085a16c85f5460ff1615611224565b303b155b6112965760405162461bcd60e51b815260206004820152603760248201527f455243373231415f5f496e697469616c697a61626c653a20636f6e747261637460448201527f20697320616c726561647920696e697469616c697a656400000000000000000060648201526084016110aa565b7fee151c8401928dc223602bb187aff91b9a56c7cae5476ef1b3287b085a16c85f54610100900460ff161580156112f6577fee151c8401928dc223602bb187aff91b9a56c7cae5476ef1b3287b085a16c85f805461ffff19166101011790555b600054610100900460ff16158080156113165750600054600160ff909116105b806113305750303b158015611330575060005460ff166001145b6113a25760405162461bcd60e51b815260206004820152602e60248201527f496e697469616c697a61626c653a20636f6e747261637420697320616c72656160448201527f647920696e697469616c697a656400000000000000000000000000000000000060648201526084016110aa565b6000805460ff1916600117905580156113c5576000805461ff0019166101001790555b6113cd61244c565b6113d6866124bf565b6113e0858561253b565b6113e86125e1565b6113f187612654565b82516101005560208301516101065560808301516101085560408301516101025560608301516101035560a08301516101045560c0830151610105558015611473576000805461ff0019169055604051600181527f7f26b83ff96e1f2b6a682f133852f6798a09c465da95921460cefb38474024989060200160405180910390a15b50801561104b5750507fee151c8401928dc223602bb187aff91b9a56c7cae5476ef1b3287b085a16c85f805461ff001916905550505050565b6114b461229e565b61010455565b6114c261229e565b600061010654116115155760405162461bcd60e51b815260206004820152601760248201527f4e6f20746f6b656e73207765726520726573657276656400000000000000000060448201526064016110aa565b6101075460ff16156115695760405162461bcd60e51b815260206004820181905260248201527f546f6b656e73206861766520616c7265616479206265656e206d696e7465642160448201526064016110aa565b610107805460ff191660011790555b600a6101065411156115ba57600a61010660008282546115989190613487565b90915550506098546115b5906001600160a01b03165b600a6126bf565b611578565b6115ce6115c56126d9565b610106546126bf565b565b6115d861229e565b6115ce6126e3565b6115fb83838360405180602001604052806000815250611e8d565b505050565b6001600160a01b03811660009081527f2569078dfb4b0305704d3008e7403993ae9601b85f7ae5e742de3de8f8011c4560205260408082205467ffffffffffffffff911c16610b30565b61165261229e565b61010255565b61166061229e565b80516116739060fc906020840190612f42565b5050565b6000610b3082612378565b600061010454421015801561169a5750610105544211155b905090565b60fc80546116ac90613436565b80601f01602080910402602001604051908101604052809291908181526020018280546116d890613436565b80156117255780601f106116fa57610100808354040283529160200191611725565b820191906000526020600020905b81548152906001019060200180831161170857829003601f168201915b505050505081565b61173561273b565b61173d6126d9565b6001600160a01b0316326001600160a01b03161461179d5760405162461bcd60e51b815260206004820152601e60248201527f5468652063616c6c657220697320616e6f7468657220636f6e7472616374000060448201526064016110aa565b600260ca5414156117f05760405162461bcd60e51b815260206004820152601f60248201527f5265656e7472616e637947756172643a207265656e7472616e742063616c6c0060448201526064016110aa565b600260ca55610106546101005460009161180991613487565b90506101045442101561185e5760405162461bcd60e51b815260206004820152601860248201527f4d696e74696e6720686173206e6f74207374617274656421000000000000000060448201526064016110aa565b610105544211156118b15760405162461bcd60e51b815260206004820152601260248201527f4d696e74696e672068617320656e64656421000000000000000000000000000060448201526064016110aa565b60008260ff16116119045760405162461bcd60e51b815260206004820152601560248201527f5175616e746974792063616e206e6f742062652030000000000000000000000060448201526064016110aa565b8061010154106119565760405162461bcd60e51b815260206004820152601560248201527f417373657473206861766520736f6c64206f757421000000000000000000000060448201526064016110aa565b808260ff1661010154611969919061349e565b11156119b75760405162461bcd60e51b815260206004820152601560248201527f4578636565647320746f74616c2061737365747321000000000000000000000060448201526064016110aa565b6101035415611a3c57610103548260ff161115611a3c5760405162461bcd60e51b815260206004820152602560248201527f45786365656473206d696e747320616c6c6f77656420706572207472616e736160448201527f6374696f6e00000000000000000000000000000000000000000000000000000060648201526084016110aa565b610102548260ff16611a4f6106106126d9565b611a59919061349e565b1115611aa75760405162461bcd60e51b815260206004820152601760248201527f4d696e747320616c6c6f7765642065786365656465642100000000000000000060448201526064016110aa565b8160ff1661010854611ab991906134b6565b3414611b075760405162461bcd60e51b815260206004820152601d60248201527f45746865722076616c75652073656e7420697320696e636f727265637400000060448201526064016110aa565b8160ff166101016000828254611b1d919061349e565b90915550611b379050611b2e6126d9565b8360ff166126bf565b5050600160ca55565b60006001600160a01b038216611b82576040517f8f4eb60400000000000000000000000000000000000000000000000000000000815260040160405180910390fd5b506001600160a01b031660009081527f2569078dfb4b0305704d3008e7403993ae9601b85f7ae5e742de3de8f8011c45602052604090205467ffffffffffffffff1690565b611bcf61229e565b6115ce600061278e565b611be161229e565b6115ce6127ed565b611bf161229e565b60ff805416611c505760405162461bcd60e51b815260206004820152602560248201527f44656c6179206d65746174646174612072657665616c206973206e6f7420656e60448201526418589b195960da1b60648201526084016110aa565b80516116739060fd906020840190612f42565b60606000805160206136208339815191526003018054610b6390613436565b6001600160a01b038216331415611cc5576040517fb06307db00000000000000000000000000000000000000000000000000000000815260040160405180910390fd5b3360008181527f2569078dfb4b0305704d3008e7403993ae9601b85f7ae5e742de3de8f8011c47602090815260408083206001600160a01b03871680855290835292819020805460ff191686151590811790915590519081529192917f17307eab39ab6107e8899845ad3d59bd9653f200f220920489ca2b5937696c31910160405180910390a35050565b611d5861229e565b60ff805416611db75760405162461bcd60e51b815260206004820152602560248201527f44656c6179206d65746174646174612072657665616c206973206e6f7420656e60448201526418589b195960da1b60648201526084016110aa565b60ff805461010090041615611e345760405162461bcd60e51b815260206004820152602260248201527f4d657461646174612068617320616c7265616479206265656e2072657665616c60448201527f656400000000000000000000000000000000000000000000000000000000000060648201526084016110aa565b60ff805461ff001916610100179055565b611e4d61229e565b61010055565b611e5b61229e565b8051611673907f2569078dfb4b0305704d3008e7403993ae9601b85f7ae5e742de3de8f8011c43906020840190612f42565b611e98848484610d91565b6001600160a01b0383163b15611ed157611eb48484848461282b565b611ed1576040516368d2bf6b60e11b815260040160405180910390fd5b50505050565b611edf61229e565b8051611673907f2569078dfb4b0305704d3008e7403993ae9601b85f7ae5e742de3de8f8011c42906020840190612f42565b60fe80546116ac90613436565b6060611f2982612317565b611f5f576040517fa14c4b5000000000000000000000000000000000000000000000000000000000815260040160405180910390fd5b60ff8054168015611f77575060ff8054610100900416155b1561200e5760fd8054611f8990613436565b80601f0160208091040260200160405190810160405280929190818152602001828054611fb590613436565b80156120025780601f10611fd757610100808354040283529160200191612002565b820191906000526020600020905b815481529060010190602001808311611fe557829003601f168201915b50505050509050919050565b610b3082612914565b61201f61229e565b61010555565b60fd80546116ac90613436565b61203a61229e565b60ff805460ff19811690821615179055565b61205461229e565b80516116739060fe906020840190612f42565b61206f61229e565b610105544210156120c25760405162461bcd60e51b815260206004820152601560248201527f4d696e74696e6720686173206e6f7420656e646564000000000000000000000060448201526064016110aa565b600260ca5414156121155760405162461bcd60e51b815260206004820152601f60248201527f5265656e7472616e637947756172643a207265656e7472616e742063616c6c0060448201526064016110aa565b600260ca557f2569078dfb4b0305704d3008e7403993ae9601b85f7ae5e742de3de8f8011c415460008051602061362083398151915254600091900360001901610100546121639190613487565b9050600081116121b55760405162461bcd60e51b815260206004820152601160248201527f4e6f204e4654732077657265206c65667400000000000000000000000000000060448201526064016110aa565b600a8111156121e5576121c9600a82613487565b90506121e06115ae6098546001600160a01b031690565b6121b5565b6111bf6121fa6098546001600160a01b031690565b826126bf565b61220861229e565b6001600160a01b0381166122845760405162461bcd60e51b815260206004820152602660248201527f4f776e61626c653a206e6577206f776e657220697320746865207a65726f206160448201527f646472657373000000000000000000000000000000000000000000000000000060648201526084016110aa565b61228d8161278e565b50565b61229861229e565b61010855565b6122a66126d9565b6001600160a01b03166122c16098546001600160a01b031690565b6001600160a01b0316146115ce5760405162461bcd60e51b815260206004820181905260248201527f4f776e61626c653a2063616c6c6572206973206e6f7420746865206f776e657260448201526064016110aa565b60008160011115801561233857506000805160206136208339815191525482105b8015610b3057505060009081527f2569078dfb4b0305704d3008e7403993ae9601b85f7ae5e742de3de8f8011c446020526040902054600160e01b161590565b6000818060011161241a576000805160206136208339815191525481101561241a5760008181527f2569078dfb4b0305704d3008e7403993ae9601b85f7ae5e742de3de8f8011c446020526040902054600160e01b8116612418575b8061241157506000190160008181527f2569078dfb4b0305704d3008e7403993ae9601b85f7ae5e742de3de8f8011c4460205260409020546123d4565b9392505050565b505b6040517fdf2d9b4200000000000000000000000000000000000000000000000000000000815260040160405180910390fd5b600054610100900460ff166124b75760405162461bcd60e51b815260206004820152602b60248201527f496e697469616c697a61626c653a20636f6e7472616374206973206e6f74206960448201526a6e697469616c697a696e6760a81b60648201526084016110aa565b6115ce612975565b600054610100900460ff1661252a5760405162461bcd60e51b815260206004820152602b60248201527f496e697469616c697a61626c653a20636f6e7472616374206973206e6f74206960448201526a6e697469616c697a696e6760a81b60648201526084016110aa565b6125326129e7565b61228d81612a52565b7fee151c8401928dc223602bb187aff91b9a56c7cae5476ef1b3287b085a16c85f54610100900460ff166125d75760405162461bcd60e51b815260206004820152603460248201527f455243373231415f5f496e697469616c697a61626c653a20636f6e747261637460448201527f206973206e6f7420696e697469616c697a696e6700000000000000000000000060648201526084016110aa565b6116738282612aec565b600054610100900460ff1661264c5760405162461bcd60e51b815260206004820152602b60248201527f496e697469616c697a61626c653a20636f6e7472616374206973206e6f74206960448201526a6e697469616c697a696e6760a81b60648201526084016110aa565b6115ce612c04565b600054610100900460ff166122845760405162461bcd60e51b815260206004820152602b60248201527f496e697469616c697a61626c653a20636f6e7472616374206973206e6f74206960448201526a6e697469616c697a696e6760a81b60648201526084016110aa565b611673828260405180602001604052806000815250612c7b565b600061169a612d02565b6126eb612d2a565b6066805460ff191690557f5db9ee0a495bf2e6ff9c91a7834c1ba4fdd244a5e8aa4e537bd38aeae4b073aa61271e6126d9565b6040516001600160a01b03909116815260200160405180910390a1565b60665460ff16156115ce5760405162461bcd60e51b815260206004820152601060248201527f5061757361626c653a207061757365640000000000000000000000000000000060448201526064016110aa565b609880546001600160a01b0383811673ffffffffffffffffffffffffffffffffffffffff19831681179093556040519116919082907f8be0079c531659141344cd1fd0a4f28419497f9722a3daafe3b4186f6b6457e090600090a35050565b6127f561273b565b6066805460ff191660011790557f62e78cea01bee320cd4e420270b5ea74000d11b0c9f74754ebdbfc544b05a25861271e6126d9565b604051630a85bd0160e11b81526000906001600160a01b0385169063150b7a02906128609033908990889088906004016134d5565b6020604051808303816000875af192505050801561289b575060408051601f3d908101601f1916820190925261289891810190613511565b60015b6128f6573d8080156128c9576040519150601f19603f3d011682016040523d82523d6000602084013e6128ce565b606091505b5080516128ee576040516368d2bf6b60e11b815260040160405180910390fd5b805181602001fd5b6001600160e01b031916630a85bd0160e11b1490505b949350505050565b60606000612920612d7c565b90508051600014156129415760405180602001604052806000815250612411565b8061294b84612d8b565b60fe60405160200161295f9392919061352e565b6040516020818303038152906040529392505050565b600054610100900460ff166129e05760405162461bcd60e51b815260206004820152602b60248201527f496e697469616c697a61626c653a20636f6e7472616374206973206e6f74206960448201526a6e697469616c697a696e6760a81b60648201526084016110aa565b600160ca55565b600054610100900460ff166115ce5760405162461bcd60e51b815260206004820152602b60248201527f496e697469616c697a61626c653a20636f6e7472616374206973206e6f74206960448201526a6e697469616c697a696e6760a81b60648201526084016110aa565b600054610100900460ff16612abd5760405162461bcd60e51b815260206004820152602b60248201527f496e697469616c697a61626c653a20636f6e7472616374206973206e6f74206960448201526a6e697469616c697a696e6760a81b60648201526084016110aa565b6033805473ffffffffffffffffffffffffffffffffffffffff19166001600160a01b0392909216919091179055565b7fee151c8401928dc223602bb187aff91b9a56c7cae5476ef1b3287b085a16c85f54610100900460ff16612b885760405162461bcd60e51b815260206004820152603460248201527f455243373231415f5f496e697469616c697a61626c653a20636f6e747261637460448201527f206973206e6f7420696e697469616c697a696e6700000000000000000000000060648201526084016110aa565b8151612bba907f2569078dfb4b0305704d3008e7403993ae9601b85f7ae5e742de3de8f8011c42906020850190612f42565b508051612bed907f2569078dfb4b0305704d3008e7403993ae9601b85f7ae5e742de3de8f8011c43906020840190612f42565b506001600080516020613620833981519152555050565b600054610100900460ff16612c6f5760405162461bcd60e51b815260206004820152602b60248201527f496e697469616c697a61626c653a20636f6e7472616374206973206e6f74206960448201526a6e697469616c697a696e6760a81b60648201526084016110aa565b6066805460ff19169055565b612c858383612dda565b6001600160a01b0383163b156115fb57600080516020613620833981519152548281035b612cbc600086838060010194508661282b565b612cd9576040516368d2bf6b60e11b815260040160405180910390fd5b818110612ca957816000805160206136208339815191525414612cfb57600080fd5b5050505050565b6033546000906001600160a01b0316331415612d25575060131936013560601c90565b503390565b60665460ff166115ce5760405162461bcd60e51b815260206004820152601460248201527f5061757361626c653a206e6f742070617573656400000000000000000000000060448201526064016110aa565b606060fc8054610b6390613436565b604080516080810191829052607f0190826030600a8206018353600a90045b8015612dc857600183039250600a81066030018353600a9004612daa565b50819003601f19909101908152919050565b600080516020613620833981519152546001600160a01b038316612e2a576040517f2e07630000000000000000000000000000000000000000000000000000000000815260040160405180910390fd5b81612e61576040517fb562e8dd00000000000000000000000000000000000000000000000000000000815260040160405180910390fd5b6001600160a01b03831660008181527f2569078dfb4b0305704d3008e7403993ae9601b85f7ae5e742de3de8f8011c456020526040902080546801000000000000000185020190554260a01b6001841460e11b171760008281527f2569078dfb4b0305704d3008e7403993ae9601b85f7ae5e742de3de8f8011c446020526040902055808281015b6040516001830192906001600160a01b038716906000907fddf252ad1be2c89b69c2b068fc378daa952ba7f163c4a11628f55a4df523b3ef908290a4808210612ee9576000805160206136208339815191525550505050565b828054612f4e90613436565b90600052602060002090601f016020900481019282612f705760008555612fb6565b82601f10612f8957805160ff1916838001178555612fb6565b82800160010185558215612fb6579182015b82811115612fb6578251825591602001919060010190612f9b565b50612fc2929150612fc6565b5090565b5b80821115612fc25760008155600101612fc7565b6001600160e01b03198116811461228d57600080fd5b60006020828403121561300357600080fd5b813561241181612fdb565b60006020828403121561302057600080fd5b5035919050565b60005b8381101561304257818101518382015260200161302a565b83811115611ed15750506000910152565b6000815180845261306b816020860160208601613027565b601f01601f19169290920160200192915050565b6020815260006124116020830184613053565b80356001600160a01b03811681146130a957600080fd5b919050565b600080604083850312156130c157600080fd5b6130ca83613092565b946020939093013593505050565b6000806000606084860312156130ed57600080fd5b6130f684613092565b925061310460208501613092565b9150604084013590509250925092565b634e487b7160e01b600052604160045260246000fd5b60405160e0810167ffffffffffffffff8111828210171561314d5761314d613114565b60405290565b600067ffffffffffffffff8084111561316e5761316e613114565b604051601f8501601f19908116603f0116810190828211818310171561319657613196613114565b816040528093508581528686860111156131af57600080fd5b858560208301376000602087830101525050509392505050565b600082601f8301126131da57600080fd5b61241183833560208501613153565b600080600080600085870361016081121561320357600080fd5b61320c87613092565b955061321a60208801613092565b9450604087013567ffffffffffffffff8082111561323757600080fd5b6132438a838b016131c9565b9550606089013591508082111561325957600080fd5b5061326689828a016131c9565b93505060e0607f198201121561327b57600080fd5b5061328461312a565b6080870135815260a0870135602082015260c0870135604082015260e08701356060820152610100870135608082015261012087013560a082015261014087013560c0820152809150509295509295909350565b6000602082840312156132ea57600080fd5b61241182613092565b60006020828403121561330557600080fd5b813567ffffffffffffffff81111561331c57600080fd5b61290c848285016131c9565b60006020828403121561333a57600080fd5b813560ff8116811461241157600080fd5b6000806040838503121561335e57600080fd5b61336783613092565b91506020830135801515811461337c57600080fd5b809150509250929050565b6000806000806080858703121561339d57600080fd5b6133a685613092565b93506133b460208601613092565b925060408501359150606085013567ffffffffffffffff8111156133d757600080fd5b8501601f810187136133e857600080fd5b6133f787823560208401613153565b91505092959194509250565b6000806040838503121561341657600080fd5b61341f83613092565b915061342d60208401613092565b90509250929050565b600181811c9082168061344a57607f821691505b6020821081141561346b57634e487b7160e01b600052602260045260246000fd5b50919050565b634e487b7160e01b600052601160045260246000fd5b60008282101561349957613499613471565b500390565b600082198211156134b1576134b1613471565b500190565b60008160001904831182151516156134d0576134d0613471565b500290565b60006001600160a01b038087168352808616602084015250836040830152608060608301526135076080830184613053565b9695505050505050565b60006020828403121561352357600080fd5b815161241181612fdb565b6000845160206135418285838a01613027565b81840191507f2f0000000000000000000000000000000000000000000000000000000000000082526001865161357c81838601858b01613027565b865493019260009080831c8382168061359657607f821691505b8582108114156135b457634e487b7160e01b84526022600452602484fd5b8080156135c857600181146135dd5761360e565b60ff198416888701528288018601945061360e565b60008b81526020902060005b848110156136045781548a82018901529087019088016135e9565b5050858389010194505b50929b9a505050505050505050505056fe2569078dfb4b0305704d3008e7403993ae9601b85f7ae5e742de3de8f8011c40a26469706673582212206902bdf39116e03d75c8967ecad750f636a32d1b23b4b5b531730d7f22ecba7564736f6c634300080a0033",
  "linkReferences": {},
  "deployedLinkReferences": {}
}