{
  "_format": "hh-sol-artifact-1",
  "contractName": "MiNFTFactory",
  "sourceName": "contracts/utils/MiNFTFactory.sol",
  "abi": [
    {
      "inputs": [
        {
          "internalType": "address",
          "name": "_trustedForwarder",
          "type": "address"
        },
        {
          "internalType": "address",
          "name": "_registry",
          "type": "address"
        }
      ],
      "stateMutability": "nonpayable",
      "type": "constructor"
    },
    {
      "anonymous": false,
      "inputs": [
        {
          "indexed": false,
          "internalType": "address",
          "name": "implementation",
          "type": "address"
        },
        {
          "indexed": true,
          "internalType": "bytes32",
          "name": "contractType",
          "type": "bytes32"
        },
        {
          "indexed": false,
          "internalType": "uint256",
          "name": "version",
          "type": "uint256"
        }
      ],
      "name": "ImplementationAdded",
      "type": "event"
    },
    {
      "anonymous": false,
      "inputs": [
        {
          "indexed": false,
          "internalType": "address",
          "name": "implementation",
          "type": "address"
        },
        {
          "indexed": false,
          "internalType": "bool",
          "name": "isApproved",
          "type": "bool"
        }
      ],
      "name": "ImplementationApproved",
      "type": "event"
    },
    {
      "anonymous": false,
      "inputs": [
        {
          "indexed": true,
          "internalType": "address",
          "name": "previousOwner",
          "type": "address"
        },
        {
          "indexed": true,
          "internalType": "address",
          "name": "newOwner",
          "type": "address"
        }
      ],
      "name": "OwnershipTransferred",
      "type": "event"
    },
    {
      "anonymous": false,
      "inputs": [
        {
          "indexed": true,
          "internalType": "address",
          "name": "implementation",
          "type": "address"
        },
        {
          "indexed": false,
          "internalType": "address",
          "name": "proxy",
          "type": "address"
        },
        {
          "indexed": true,
          "internalType": "address",
          "name": "deployer",
          "type": "address"
        }
      ],
      "name": "ProxyDeployed",
      "type": "event"
    },
    {
      "inputs": [
        {
          "internalType": "address",
          "name": "_implementation",
          "type": "address"
        }
      ],
      "name": "addImplementation",
      "outputs": [],
      "stateMutability": "nonpayable",
      "type": "function"
    },
    {
      "inputs": [
        {
          "internalType": "address",
          "name": "",
          "type": "address"
        }
      ],
      "name": "approval",
      "outputs": [
        {
          "internalType": "bool",
          "name": "",
          "type": "bool"
        }
      ],
      "stateMutability": "view",
      "type": "function"
    },
    {
      "inputs": [
        {
          "internalType": "address",
          "name": "_implementation",
          "type": "address"
        },
        {
          "internalType": "bool",
          "name": "_approve",
          "type": "bool"
        }
      ],
      "name": "approveImplementation",
      "outputs": [],
      "stateMutability": "nonpayable",
      "type": "function"
    },
    {
      "inputs": [
        {
          "internalType": "bytes32",
          "name": "",
          "type": "bytes32"
        }
      ],
      "name": "currentVersion",
      "outputs": [
        {
          "internalType": "uint256",
          "name": "",
          "type": "uint256"
        }
      ],
      "stateMutability": "view",
      "type": "function"
    },
    {
      "inputs": [
        {
          "internalType": "bytes32",
          "name": "_type",
          "type": "bytes32"
        },
        {
          "internalType": "bytes",
          "name": "_data",
          "type": "bytes"
        }
      ],
      "name": "deployProxy",
      "outputs": [
        {
          "internalType": "address",
          "name": "",
          "type": "address"
        }
      ],
      "stateMutability": "nonpayable",
      "type": "function"
    },
    {
      "inputs": [
        {
          "internalType": "address",
          "name": "_implementation",
          "type": "address"
        },
        {
          "internalType": "bytes32",
          "name": "_type",
          "type": "bytes32"
        },
        {
          "internalType": "bytes",
          "name": "_data",
          "type": "bytes"
        },
        {
          "internalType": "bytes32",
          "name": "_salt",
          "type": "bytes32"
        }
      ],
      "name": "deployProxyByImplementation",
      "outputs": [
        {
          "internalType": "address",
          "name": "deployedProxy",
          "type": "address"
        }
      ],
      "stateMutability": "nonpayable",
      "type": "function"
    },
    {
      "inputs": [
        {
          "internalType": "bytes32",
          "name": "_type",
          "type": "bytes32"
        },
        {
          "internalType": "bytes",
          "name": "_data",
          "type": "bytes"
        },
        {
          "internalType": "bytes32",
          "name": "_salt",
          "type": "bytes32"
        }
      ],
      "name": "deployProxyDeterministic",
      "outputs": [
        {
          "internalType": "address",
          "name": "",
          "type": "address"
        }
      ],
      "stateMutability": "nonpayable",
      "type": "function"
    },
    {
      "inputs": [
        {
          "internalType": "address",
          "name": "",
          "type": "address"
        }
      ],
      "name": "deployer",
      "outputs": [
        {
          "internalType": "address",
          "name": "",
          "type": "address"
        }
      ],
      "stateMutability": "view",
      "type": "function"
    },
    {
      "inputs": [
        {
          "internalType": "address",
          "name": "_implementation",
          "type": "address"
        }
      ],
      "name": "getDeterministicAddress",
      "outputs": [
        {
          "internalType": "address",
          "name": "",
          "type": "address"
        }
      ],
      "stateMutability": "view",
      "type": "function"
    },
    {
      "inputs": [
        {
          "internalType": "bytes32",
          "name": "_type",
          "type": "bytes32"
        },
        {
          "internalType": "uint8",
          "name": "_version",
          "type": "uint8"
        }
      ],
      "name": "getImplementation",
      "outputs": [
        {
          "internalType": "address",
          "name": "",
          "type": "address"
        }
      ],
      "stateMutability": "view",
      "type": "function"
    },
    {
      "inputs": [
        {
          "internalType": "bytes32",
          "name": "_type",
          "type": "bytes32"
        }
      ],
      "name": "getLastestImplementation",
      "outputs": [
        {
          "internalType": "address",
          "name": "",
          "type": "address"
        }
      ],
      "stateMutability": "view",
      "type": "function"
    },
    {
      "inputs": [
        {
          "internalType": "bytes32",
          "name": "",
          "type": "bytes32"
        },
        {
          "internalType": "uint256",
          "name": "",
          "type": "uint256"
        }
      ],
      "name": "implementation",
      "outputs": [
        {
          "internalType": "address",
          "name": "",
          "type": "address"
        }
      ],
      "stateMutability": "view",
      "type": "function"
    },
    {
      "inputs": [
        {
          "internalType": "address",
          "name": "forwarder",
          "type": "address"
        }
      ],
      "name": "isTrustedForwarder",
      "outputs": [
        {
          "internalType": "bool",
          "name": "",
          "type": "bool"
        }
      ],
      "stateMutability": "view",
      "type": "function"
    },
    {
      "inputs": [
        {
          "internalType": "bytes[]",
          "name": "data",
          "type": "bytes[]"
        }
      ],
      "name": "multicall",
      "outputs": [
        {
          "internalType": "bytes[]",
          "name": "results",
          "type": "bytes[]"
        }
      ],
      "stateMutability": "nonpayable",
      "type": "function"
    },
    {
      "inputs": [],
      "name": "owner",
      "outputs": [
        {
          "internalType": "address",
          "name": "",
          "type": "address"
        }
      ],
      "stateMutability": "view",
      "type": "function"
    },
    {
      "inputs": [],
      "name": "registry",
      "outputs": [
        {
          "internalType": "contract MiNFTRegistry",
          "name": "",
          "type": "address"
        }
      ],
      "stateMutability": "view",
      "type": "function"
    },
    {
      "inputs": [],
      "name": "renounceOwnership",
      "outputs": [],
      "stateMutability": "nonpayable",
      "type": "function"
    },
    {
      "inputs": [
        {
          "internalType": "address",
          "name": "newOwner",
          "type": "address"
        }
      ],
      "name": "transferOwnership",
      "outputs": [],
      "stateMutability": "nonpayable",
      "type": "function"
    }
  ],
  "bytecode": "0x60c06040523480156200001157600080fd5b50604051620019373803806200193783398101604081905262000034916200012e565b6001600160a01b038216608052620000556200004f62000068565b62000084565b6001600160a01b031660a0525062000166565b60006200007f620000d460201b62000dbf1760201c565b905090565b600080546001600160a01b038381166001600160a01b0319831681178455604051919092169283917f8be0079c531659141344cd1fd0a4f28419497f9722a3daafe3b4186f6b6457e09190a35050565b6080516000906001600160a01b0316331415620000f8575060131936013560601c90565b6200007f6200010d60201b62000e091760201c565b3390565b80516001600160a01b03811681146200012957600080fd5b919050565b600080604083850312156200014257600080fd5b6200014d8362000111565b91506200015d6020840162000111565b90509250929050565b60805160a05161178f620001a86000396000818161021e015281816105280152818161078f0152610bfc0152600081816101d10152610dc3015261178f6000f3fe608060405234801561001057600080fd5b50600436106101365760003560e01c80639430b496116100b2578063baa7ca1811610081578063e92016a411610066578063e92016a414610331578063ec54d72f14610365578063f2fde38b1461037857600080fd5b8063baa7ca18146102e3578063c6e2a4001461031e57600080fd5b80639430b4961461026457806396d2ae2e14610287578063ac9650d81461029a578063b9caf9d9146102ba57600080fd5b8063572b6c05116101095780637b103999116100ee5780637b103999146102195780638da5cb5b14610240578063910888b91461025157600080fd5b8063572b6c05146101c1578063715018a61461021157600080fd5b80631e5e1e991461013b5780633b426d3f1461016b5780633c6807751461019957806356fb0958146101ac575b600080fd5b61014e610149366004611335565b61038b565b6040516001600160a01b0390911681526020015b60405180910390f35b61018b610179366004611385565b60036020526000908152604090205481565b604051908152602001610162565b61014e6101a73660046113ba565b6103cc565b6101bf6101ba366004611419565b6105fc565b005b6102016101cf366004611455565b7f00000000000000000000000000000000000000000000000000000000000000006001600160a01b0390811691161490565b6040519015158152602001610162565b6101bf6106d8565b61014e7f000000000000000000000000000000000000000000000000000000000000000081565b6000546001600160a01b031661014e565b61014e61025f36600461147f565b61075d565b610201610272366004611455565b60016020526000908152604090205460ff1681565b61014e610295366004611455565b61078a565b6102ad6102a83660046114a4565b6108a9565b6040516101629190611575565b61014e6102c8366004611455565b6002602052600090815260409020546001600160a01b031681565b61014e6102f1366004611385565b6000908152600460209081526040808320600383528184205484529091529020546001600160a01b031690565b6101bf61032c366004611455565b61099e565b61014e61033f3660046115d7565b60046020908152600092835260408084209091529082529020546001600160a01b031681565b61014e6103733660046115f9565b610bf7565b6101bf610386366004611455565b610cbe565b6000838152600460209081526040808320600383528184205484529091528120546001600160a01b03166103c1818686866103cc565b9150505b9392505050565b6001600160a01b03841660009081526001602052604081205460ff166104395760405162461bcd60e51b815260206004820152601b60248201527f4e6f7420617070726f76656420666f72206465706c6f796d656e74000000000060448201526064015b60405180910390fd5b6000610443610e0d565b8360405160200161047292919060609290921b6bffffffffffffffffffffffff19168252601482015260340190565b6040516020818303038152906040528051906020012090506104948682610e17565b915061049e610e0d565b6001600160a01b038381166000908152600260205260409020805473ffffffffffffffffffffffffffffffffffffffff1916929091169190911790556104e2610e0d565b6040516001600160a01b038481168252918216918816907f9e0862c4ebff2150fbbfd3f8547483f55bdec0c34fd977d3fccaa55d6c4ce7849060200160405180910390a37f00000000000000000000000000000000000000000000000000000000000000006001600160a01b031663dc0094b861055d610e0d565b6040517fffffffff0000000000000000000000000000000000000000000000000000000060e084901b1681526001600160a01b039182166004820152908516602482015260448101889052606401600060405180830381600087803b1580156105c557600080fd5b505af11580156105d9573d6000803e3d6000fd5b505050506000845111156105f3576105f18285610ece565b505b50949350505050565b610604610e0d565b6001600160a01b031661061f6000546001600160a01b031690565b6001600160a01b0316146106755760405162461bcd60e51b815260206004820181905260248201527f4f776e61626c653a2063616c6c6572206973206e6f7420746865206f776e65726044820152606401610430565b6001600160a01b038216600081815260016020908152604091829020805460ff19168515159081179091558251938452908301527f46c2f0868ef35772e9324a42eb6fa484490cca8494538a909cf05c897d7d4108910160405180910390a15050565b6106e0610e0d565b6001600160a01b03166106fb6000546001600160a01b031690565b6001600160a01b0316146107515760405162461bcd60e51b815260206004820181905260248201527f4f776e61626c653a2063616c6c6572206973206e6f7420746865206f776e65726044820152606401610430565b61075b6000610f10565b565b600082815260046020908152604080832060ff851684529091529020546001600160a01b03165b92915050565b6000807f00000000000000000000000000000000000000000000000000000000000000006001600160a01b03166305d85eda6107c4610e0d565b6040517fffffffff0000000000000000000000000000000000000000000000000000000060e084901b1681526001600160a01b039091166004820152602401602060405180830381865afa158015610820573d6000803e3d6000fd5b505050506040513d601f19601f820116820180604052508101906108449190611640565b90506000610850610e0d565b8260405160200161087f92919060609290921b6bffffffffffffffffffffffff19168252601482015260340190565b6040516020818303038152906040528051906020012090506108a18482610f6d565b949350505050565b60608167ffffffffffffffff8111156108c4576108c4611292565b6040519080825280602002602001820160405280156108f757816020015b60608152602001906001900390816108e25790505b50905060005b82811015610997576109673085858481811061091b5761091b611659565b905060200281019061092d919061166f565b8080601f016020809104026020016040519081016040528093929190818152602001838380828437600092019190915250610fe992505050565b82828151811061097957610979611659565b6020026020010181905250808061098f906116bd565b9150506108fd565b5092915050565b6109a6610e0d565b6001600160a01b03166109c16000546001600160a01b031690565b6001600160a01b031614610a175760405162461bcd60e51b815260206004820181905260248201527f4f776e61626c653a2063616c6c6572206973206e6f7420746865206f776e65726044820152606401610430565b60008190506000816001600160a01b031663cb2ef6f76040518163ffffffff1660e01b8152600401602060405180830381865afa158015610a5c573d6000803e3d6000fd5b505050506040513d601f19601f82011682018060405250810190610a809190611640565b90506000826001600160a01b031663a0a8e4606040518163ffffffff1660e01b8152600401602060405180830381865afa158015610ac2573d6000803e3d6000fd5b505050506040513d601f19601f82011682018060405250810190610ae691906116e6565b60008381526003602052604090205490915060ff8082169083161015610b4e5760405162461bcd60e51b815260206004820152600d60248201527f57726f6e672076657273696f6e000000000000000000000000000000000000006044820152606401610430565b600083815260036020908152604080832060ff861690819055600483528184208185528352818420805473ffffffffffffffffffffffffffffffffffffffff19166001600160a01b038b16908117909155808552600180855294839020805460ff191690951790945581519384529183019190915284917fc39db2d47bafbb20367a9c840abffa57a2bc243c1f1e67c939ea0e89e59ed01a910160405180910390a25050505050565b6000807f00000000000000000000000000000000000000000000000000000000000000006001600160a01b03166305d85eda610c31610e0d565b6040517fffffffff0000000000000000000000000000000000000000000000000000000060e084901b1681526001600160a01b039091166004820152602401602060405180830381865afa158015610c8d573d6000803e3d6000fd5b505050506040513d601f19601f82011682018060405250810190610cb19190611640565b90506108a184848361038b565b610cc6610e0d565b6001600160a01b0316610ce16000546001600160a01b031690565b6001600160a01b031614610d375760405162461bcd60e51b815260206004820181905260248201527f4f776e61626c653a2063616c6c6572206973206e6f7420746865206f776e65726044820152606401610430565b6001600160a01b038116610db35760405162461bcd60e51b815260206004820152602660248201527f4f776e61626c653a206e6577206f776e657220697320746865207a65726f206160448201527f64647265737300000000000000000000000000000000000000000000000000006064820152608401610430565b610dbc81610f10565b50565b60007f00000000000000000000000000000000000000000000000000000000000000006001600160a01b0316331415610dff575060131936013560601c90565b503390565b905090565b3390565b6000610e04610dbf565b60006040517f3d602d80600a3d3981f3363d3d373d3d3d363d7300000000000000000000000081528360601b60148201527f5af43d82803e903d91602b57fd5bf300000000000000000000000000000000006028820152826037826000f59150506001600160a01b0381166107845760405162461bcd60e51b815260206004820152601760248201527f455243313136373a2063726561746532206661696c65640000000000000000006044820152606401610430565b60606103c583836040518060400160405280601e81526020017f416464726573733a206c6f772d6c6576656c2063616c6c206661696c6564000081525061100e565b600080546001600160a01b0383811673ffffffffffffffffffffffffffffffffffffffff19831681178455604051919092169283917f8be0079c531659141344cd1fd0a4f28419497f9722a3daafe3b4186f6b6457e09190a35050565b60006103c58383306040517f3d602d80600a3d3981f3363d3d373d3d3d363d730000000000000000000000008152606093841b60148201527f5af43d82803e903d91602b57fd5bf3ff000000000000000000000000000000006028820152921b6038830152604c8201526037808220606c830152605591012090565b60606103c583836040518060600160405280602781526020016117336027913961101d565b60606108a18484600085611111565b60606001600160a01b0384163b61109c5760405162461bcd60e51b815260206004820152602660248201527f416464726573733a2064656c65676174652063616c6c20746f206e6f6e2d636f60448201527f6e747261637400000000000000000000000000000000000000000000000000006064820152608401610430565b600080856001600160a01b0316856040516110b79190611703565b600060405180830381855af49150503d80600081146110f2576040519150601f19603f3d011682016040523d82523d6000602084013e6110f7565b606091505b5091509150611107828286611259565b9695505050505050565b6060824710156111895760405162461bcd60e51b815260206004820152602660248201527f416464726573733a20696e73756666696369656e742062616c616e636520666f60448201527f722063616c6c00000000000000000000000000000000000000000000000000006064820152608401610430565b6001600160a01b0385163b6111e05760405162461bcd60e51b815260206004820152601d60248201527f416464726573733a2063616c6c20746f206e6f6e2d636f6e74726163740000006044820152606401610430565b600080866001600160a01b031685876040516111fc9190611703565b60006040518083038185875af1925050503d8060008114611239576040519150601f19603f3d011682016040523d82523d6000602084013e61123e565b606091505b509150915061124e828286611259565b979650505050505050565b606083156112685750816103c5565b8251156112785782518084602001fd5b8160405162461bcd60e51b8152600401610430919061171f565b634e487b7160e01b600052604160045260246000fd5b600082601f8301126112b957600080fd5b813567ffffffffffffffff808211156112d4576112d4611292565b604051601f8301601f19908116603f011681019082821181831017156112fc576112fc611292565b8160405283815286602085880101111561131557600080fd5b836020870160208301376000602085830101528094505050505092915050565b60008060006060848603121561134a57600080fd5b83359250602084013567ffffffffffffffff81111561136857600080fd5b611374868287016112a8565b925050604084013590509250925092565b60006020828403121561139757600080fd5b5035919050565b80356001600160a01b03811681146113b557600080fd5b919050565b600080600080608085870312156113d057600080fd5b6113d98561139e565b935060208501359250604085013567ffffffffffffffff8111156113fc57600080fd5b611408878288016112a8565b949793965093946060013593505050565b6000806040838503121561142c57600080fd5b6114358361139e565b91506020830135801515811461144a57600080fd5b809150509250929050565b60006020828403121561146757600080fd5b6103c58261139e565b60ff81168114610dbc57600080fd5b6000806040838503121561149257600080fd5b82359150602083013561144a81611470565b600080602083850312156114b757600080fd5b823567ffffffffffffffff808211156114cf57600080fd5b818501915085601f8301126114e357600080fd5b8135818111156114f257600080fd5b8660208260051b850101111561150757600080fd5b60209290920196919550909350505050565b60005b8381101561153457818101518382015260200161151c565b83811115611543576000848401525b50505050565b60008151808452611561816020860160208601611519565b601f01601f19169290920160200192915050565b6000602080830181845280855180835260408601915060408160051b870101925083870160005b828110156115ca57603f198886030184526115b8858351611549565b9450928501929085019060010161159c565b5092979650505050505050565b600080604083850312156115ea57600080fd5b50508035926020909101359150565b6000806040838503121561160c57600080fd5b82359150602083013567ffffffffffffffff81111561162a57600080fd5b611636858286016112a8565b9150509250929050565b60006020828403121561165257600080fd5b5051919050565b634e487b7160e01b600052603260045260246000fd5b6000808335601e1984360301811261168657600080fd5b83018035915067ffffffffffffffff8211156116a157600080fd5b6020019150368190038213156116b657600080fd5b9250929050565b60006000198214156116df57634e487b7160e01b600052601160045260246000fd5b5060010190565b6000602082840312156116f857600080fd5b81516103c581611470565b60008251611715818460208701611519565b9190910192915050565b6020815260006103c5602083018461154956fe416464726573733a206c6f772d6c6576656c2064656c65676174652063616c6c206661696c6564a2646970667358221220bb144e68a904343889596d12a8b1588eb65f2d4018cb6d56f3163eb3612eb98f64736f6c634300080a0033",
  "linkReferences": {},
  "deployedLinkReferences": {}
}