{
  "_format": "hh-sol-artifact-1",
  "contractName": "MiNFTRegistry",
  "sourceName": "contracts/utils/MiNFTRegistry.sol",
  "abi": [
    {
      "inputs": [
        {
          "internalType": "address",
          "name": "_trustedForwarder",
          "type": "address"
        }
      ],
      "stateMutability": "nonpayable",
      "type": "constructor"
    },
    {
      "anonymous": false,
      "inputs": [
        {
          "indexed": true,
          "internalType": "address",
          "name": "deployer",
          "type": "address"
        },
        {
          "indexed": true,
          "internalType": "address",
          "name": "deployment",
          "type": "address"
        }
      ],
      "name": "Added",
      "type": "event"
    },
    {
      "anonymous": false,
      "inputs": [
        {
          "indexed": true,
          "internalType": "address",
          "name": "deployer",
          "type": "address"
        },
        {
          "indexed": true,
          "internalType": "address",
          "name": "deployment",
          "type": "address"
        }
      ],
      "name": "Deleted",
      "type": "event"
    },
    {
      "anonymous": false,
      "inputs": [
        {
          "indexed": true,
          "internalType": "address",
          "name": "previousOwner",
          "type": "address"
        },
        {
          "indexed": true,
          "internalType": "address",
          "name": "newOwner",
          "type": "address"
        }
      ],
      "name": "OwnershipTransferred",
      "type": "event"
    },
    {
      "inputs": [
        {
          "internalType": "address",
          "name": "_deployer",
          "type": "address"
        },
        {
          "internalType": "address",
          "name": "_proxy",
          "type": "address"
        },
        {
          "internalType": "bytes32",
          "name": "_type",
          "type": "bytes32"
        }
      ],
      "name": "add",
      "outputs": [],
      "stateMutability": "nonpayable",
      "type": "function"
    },
    {
      "inputs": [
        {
          "internalType": "address",
          "name": "_deployer",
          "type": "address"
        }
      ],
      "name": "count",
      "outputs": [
        {
          "internalType": "uint256",
          "name": "",
          "type": "uint256"
        }
      ],
      "stateMutability": "view",
      "type": "function"
    },
    {
      "inputs": [
        {
          "internalType": "address",
          "name": "_deployer",
          "type": "address"
        }
      ],
      "name": "getAll",
      "outputs": [
        {
          "internalType": "address[]",
          "name": "",
          "type": "address[]"
        }
      ],
      "stateMutability": "view",
      "type": "function"
    },
    {
      "inputs": [
        {
          "internalType": "address",
          "name": "forwarder",
          "type": "address"
        }
      ],
      "name": "isTrustedForwarder",
      "outputs": [
        {
          "internalType": "bool",
          "name": "",
          "type": "bool"
        }
      ],
      "stateMutability": "view",
      "type": "function"
    },
    {
      "inputs": [],
      "name": "owner",
      "outputs": [
        {
          "internalType": "address",
          "name": "",
          "type": "address"
        }
      ],
      "stateMutability": "view",
      "type": "function"
    },
    {
      "inputs": [
        {
          "internalType": "address",
          "name": "",
          "type": "address"
        }
      ],
      "name": "proxyType",
      "outputs": [
        {
          "internalType": "bytes32",
          "name": "",
          "type": "bytes32"
        }
      ],
      "stateMutability": "view",
      "type": "function"
    },
    {
      "inputs": [
        {
          "internalType": "address",
          "name": "_deployer",
          "type": "address"
        },
        {
          "internalType": "address",
          "name": "_proxy",
          "type": "address"
        }
      ],
      "name": "remove",
      "outputs": [],
      "stateMutability": "nonpayable",
      "type": "function"
    },
    {
      "inputs": [],
      "name": "renounceOwnership",
      "outputs": [],
      "stateMutability": "nonpayable",
      "type": "function"
    },
    {
      "inputs": [
        {
          "internalType": "address",
          "name": "newOwner",
          "type": "address"
        }
      ],
      "name": "transferOwnership",
      "outputs": [],
      "stateMutability": "nonpayable",
      "type": "function"
    }
  ],
  "bytecode": "0x60a060405234801561001057600080fd5b50604051610a7e380380610a7e83398101604081905261002f916100f4565b6001600160a01b03811660805261004c610047610052565b61006b565b50610124565b60006100666100bb60201b6105191760201c565b905090565b600080546001600160a01b038381166001600160a01b0319831681178455604051919092169283917f8be0079c531659141344cd1fd0a4f28419497f9722a3daafe3b4186f6b6457e09190a35050565b6080516000906001600160a01b03163314156100de575060131936013560601c90565b6100666100f060201b6105631760201c565b3390565b60006020828403121561010657600080fd5b81516001600160a01b038116811461011d57600080fd5b9392505050565b6080516109396101456000396000818160de015261051d01526109396000f3fe608060405234801561001057600080fd5b50600436106100a35760003560e01c80637f7c149111610076578063dc0094b81161005b578063dc0094b814610176578063eb07734214610189578063f2fde38b146101a957600080fd5b80637f7c1491146101485780638da5cb5b1461015b57600080fd5b806305d85eda146100a8578063572b6c05146100ce5780636bd9f5161461011e578063715018a61461013e575b600080fd5b6100bb6100b63660046107db565b6101bc565b6040519081526020015b60405180910390f35b61010e6100dc3660046107db565b7f00000000000000000000000000000000000000000000000000000000000000006001600160a01b0390811691161490565b60405190151581526020016100c5565b6100bb61012c3660046107db565b60026020526000908152604090205481565b6101466101e3565b005b6101466101563660046107f6565b61026d565b6000546040516001600160a01b0390911681526020016100c5565b610146610184366004610829565b610336565b61019c6101973660046107db565b6103f4565b6040516100c59190610865565b6101466101b73660046107db565b610418565b6001600160a01b03811660009081526001602052604081206101dd90610567565b92915050565b6101eb610571565b6001600160a01b03166102066000546001600160a01b031690565b6001600160a01b0316146102615760405162461bcd60e51b815260206004820181905260248201527f4f776e61626c653a2063616c6c6572206973206e6f7420746865206f776e657260448201526064015b60405180910390fd5b61026b600061057b565b565b6001600160a01b0380821660009081526002602090815260408083208390559285168252600190529081206102a290836105e3565b9050806102f15760405162461bcd60e51b815260206004820152601e60248201527f4661696c656420746f2072656d6f76652066726f6d20726567697374727900006044820152606401610258565b816001600160a01b0316836001600160a01b03167ffc5ffe2160301e6b21a86f66febb30fe4e9e6932ac1afc0348fb2fd5daa18b1360405160405180910390a3505050565b6001600160a01b038316600090815260016020526040812061035890846105ff565b9050806103a75760405162461bcd60e51b815260206004820152601960248201527f4661696c656420746f2061646420746f207265676973747279000000000000006044820152606401610258565b6001600160a01b038084166000818152600260205260408082208690555191928716917f938c63ac3d228b23f6bee7618fefc6790522e338ac202c958a2ea9eb9706c5d19190a350505050565b6001600160a01b03811660009081526001602052604090206060906101dd90610614565b610420610571565b6001600160a01b031661043b6000546001600160a01b031690565b6001600160a01b0316146104915760405162461bcd60e51b815260206004820181905260248201527f4f776e61626c653a2063616c6c6572206973206e6f7420746865206f776e65726044820152606401610258565b6001600160a01b03811661050d5760405162461bcd60e51b815260206004820152602660248201527f4f776e61626c653a206e6577206f776e657220697320746865207a65726f206160448201527f64647265737300000000000000000000000000000000000000000000000000006064820152608401610258565b6105168161057b565b50565b60007f00000000000000000000000000000000000000000000000000000000000000006001600160a01b0316331415610559575060131936013560601c90565b503390565b905090565b3390565b60006101dd825490565b600061055e610519565b600080546001600160a01b038381167fffffffffffffffffffffffff0000000000000000000000000000000000000000831681178455604051919092169283917f8be0079c531659141344cd1fd0a4f28419497f9722a3daafe3b4186f6b6457e09190a35050565b60006105f8836001600160a01b038416610621565b9392505050565b60006105f8836001600160a01b038416610714565b606060006105f883610763565b6000818152600183016020526040812054801561070a5760006106456001836108b2565b8554909150600090610659906001906108b2565b90508181146106be576000866000018281548110610679576106796108d7565b906000526020600020015490508087600001848154811061069c5761069c6108d7565b6000918252602080832090910192909255918252600188019052604090208390555b85548690806106cf576106cf6108ed565b6001900381819060005260206000200160009055905585600101600086815260200190815260200160002060009055600193505050506101dd565b60009150506101dd565b600081815260018301602052604081205461075b575081546001818101845560008481526020808220909301849055845484825282860190935260409020919091556101dd565b5060006101dd565b6060816000018054806020026020016040519081016040528092919081815260200182805480156107b357602002820191906000526020600020905b81548152602001906001019080831161079f575b50505050509050919050565b80356001600160a01b03811681146107d657600080fd5b919050565b6000602082840312156107ed57600080fd5b6105f8826107bf565b6000806040838503121561080957600080fd5b610812836107bf565b9150610820602084016107bf565b90509250929050565b60008060006060848603121561083e57600080fd5b610847846107bf565b9250610855602085016107bf565b9150604084013590509250925092565b6020808252825182820181905260009190848201906040850190845b818110156108a65783516001600160a01b031683529284019291840191600101610881565b50909695505050505050565b6000828210156108d257634e487b7160e01b600052601160045260246000fd5b500390565b634e487b7160e01b600052603260045260246000fd5b634e487b7160e01b600052603160045260246000fdfea264697066735822122005da76c64b1bdb7dd6859f0d2d737d02f6e69c619baa5f13a4e6c199f27df36664736f6c634300080a0033",
  "linkReferences": {},
  "deployedLinkReferences": {}
}