{
  "_format": "hh-sol-artifact-1",
  "contractName": "MiNFTRegistry",
  "sourceName": "contracts/utils/MiNFTRegistry.sol",
  "abi": [
    {
      "anonymous": false,
      "inputs": [
        {
          "indexed": true,
          "internalType": "address",
          "name": "deployer",
          "type": "address"
        },
        {
          "indexed": true,
          "internalType": "address",
          "name": "deployment",
          "type": "address"
        }
      ],
      "name": "Added",
      "type": "event"
    },
    {
      "anonymous": false,
      "inputs": [
        {
          "indexed": true,
          "internalType": "address",
          "name": "deployer",
          "type": "address"
        },
        {
          "indexed": true,
          "internalType": "address",
          "name": "deployment",
          "type": "address"
        }
      ],
      "name": "Deleted",
      "type": "event"
    },
    {
      "anonymous": false,
      "inputs": [
        {
          "indexed": true,
          "internalType": "address",
          "name": "previousOwner",
          "type": "address"
        },
        {
          "indexed": true,
          "internalType": "address",
          "name": "newOwner",
          "type": "address"
        }
      ],
      "name": "OwnershipTransferred",
      "type": "event"
    },
    {
      "inputs": [
        {
          "internalType": "address",
          "name": "_deployer",
          "type": "address"
        },
        {
          "internalType": "address",
          "name": "_proxy",
          "type": "address"
        }
      ],
      "name": "add",
      "outputs": [],
      "stateMutability": "nonpayable",
      "type": "function"
    },
    {
      "inputs": [
        {
          "internalType": "address",
          "name": "_deployer",
          "type": "address"
        }
      ],
      "name": "count",
      "outputs": [
        {
          "internalType": "uint256",
          "name": "",
          "type": "uint256"
        }
      ],
      "stateMutability": "view",
      "type": "function"
    },
    {
      "inputs": [
        {
          "internalType": "address",
          "name": "_deployer",
          "type": "address"
        }
      ],
      "name": "getAll",
      "outputs": [
        {
          "internalType": "address[]",
          "name": "",
          "type": "address[]"
        }
      ],
      "stateMutability": "view",
      "type": "function"
    },
    {
      "inputs": [],
      "name": "owner",
      "outputs": [
        {
          "internalType": "address",
          "name": "",
          "type": "address"
        }
      ],
      "stateMutability": "view",
      "type": "function"
    },
    {
      "inputs": [
        {
          "internalType": "address",
          "name": "_deployer",
          "type": "address"
        },
        {
          "internalType": "address",
          "name": "_proxy",
          "type": "address"
        }
      ],
      "name": "remove",
      "outputs": [],
      "stateMutability": "nonpayable",
      "type": "function"
    },
    {
      "inputs": [],
      "name": "renounceOwnership",
      "outputs": [],
      "stateMutability": "nonpayable",
      "type": "function"
    },
    {
      "inputs": [
        {
          "internalType": "address",
          "name": "newOwner",
          "type": "address"
        }
      ],
      "name": "transferOwnership",
      "outputs": [],
      "stateMutability": "nonpayable",
      "type": "function"
    }
  ],
  "bytecode": "0x608060405234801561001057600080fd5b5061001a3361001f565b61006f565b600080546001600160a01b038381166001600160a01b0319831681178455604051919092169283917f8be0079c531659141344cd1fd0a4f28419497f9722a3daafe3b4186f6b6457e09190a35050565b6107b68061007e6000396000f3fe608060405234801561001057600080fd5b506004361061007d5760003560e01c80637f7c14911161005b5780637f7c1491146100c55780638da5cb5b146100d8578063eb077342146100f3578063f2fde38b1461011357600080fd5b806305d85eda1461008257806352c28fab146100a8578063715018a6146100bd575b600080fd5b610095610090366004610694565b610126565b6040519081526020015b60405180910390f35b6100bb6100b63660046106af565b61014d565b005b6100bb610208565b6100bb6100d33660046106af565b61026e565b6000546040516001600160a01b03909116815260200161009f565b610106610101366004610694565b610324565b60405161009f91906106e2565b6100bb610121366004610694565b610348565b6001600160a01b03811660009081526001602052604081206101479061042a565b92915050565b6001600160a01b038216600090815260016020526040812061016f9083610434565b9050806101c35760405162461bcd60e51b815260206004820152601960248201527f4661696c656420746f2061646420746f2072656769737472790000000000000060448201526064015b60405180910390fd5b816001600160a01b0316836001600160a01b03167f938c63ac3d228b23f6bee7618fefc6790522e338ac202c958a2ea9eb9706c5d160405160405180910390a3505050565b6000546001600160a01b031633146102625760405162461bcd60e51b815260206004820181905260248201527f4f776e61626c653a2063616c6c6572206973206e6f7420746865206f776e657260448201526064016101ba565b61026c6000610450565b565b6001600160a01b038216600090815260016020526040812061029090836104b8565b9050806102df5760405162461bcd60e51b815260206004820152601e60248201527f4661696c656420746f2072656d6f76652066726f6d207265676973747279000060448201526064016101ba565b816001600160a01b0316836001600160a01b03167ffc5ffe2160301e6b21a86f66febb30fe4e9e6932ac1afc0348fb2fd5daa18b1360405160405180910390a3505050565b6001600160a01b0381166000908152600160205260409020606090610147906104cd565b6000546001600160a01b031633146103a25760405162461bcd60e51b815260206004820181905260248201527f4f776e61626c653a2063616c6c6572206973206e6f7420746865206f776e657260448201526064016101ba565b6001600160a01b03811661041e5760405162461bcd60e51b815260206004820152602660248201527f4f776e61626c653a206e6577206f776e657220697320746865207a65726f206160448201527f646472657373000000000000000000000000000000000000000000000000000060648201526084016101ba565b61042781610450565b50565b6000610147825490565b6000610449836001600160a01b0384166104da565b9392505050565b600080546001600160a01b038381167fffffffffffffffffffffffff0000000000000000000000000000000000000000831681178455604051919092169283917f8be0079c531659141344cd1fd0a4f28419497f9722a3daafe3b4186f6b6457e09190a35050565b6000610449836001600160a01b038416610529565b606060006104498361061c565b600081815260018301602052604081205461052157508154600181810184556000848152602080822090930184905584548482528286019093526040902091909155610147565b506000610147565b6000818152600183016020526040812054801561061257600061054d60018361072f565b85549091506000906105619060019061072f565b90508181146105c657600086600001828154811061058157610581610754565b90600052602060002001549050808760000184815481106105a4576105a4610754565b6000918252602080832090910192909255918252600188019052604090208390555b85548690806105d7576105d761076a565b600190038181906000526020600020016000905590558560010160008681526020019081526020016000206000905560019350505050610147565b6000915050610147565b60608160000180548060200260200160405190810160405280929190818152602001828054801561066c57602002820191906000526020600020905b815481526020019060010190808311610658575b50505050509050919050565b80356001600160a01b038116811461068f57600080fd5b919050565b6000602082840312156106a657600080fd5b61044982610678565b600080604083850312156106c257600080fd5b6106cb83610678565b91506106d960208401610678565b90509250929050565b6020808252825182820181905260009190848201906040850190845b818110156107235783516001600160a01b0316835292840192918401916001016106fe565b50909695505050505050565b60008282101561074f57634e487b7160e01b600052601160045260246000fd5b500390565b634e487b7160e01b600052603260045260246000fd5b634e487b7160e01b600052603160045260246000fdfea2646970667358221220599ff433a040b2300a89b5d6b17c2b5717dca337483ad443338ad897c56731a964736f6c634300080a0033",
  "linkReferences": {},
  "deployedLinkReferences": {}
}