{
  "_format": "hh-sol-artifact-1",
  "contractName": "MiNFTFactory",
  "sourceName": "contracts/utils/MiNFTFactory.sol",
  "abi": [
    {
      "inputs": [
        {
          "internalType": "address",
          "name": "_registry",
          "type": "address"
        }
      ],
      "stateMutability": "nonpayable",
      "type": "constructor"
    },
    {
      "anonymous": false,
      "inputs": [
        {
          "indexed": false,
          "internalType": "address",
          "name": "implementation",
          "type": "address"
        },
        {
          "indexed": true,
          "internalType": "bytes32",
          "name": "contractType",
          "type": "bytes32"
        },
        {
          "indexed": false,
          "internalType": "uint256",
          "name": "version",
          "type": "uint256"
        }
      ],
      "name": "ImplementationAdded",
      "type": "event"
    },
    {
      "anonymous": false,
      "inputs": [
        {
          "indexed": false,
          "internalType": "address",
          "name": "implementation",
          "type": "address"
        },
        {
          "indexed": false,
          "internalType": "bool",
          "name": "isApproved",
          "type": "bool"
        }
      ],
      "name": "ImplementationApproved",
      "type": "event"
    },
    {
      "anonymous": false,
      "inputs": [
        {
          "indexed": true,
          "internalType": "address",
          "name": "previousOwner",
          "type": "address"
        },
        {
          "indexed": true,
          "internalType": "address",
          "name": "newOwner",
          "type": "address"
        }
      ],
      "name": "OwnershipTransferred",
      "type": "event"
    },
    {
      "anonymous": false,
      "inputs": [
        {
          "indexed": true,
          "internalType": "address",
          "name": "implementation",
          "type": "address"
        },
        {
          "indexed": false,
          "internalType": "address",
          "name": "proxy",
          "type": "address"
        },
        {
          "indexed": true,
          "internalType": "address",
          "name": "deployer",
          "type": "address"
        }
      ],
      "name": "ProxyDeployed",
      "type": "event"
    },
    {
      "inputs": [
        {
          "internalType": "address",
          "name": "_implementation",
          "type": "address"
        }
      ],
      "name": "addImplementation",
      "outputs": [],
      "stateMutability": "nonpayable",
      "type": "function"
    },
    {
      "inputs": [
        {
          "internalType": "address",
          "name": "",
          "type": "address"
        }
      ],
      "name": "approval",
      "outputs": [
        {
          "internalType": "bool",
          "name": "",
          "type": "bool"
        }
      ],
      "stateMutability": "view",
      "type": "function"
    },
    {
      "inputs": [
        {
          "internalType": "address",
          "name": "_implementation",
          "type": "address"
        },
        {
          "internalType": "bool",
          "name": "_approve",
          "type": "bool"
        }
      ],
      "name": "approveImplementation",
      "outputs": [],
      "stateMutability": "nonpayable",
      "type": "function"
    },
    {
      "inputs": [
        {
          "internalType": "bytes32",
          "name": "",
          "type": "bytes32"
        }
      ],
      "name": "currentVersion",
      "outputs": [
        {
          "internalType": "uint256",
          "name": "",
          "type": "uint256"
        }
      ],
      "stateMutability": "view",
      "type": "function"
    },
    {
      "inputs": [
        {
          "internalType": "bytes32",
          "name": "_type",
          "type": "bytes32"
        },
        {
          "internalType": "bytes",
          "name": "_data",
          "type": "bytes"
        }
      ],
      "name": "deployProxy",
      "outputs": [
        {
          "internalType": "address",
          "name": "",
          "type": "address"
        }
      ],
      "stateMutability": "nonpayable",
      "type": "function"
    },
    {
      "inputs": [
        {
          "internalType": "address",
          "name": "_implementation",
          "type": "address"
        },
        {
          "internalType": "bytes",
          "name": "_data",
          "type": "bytes"
        },
        {
          "internalType": "bytes32",
          "name": "_salt",
          "type": "bytes32"
        }
      ],
      "name": "deployProxyByImplementation",
      "outputs": [
        {
          "internalType": "address",
          "name": "deployedProxy",
          "type": "address"
        }
      ],
      "stateMutability": "nonpayable",
      "type": "function"
    },
    {
      "inputs": [
        {
          "internalType": "bytes32",
          "name": "_type",
          "type": "bytes32"
        },
        {
          "internalType": "bytes",
          "name": "_data",
          "type": "bytes"
        },
        {
          "internalType": "bytes32",
          "name": "_salt",
          "type": "bytes32"
        }
      ],
      "name": "deployProxyDeterministic",
      "outputs": [
        {
          "internalType": "address",
          "name": "",
          "type": "address"
        }
      ],
      "stateMutability": "nonpayable",
      "type": "function"
    },
    {
      "inputs": [
        {
          "internalType": "address",
          "name": "",
          "type": "address"
        }
      ],
      "name": "deployer",
      "outputs": [
        {
          "internalType": "address",
          "name": "",
          "type": "address"
        }
      ],
      "stateMutability": "view",
      "type": "function"
    },
    {
      "inputs": [
        {
          "internalType": "bytes32",
          "name": "_type",
          "type": "bytes32"
        },
        {
          "internalType": "uint8",
          "name": "_version",
          "type": "uint8"
        }
      ],
      "name": "getImplementation",
      "outputs": [
        {
          "internalType": "address",
          "name": "",
          "type": "address"
        }
      ],
      "stateMutability": "view",
      "type": "function"
    },
    {
      "inputs": [
        {
          "internalType": "bytes32",
          "name": "_type",
          "type": "bytes32"
        }
      ],
      "name": "getLastestImplementation",
      "outputs": [
        {
          "internalType": "address",
          "name": "",
          "type": "address"
        }
      ],
      "stateMutability": "view",
      "type": "function"
    },
    {
      "inputs": [
        {
          "internalType": "bytes32",
          "name": "",
          "type": "bytes32"
        },
        {
          "internalType": "uint256",
          "name": "",
          "type": "uint256"
        }
      ],
      "name": "implementation",
      "outputs": [
        {
          "internalType": "address",
          "name": "",
          "type": "address"
        }
      ],
      "stateMutability": "view",
      "type": "function"
    },
    {
      "inputs": [
        {
          "internalType": "bytes[]",
          "name": "data",
          "type": "bytes[]"
        }
      ],
      "name": "multicall",
      "outputs": [
        {
          "internalType": "bytes[]",
          "name": "results",
          "type": "bytes[]"
        }
      ],
      "stateMutability": "nonpayable",
      "type": "function"
    },
    {
      "inputs": [],
      "name": "owner",
      "outputs": [
        {
          "internalType": "address",
          "name": "",
          "type": "address"
        }
      ],
      "stateMutability": "view",
      "type": "function"
    },
    {
      "inputs": [],
      "name": "registry",
      "outputs": [
        {
          "internalType": "contract MiNFTRegistry",
          "name": "",
          "type": "address"
        }
      ],
      "stateMutability": "view",
      "type": "function"
    },
    {
      "inputs": [],
      "name": "renounceOwnership",
      "outputs": [],
      "stateMutability": "nonpayable",
      "type": "function"
    },
    {
      "inputs": [
        {
          "internalType": "address",
          "name": "newOwner",
          "type": "address"
        }
      ],
      "name": "transferOwnership",
      "outputs": [],
      "stateMutability": "nonpayable",
      "type": "function"
    }
  ],
  "bytecode": "0x60a060405234801561001057600080fd5b5060405161150b38038061150b83398101604081905261002f91610099565b61003833610049565b6001600160a01b03166080526100c9565b600080546001600160a01b038381166001600160a01b0319831681178455604051919092169283917f8be0079c531659141344cd1fd0a4f28419497f9722a3daafe3b4186f6b6457e09190a35050565b6000602082840312156100ab57600080fd5b81516001600160a01b03811681146100c257600080fd5b9392505050565b6080516114196100f2600039600081816101980152818161046c01526109e001526114196000f3fe608060405234801561001057600080fd5b50600436106101005760003560e01c80639430b49611610097578063c6e2a40011610066578063c6e2a40014610295578063e92016a4146102a8578063ec54d72f146102dc578063f2fde38b146102ef57600080fd5b80639430b496146101de578063ac9650d814610211578063b9caf9d914610231578063baa7ca181461025a57600080fd5b8063715018a6116100d3578063715018a61461018b5780637b103999146101935780638da5cb5b146101ba578063910888b9146101cb57600080fd5b806311b804ab146101055780631e5e1e99146101355780633b426d3f1461014857806356fb095814610176575b600080fd5b610118610113366004611000565b610302565b6040516001600160a01b0390911681526020015b60405180910390f35b610118610143366004611057565b6104e6565b61016861015636600461108a565b60036020526000908152604090205481565b60405190815260200161012c565b6101896101843660046110a3565b610526565b005b6101896105e3565b6101187f000000000000000000000000000000000000000000000000000000000000000081565b6000546001600160a01b0316610118565b6101186101d93660046110ee565b610649565b6102016101ec366004611113565b60016020526000908152604090205460ff1681565b604051901515815260200161012c565b61022461021f36600461112e565b610676565b60405161012c91906111ff565b61011861023f366004611113565b6002602052600090815260409020546001600160a01b031681565b61011861026836600461108a565b6000908152600460209081526040808320600383528184205484529091529020546001600160a01b031690565b6101896102a3366004611113565b61076b565b6101186102b6366004611261565b60046020908152600092835260408084209091529082529020546001600160a01b031681565b6101186102ea366004611283565b6109a5565b6101896102fd366004611113565b610a60565b6001600160a01b03831660009081526001602052604081205460ff1661036f5760405162461bcd60e51b815260206004820152601b60248201527f4e6f7420617070726f76656420666f72206465706c6f796d656e74000000000060448201526064015b60405180910390fd5b6040516bffffffffffffffffffffffff193360601b166020820152603481018390526000906054016040516020818303038152906040528051906020012090506103b98582610b42565b6001600160a01b03818116600081815260026020908152604091829020805473ffffffffffffffffffffffffffffffffffffffff191633908117909155915192835293955092918816917f9e0862c4ebff2150fbbfd3f8547483f55bdec0c34fd977d3fccaa55d6c4ce784910160405180910390a36040517f52c28fab0000000000000000000000000000000000000000000000000000000081523360048201526001600160a01b0383811660248301527f000000000000000000000000000000000000000000000000000000000000000016906352c28fab90604401600060405180830381600087803b1580156104b057600080fd5b505af11580156104c4573d6000803e3d6000fd5b505050506000845111156104de576104dc8285610bf9565b505b509392505050565b6000838152600460209081526040808320600383528184205484529091528120546001600160a01b031661051b818585610302565b9150505b9392505050565b6000546001600160a01b031633146105805760405162461bcd60e51b815260206004820181905260248201527f4f776e61626c653a2063616c6c6572206973206e6f7420746865206f776e65726044820152606401610366565b6001600160a01b038216600081815260016020908152604091829020805460ff19168515159081179091558251938452908301527f46c2f0868ef35772e9324a42eb6fa484490cca8494538a909cf05c897d7d4108910160405180910390a15050565b6000546001600160a01b0316331461063d5760405162461bcd60e51b815260206004820181905260248201527f4f776e61626c653a2063616c6c6572206973206e6f7420746865206f776e65726044820152606401610366565b6106476000610c3b565b565b600082815260046020908152604080832060ff851684529091529020546001600160a01b03165b92915050565b60608167ffffffffffffffff81111561069157610691610f5d565b6040519080825280602002602001820160405280156106c457816020015b60608152602001906001900390816106af5790505b50905060005b8281101561076457610734308585848181106106e8576106e86112ca565b90506020028101906106fa91906112e0565b8080601f016020809104026020016040519081016040528093929190818152602001838380828437600092019190915250610c9892505050565b828281518110610746576107466112ca565b6020026020010181905250808061075c9061132e565b9150506106ca565b5092915050565b6000546001600160a01b031633146107c55760405162461bcd60e51b815260206004820181905260248201527f4f776e61626c653a2063616c6c6572206973206e6f7420746865206f776e65726044820152606401610366565b60008190506000816001600160a01b031663cb2ef6f76040518163ffffffff1660e01b8152600401602060405180830381865afa15801561080a573d6000803e3d6000fd5b505050506040513d601f19601f8201168201806040525081019061082e9190611357565b90506000826001600160a01b031663a0a8e4606040518163ffffffff1660e01b8152600401602060405180830381865afa158015610870573d6000803e3d6000fd5b505050506040513d601f19601f820116820180604052508101906108949190611370565b60008381526003602052604090205490915060ff80821690831610156108fc5760405162461bcd60e51b815260206004820152600d60248201527f57726f6e672076657273696f6e000000000000000000000000000000000000006044820152606401610366565b600083815260036020908152604080832060ff861690819055600483528184208185528352818420805473ffffffffffffffffffffffffffffffffffffffff19166001600160a01b038b16908117909155808552600180855294839020805460ff191690951790945581519384529183019190915284917fc39db2d47bafbb20367a9c840abffa57a2bc243c1f1e67c939ea0e89e59ed01a910160405180910390a25050505050565b6040517f05d85eda00000000000000000000000000000000000000000000000000000000815233600482015260009081906001600160a01b037f000000000000000000000000000000000000000000000000000000000000000016906305d85eda90602401602060405180830381865afa158015610a27573d6000803e3d6000fd5b505050506040513d601f19601f82011682018060405250810190610a4b9190611357565b9050610a588484836104e6565b949350505050565b6000546001600160a01b03163314610aba5760405162461bcd60e51b815260206004820181905260248201527f4f776e61626c653a2063616c6c6572206973206e6f7420746865206f776e65726044820152606401610366565b6001600160a01b038116610b365760405162461bcd60e51b815260206004820152602660248201527f4f776e61626c653a206e6577206f776e657220697320746865207a65726f206160448201527f64647265737300000000000000000000000000000000000000000000000000006064820152608401610366565b610b3f81610c3b565b50565b60006040517f3d602d80600a3d3981f3363d3d373d3d3d363d7300000000000000000000000081528360601b60148201527f5af43d82803e903d91602b57fd5bf300000000000000000000000000000000006028820152826037826000f59150506001600160a01b0381166106705760405162461bcd60e51b815260206004820152601760248201527f455243313136373a2063726561746532206661696c65640000000000000000006044820152606401610366565b606061051f83836040518060400160405280601e81526020017f416464726573733a206c6f772d6c6576656c2063616c6c206661696c65640000815250610cbd565b600080546001600160a01b0383811673ffffffffffffffffffffffffffffffffffffffff19831681178455604051919092169283917f8be0079c531659141344cd1fd0a4f28419497f9722a3daafe3b4186f6b6457e09190a35050565b606061051f83836040518060600160405280602781526020016113bd60279139610ccc565b6060610a588484600085610dc0565b60606001600160a01b0384163b610d4b5760405162461bcd60e51b815260206004820152602660248201527f416464726573733a2064656c65676174652063616c6c20746f206e6f6e2d636f60448201527f6e747261637400000000000000000000000000000000000000000000000000006064820152608401610366565b600080856001600160a01b031685604051610d66919061138d565b600060405180830381855af49150503d8060008114610da1576040519150601f19603f3d011682016040523d82523d6000602084013e610da6565b606091505b5091509150610db6828286610f08565b9695505050505050565b606082471015610e385760405162461bcd60e51b815260206004820152602660248201527f416464726573733a20696e73756666696369656e742062616c616e636520666f60448201527f722063616c6c00000000000000000000000000000000000000000000000000006064820152608401610366565b6001600160a01b0385163b610e8f5760405162461bcd60e51b815260206004820152601d60248201527f416464726573733a2063616c6c20746f206e6f6e2d636f6e74726163740000006044820152606401610366565b600080866001600160a01b03168587604051610eab919061138d565b60006040518083038185875af1925050503d8060008114610ee8576040519150601f19603f3d011682016040523d82523d6000602084013e610eed565b606091505b5091509150610efd828286610f08565b979650505050505050565b60608315610f1757508161051f565b825115610f275782518084602001fd5b8160405162461bcd60e51b815260040161036691906113a9565b80356001600160a01b0381168114610f5857600080fd5b919050565b634e487b7160e01b600052604160045260246000fd5b600082601f830112610f8457600080fd5b813567ffffffffffffffff80821115610f9f57610f9f610f5d565b604051601f8301601f19908116603f01168101908282118183101715610fc757610fc7610f5d565b81604052838152866020858801011115610fe057600080fd5b836020870160208301376000602085830101528094505050505092915050565b60008060006060848603121561101557600080fd5b61101e84610f41565b9250602084013567ffffffffffffffff81111561103a57600080fd5b61104686828701610f73565b925050604084013590509250925092565b60008060006060848603121561106c57600080fd5b83359250602084013567ffffffffffffffff81111561103a57600080fd5b60006020828403121561109c57600080fd5b5035919050565b600080604083850312156110b657600080fd5b6110bf83610f41565b9150602083013580151581146110d457600080fd5b809150509250929050565b60ff81168114610b3f57600080fd5b6000806040838503121561110157600080fd5b8235915060208301356110d4816110df565b60006020828403121561112557600080fd5b61051f82610f41565b6000806020838503121561114157600080fd5b823567ffffffffffffffff8082111561115957600080fd5b818501915085601f83011261116d57600080fd5b81358181111561117c57600080fd5b8660208260051b850101111561119157600080fd5b60209290920196919550909350505050565b60005b838110156111be5781810151838201526020016111a6565b838111156111cd576000848401525b50505050565b600081518084526111eb8160208601602086016111a3565b601f01601f19169290920160200192915050565b6000602080830181845280855180835260408601915060408160051b870101925083870160005b8281101561125457603f198886030184526112428583516111d3565b94509285019290850190600101611226565b5092979650505050505050565b6000806040838503121561127457600080fd5b50508035926020909101359150565b6000806040838503121561129657600080fd5b82359150602083013567ffffffffffffffff8111156112b457600080fd5b6112c085828601610f73565b9150509250929050565b634e487b7160e01b600052603260045260246000fd5b6000808335601e198436030181126112f757600080fd5b83018035915067ffffffffffffffff82111561131257600080fd5b60200191503681900382131561132757600080fd5b9250929050565b600060001982141561135057634e487b7160e01b600052601160045260246000fd5b5060010190565b60006020828403121561136957600080fd5b5051919050565b60006020828403121561138257600080fd5b815161051f816110df565b6000825161139f8184602087016111a3565b9190910192915050565b60208152600061051f60208301846111d356fe416464726573733a206c6f772d6c6576656c2064656c65676174652063616c6c206661696c6564a2646970667358221220afb7e86f2c18e01a0588672902394b78c70badc209693e5e9e9ff19ca824319364736f6c634300080a0033",
  "linkReferences": {},
  "deployedLinkReferences": {}
}