{
  "_format": "hh-sol-artifact-1",
  "contractName": "FairDutchAuction",
  "sourceName": "contracts/templates/classics/FairDutchAuction.sol",
  "abi": [
    {
      "inputs": [],
      "name": "ApprovalCallerNotOwnerNorApproved",
      "type": "error"
    },
    {
      "inputs": [],
      "name": "ApprovalQueryForNonexistentToken",
      "type": "error"
    },
    {
      "inputs": [],
      "name": "ApproveToCaller",
      "type": "error"
    },
    {
      "inputs": [],
      "name": "BalanceQueryForZeroAddress",
      "type": "error"
    },
    {
      "inputs": [],
      "name": "MintERC2309QuantityExceedsLimit",
      "type": "error"
    },
    {
      "inputs": [],
      "name": "MintToZeroAddress",
      "type": "error"
    },
    {
      "inputs": [],
      "name": "MintZeroQuantity",
      "type": "error"
    },
    {
      "inputs": [],
      "name": "OwnerQueryForNonexistentToken",
      "type": "error"
    },
    {
      "inputs": [],
      "name": "OwnershipNotInitializedForExtraData",
      "type": "error"
    },
    {
      "inputs": [],
      "name": "TransferCallerNotOwnerNorApproved",
      "type": "error"
    },
    {
      "inputs": [],
      "name": "TransferFromIncorrectOwner",
      "type": "error"
    },
    {
      "inputs": [],
      "name": "TransferToNonERC721ReceiverImplementer",
      "type": "error"
    },
    {
      "inputs": [],
      "name": "TransferToZeroAddress",
      "type": "error"
    },
    {
      "inputs": [],
      "name": "URIQueryForNonexistentToken",
      "type": "error"
    },
    {
      "anonymous": false,
      "inputs": [
        {
          "indexed": true,
          "internalType": "address",
          "name": "owner",
          "type": "address"
        },
        {
          "indexed": true,
          "internalType": "address",
          "name": "approved",
          "type": "address"
        },
        {
          "indexed": true,
          "internalType": "uint256",
          "name": "tokenId",
          "type": "uint256"
        }
      ],
      "name": "Approval",
      "type": "event"
    },
    {
      "anonymous": false,
      "inputs": [
        {
          "indexed": true,
          "internalType": "address",
          "name": "owner",
          "type": "address"
        },
        {
          "indexed": true,
          "internalType": "address",
          "name": "operator",
          "type": "address"
        },
        {
          "indexed": false,
          "internalType": "bool",
          "name": "approved",
          "type": "bool"
        }
      ],
      "name": "ApprovalForAll",
      "type": "event"
    },
    {
      "anonymous": false,
      "inputs": [
        {
          "indexed": true,
          "internalType": "uint256",
          "name": "fromTokenId",
          "type": "uint256"
        },
        {
          "indexed": false,
          "internalType": "uint256",
          "name": "toTokenId",
          "type": "uint256"
        },
        {
          "indexed": true,
          "internalType": "address",
          "name": "from",
          "type": "address"
        },
        {
          "indexed": true,
          "internalType": "address",
          "name": "to",
          "type": "address"
        }
      ],
      "name": "ConsecutiveTransfer",
      "type": "event"
    },
    {
      "anonymous": false,
      "inputs": [
        {
          "indexed": false,
          "internalType": "uint8",
          "name": "version",
          "type": "uint8"
        }
      ],
      "name": "Initialized",
      "type": "event"
    },
    {
      "anonymous": false,
      "inputs": [
        {
          "indexed": true,
          "internalType": "address",
          "name": "previousOwner",
          "type": "address"
        },
        {
          "indexed": true,
          "internalType": "address",
          "name": "newOwner",
          "type": "address"
        }
      ],
      "name": "OwnershipTransferred",
      "type": "event"
    },
    {
      "anonymous": false,
      "inputs": [
        {
          "indexed": false,
          "internalType": "address",
          "name": "account",
          "type": "address"
        }
      ],
      "name": "Paused",
      "type": "event"
    },
    {
      "anonymous": false,
      "inputs": [
        {
          "indexed": false,
          "internalType": "address",
          "name": "_saleRecipient",
          "type": "address"
        }
      ],
      "name": "PrimarySaleRecipientUpdated",
      "type": "event"
    },
    {
      "anonymous": false,
      "inputs": [
        {
          "indexed": true,
          "internalType": "address",
          "name": "from",
          "type": "address"
        },
        {
          "indexed": true,
          "internalType": "address",
          "name": "to",
          "type": "address"
        },
        {
          "indexed": true,
          "internalType": "uint256",
          "name": "tokenId",
          "type": "uint256"
        }
      ],
      "name": "Transfer",
      "type": "event"
    },
    {
      "anonymous": false,
      "inputs": [
        {
          "indexed": false,
          "internalType": "address",
          "name": "account",
          "type": "address"
        }
      ],
      "name": "Unpaused",
      "type": "event"
    },
    {
      "inputs": [
        {
          "internalType": "address",
          "name": "to",
          "type": "address"
        },
        {
          "internalType": "uint256",
          "name": "tokenId",
          "type": "uint256"
        }
      ],
      "name": "approve",
      "outputs": [],
      "stateMutability": "nonpayable",
      "type": "function"
    },
    {
      "inputs": [
        {
          "internalType": "address",
          "name": "owner",
          "type": "address"
        }
      ],
      "name": "balanceOf",
      "outputs": [
        {
          "internalType": "uint256",
          "name": "",
          "type": "uint256"
        }
      ],
      "stateMutability": "view",
      "type": "function"
    },
    {
      "inputs": [],
      "name": "baseExtension",
      "outputs": [
        {
          "internalType": "string",
          "name": "",
          "type": "string"
        }
      ],
      "stateMutability": "view",
      "type": "function"
    },
    {
      "inputs": [],
      "name": "baseURI",
      "outputs": [
        {
          "internalType": "string",
          "name": "",
          "type": "string"
        }
      ],
      "stateMutability": "view",
      "type": "function"
    },
    {
      "inputs": [
        {
          "internalType": "address",
          "name": "",
          "type": "address"
        }
      ],
      "name": "bidsPerWallet",
      "outputs": [
        {
          "internalType": "uint256",
          "name": "",
          "type": "uint256"
        }
      ],
      "stateMutability": "view",
      "type": "function"
    },
    {
      "inputs": [],
      "name": "contractType",
      "outputs": [
        {
          "internalType": "bytes32",
          "name": "",
          "type": "bytes32"
        }
      ],
      "stateMutability": "pure",
      "type": "function"
    },
    {
      "inputs": [],
      "name": "contractVersion",
      "outputs": [
        {
          "internalType": "uint8",
          "name": "",
          "type": "uint8"
        }
      ],
      "stateMutability": "pure",
      "type": "function"
    },
    {
      "inputs": [],
      "name": "currentPrice",
      "outputs": [
        {
          "internalType": "uint256",
          "name": "",
          "type": "uint256"
        }
      ],
      "stateMutability": "view",
      "type": "function"
    },
    {
      "inputs": [],
      "name": "decrementFrequency",
      "outputs": [
        {
          "internalType": "uint256",
          "name": "",
          "type": "uint256"
        }
      ],
      "stateMutability": "view",
      "type": "function"
    },
    {
      "inputs": [],
      "name": "delayReveal",
      "outputs": [
        {
          "internalType": "bool",
          "name": "",
          "type": "bool"
        }
      ],
      "stateMutability": "view",
      "type": "function"
    },
    {
      "inputs": [],
      "name": "endingPrice",
      "outputs": [
        {
          "internalType": "uint256",
          "name": "",
          "type": "uint256"
        }
      ],
      "stateMutability": "view",
      "type": "function"
    },
    {
      "inputs": [],
      "name": "endingTimestamp",
      "outputs": [
        {
          "internalType": "uint256",
          "name": "",
          "type": "uint256"
        }
      ],
      "stateMutability": "view",
      "type": "function"
    },
    {
      "inputs": [],
      "name": "finalPrice",
      "outputs": [
        {
          "internalType": "uint256",
          "name": "",
          "type": "uint256"
        }
      ],
      "stateMutability": "view",
      "type": "function"
    },
    {
      "inputs": [
        {
          "internalType": "uint256",
          "name": "tokenId",
          "type": "uint256"
        }
      ],
      "name": "getApproved",
      "outputs": [
        {
          "internalType": "address",
          "name": "",
          "type": "address"
        }
      ],
      "stateMutability": "view",
      "type": "function"
    },
    {
      "inputs": [],
      "name": "getDefaultRoyalty",
      "outputs": [
        {
          "internalType": "address",
          "name": "",
          "type": "address"
        },
        {
          "internalType": "uint96",
          "name": "",
          "type": "uint96"
        }
      ],
      "stateMutability": "view",
      "type": "function"
    },
    {
      "inputs": [
        {
          "internalType": "uint256",
          "name": "tokenId",
          "type": "uint256"
        }
      ],
      "name": "getRoyaltyForToken",
      "outputs": [
        {
          "internalType": "address",
          "name": "",
          "type": "address"
        },
        {
          "internalType": "uint96",
          "name": "",
          "type": "uint96"
        }
      ],
      "stateMutability": "view",
      "type": "function"
    },
    {
      "inputs": [],
      "name": "hasMintStarted",
      "outputs": [
        {
          "internalType": "bool",
          "name": "",
          "type": "bool"
        }
      ],
      "stateMutability": "view",
      "type": "function"
    },
    {
      "inputs": [
        {
          "internalType": "address",
          "name": "owner",
          "type": "address"
        },
        {
          "internalType": "address",
          "name": "trustedForwarder",
          "type": "address"
        },
        {
          "internalType": "string",
          "name": "name",
          "type": "string"
        },
        {
          "internalType": "string",
          "name": "symbol",
          "type": "string"
        },
        {
          "internalType": "address",
          "name": "primarySaleRecipient",
          "type": "address"
        },
        {
          "internalType": "address",
          "name": "royaltyRecipient",
          "type": "address"
        },
        {
          "internalType": "uint96",
          "name": "royaltyFraction",
          "type": "uint96"
        },
        {
          "components": [
            {
              "internalType": "uint256",
              "name": "quantity",
              "type": "uint256"
            },
            {
              "internalType": "uint256",
              "name": "reservedTokens",
              "type": "uint256"
            },
            {
              "internalType": "uint256",
              "name": "maxMint",
              "type": "uint256"
            },
            {
              "internalType": "uint256",
              "name": "maxMintTx",
              "type": "uint256"
            },
            {
              "internalType": "uint256",
              "name": "startPrice",
              "type": "uint256"
            },
            {
              "internalType": "uint256",
              "name": "endPrice",
              "type": "uint256"
            },
            {
              "internalType": "uint256",
              "name": "decrement",
              "type": "uint256"
            },
            {
              "internalType": "uint256",
              "name": "frequency",
              "type": "uint256"
            },
            {
              "internalType": "uint256",
              "name": "startTime",
              "type": "uint256"
            },
            {
              "internalType": "uint256",
              "name": "endTime",
              "type": "uint256"
            }
          ],
          "internalType": "struct FairDutchAuction.SaleConfig",
          "name": "saleConfig",
          "type": "tuple"
        }
      ],
      "name": "initialize",
      "outputs": [],
      "stateMutability": "nonpayable",
      "type": "function"
    },
    {
      "inputs": [
        {
          "internalType": "address",
          "name": "owner",
          "type": "address"
        },
        {
          "internalType": "address",
          "name": "operator",
          "type": "address"
        }
      ],
      "name": "isApprovedForAll",
      "outputs": [
        {
          "internalType": "bool",
          "name": "",
          "type": "bool"
        }
      ],
      "stateMutability": "view",
      "type": "function"
    },
    {
      "inputs": [],
      "name": "isReservedTokensMinted",
      "outputs": [
        {
          "internalType": "bool",
          "name": "",
          "type": "bool"
        }
      ],
      "stateMutability": "view",
      "type": "function"
    },
    {
      "inputs": [],
      "name": "isRevealed",
      "outputs": [
        {
          "internalType": "bool",
          "name": "",
          "type": "bool"
        }
      ],
      "stateMutability": "view",
      "type": "function"
    },
    {
      "inputs": [
        {
          "internalType": "address",
          "name": "forwarder",
          "type": "address"
        }
      ],
      "name": "isTrustedForwarder",
      "outputs": [
        {
          "internalType": "bool",
          "name": "",
          "type": "bool"
        }
      ],
      "stateMutability": "view",
      "type": "function"
    },
    {
      "inputs": [],
      "name": "maxMintPerTx",
      "outputs": [
        {
          "internalType": "uint256",
          "name": "",
          "type": "uint256"
        }
      ],
      "stateMutability": "view",
      "type": "function"
    },
    {
      "inputs": [],
      "name": "maxMintPerWallet",
      "outputs": [
        {
          "internalType": "uint256",
          "name": "",
          "type": "uint256"
        }
      ],
      "stateMutability": "view",
      "type": "function"
    },
    {
      "inputs": [
        {
          "internalType": "uint8",
          "name": "quantity",
          "type": "uint8"
        }
      ],
      "name": "mint",
      "outputs": [],
      "stateMutability": "payable",
      "type": "function"
    },
    {
      "inputs": [],
      "name": "mintReservedTokens",
      "outputs": [],
      "stateMutability": "nonpayable",
      "type": "function"
    },
    {
      "inputs": [],
      "name": "mintTotalSupply",
      "outputs": [
        {
          "internalType": "uint256",
          "name": "",
          "type": "uint256"
        }
      ],
      "stateMutability": "view",
      "type": "function"
    },
    {
      "inputs": [],
      "name": "name",
      "outputs": [
        {
          "internalType": "string",
          "name": "",
          "type": "string"
        }
      ],
      "stateMutability": "view",
      "type": "function"
    },
    {
      "inputs": [],
      "name": "owner",
      "outputs": [
        {
          "internalType": "address",
          "name": "",
          "type": "address"
        }
      ],
      "stateMutability": "view",
      "type": "function"
    },
    {
      "inputs": [
        {
          "internalType": "uint256",
          "name": "tokenId",
          "type": "uint256"
        }
      ],
      "name": "ownerOf",
      "outputs": [
        {
          "internalType": "address",
          "name": "",
          "type": "address"
        }
      ],
      "stateMutability": "view",
      "type": "function"
    },
    {
      "inputs": [],
      "name": "pause",
      "outputs": [],
      "stateMutability": "nonpayable",
      "type": "function"
    },
    {
      "inputs": [],
      "name": "paused",
      "outputs": [
        {
          "internalType": "bool",
          "name": "",
          "type": "bool"
        }
      ],
      "stateMutability": "view",
      "type": "function"
    },
    {
      "inputs": [],
      "name": "previewURI",
      "outputs": [
        {
          "internalType": "string",
          "name": "",
          "type": "string"
        }
      ],
      "stateMutability": "view",
      "type": "function"
    },
    {
      "inputs": [],
      "name": "priceDecrement",
      "outputs": [
        {
          "internalType": "uint256",
          "name": "",
          "type": "uint256"
        }
      ],
      "stateMutability": "view",
      "type": "function"
    },
    {
      "inputs": [],
      "name": "primarySaleRecipient",
      "outputs": [
        {
          "internalType": "address",
          "name": "",
          "type": "address"
        }
      ],
      "stateMutability": "view",
      "type": "function"
    },
    {
      "inputs": [
        {
          "internalType": "address",
          "name": "recipient",
          "type": "address"
        }
      ],
      "name": "refund",
      "outputs": [],
      "stateMutability": "nonpayable",
      "type": "function"
    },
    {
      "inputs": [],
      "name": "renounceOwnership",
      "outputs": [],
      "stateMutability": "nonpayable",
      "type": "function"
    },
    {
      "inputs": [],
      "name": "reservedTokens",
      "outputs": [
        {
          "internalType": "uint256",
          "name": "",
          "type": "uint256"
        }
      ],
      "stateMutability": "view",
      "type": "function"
    },
    {
      "inputs": [],
      "name": "reveal",
      "outputs": [],
      "stateMutability": "nonpayable",
      "type": "function"
    },
    {
      "inputs": [
        {
          "internalType": "uint256",
          "name": "_tokenId",
          "type": "uint256"
        },
        {
          "internalType": "uint256",
          "name": "_salePrice",
          "type": "uint256"
        }
      ],
      "name": "royaltyInfo",
      "outputs": [
        {
          "internalType": "address",
          "name": "",
          "type": "address"
        },
        {
          "internalType": "uint256",
          "name": "",
          "type": "uint256"
        }
      ],
      "stateMutability": "view",
      "type": "function"
    },
    {
      "inputs": [
        {
          "internalType": "address",
          "name": "from",
          "type": "address"
        },
        {
          "internalType": "address",
          "name": "to",
          "type": "address"
        },
        {
          "internalType": "uint256",
          "name": "tokenId",
          "type": "uint256"
        }
      ],
      "name": "safeTransferFrom",
      "outputs": [],
      "stateMutability": "nonpayable",
      "type": "function"
    },
    {
      "inputs": [
        {
          "internalType": "address",
          "name": "from",
          "type": "address"
        },
        {
          "internalType": "address",
          "name": "to",
          "type": "address"
        },
        {
          "internalType": "uint256",
          "name": "tokenId",
          "type": "uint256"
        },
        {
          "internalType": "bytes",
          "name": "_data",
          "type": "bytes"
        }
      ],
      "name": "safeTransferFrom",
      "outputs": [],
      "stateMutability": "nonpayable",
      "type": "function"
    },
    {
      "inputs": [
        {
          "internalType": "address",
          "name": "operator",
          "type": "address"
        },
        {
          "internalType": "bool",
          "name": "approved",
          "type": "bool"
        }
      ],
      "name": "setApprovalForAll",
      "outputs": [],
      "stateMutability": "nonpayable",
      "type": "function"
    },
    {
      "inputs": [
        {
          "internalType": "string",
          "name": "extension",
          "type": "string"
        }
      ],
      "name": "setBaseExtension",
      "outputs": [],
      "stateMutability": "nonpayable",
      "type": "function"
    },
    {
      "inputs": [
        {
          "internalType": "string",
          "name": "uri",
          "type": "string"
        }
      ],
      "name": "setBaseURI",
      "outputs": [],
      "stateMutability": "nonpayable",
      "type": "function"
    },
    {
      "inputs": [
        {
          "internalType": "uint256",
          "name": "frequency",
          "type": "uint256"
        }
      ],
      "name": "setDecrementFrequency",
      "outputs": [],
      "stateMutability": "nonpayable",
      "type": "function"
    },
    {
      "inputs": [
        {
          "internalType": "address",
          "name": "receiver",
          "type": "address"
        },
        {
          "internalType": "uint96",
          "name": "feeNumerator",
          "type": "uint96"
        }
      ],
      "name": "setDefaultRoyalty",
      "outputs": [],
      "stateMutability": "nonpayable",
      "type": "function"
    },
    {
      "inputs": [
        {
          "internalType": "uint256",
          "name": "endPrice",
          "type": "uint256"
        }
      ],
      "name": "setEndPrice",
      "outputs": [],
      "stateMutability": "nonpayable",
      "type": "function"
    },
    {
      "inputs": [
        {
          "internalType": "uint256",
          "name": "endTime",
          "type": "uint256"
        }
      ],
      "name": "setEndTime",
      "outputs": [],
      "stateMutability": "nonpayable",
      "type": "function"
    },
    {
      "inputs": [
        {
          "internalType": "uint256",
          "name": "price",
          "type": "uint256"
        }
      ],
      "name": "setFinalPrice",
      "outputs": [],
      "stateMutability": "nonpayable",
      "type": "function"
    },
    {
      "inputs": [
        {
          "internalType": "uint256",
          "name": "maxMint",
          "type": "uint256"
        }
      ],
      "name": "setMaxMint",
      "outputs": [],
      "stateMutability": "nonpayable",
      "type": "function"
    },
    {
      "inputs": [
        {
          "internalType": "uint256",
          "name": "maxMintTx",
          "type": "uint256"
        }
      ],
      "name": "setMaxMintTx",
      "outputs": [],
      "stateMutability": "nonpayable",
      "type": "function"
    },
    {
      "inputs": [
        {
          "internalType": "string",
          "name": "name",
          "type": "string"
        }
      ],
      "name": "setName",
      "outputs": [],
      "stateMutability": "nonpayable",
      "type": "function"
    },
    {
      "inputs": [
        {
          "internalType": "string",
          "name": "uri",
          "type": "string"
        }
      ],
      "name": "setPreviewURI",
      "outputs": [],
      "stateMutability": "nonpayable",
      "type": "function"
    },
    {
      "inputs": [
        {
          "internalType": "uint256",
          "name": "decrement",
          "type": "uint256"
        }
      ],
      "name": "setPriceDecrement",
      "outputs": [],
      "stateMutability": "nonpayable",
      "type": "function"
    },
    {
      "inputs": [
        {
          "internalType": "address",
          "name": "_saleRecipient",
          "type": "address"
        }
      ],
      "name": "setPrimarySaleRecipient",
      "outputs": [],
      "stateMutability": "nonpayable",
      "type": "function"
    },
    {
      "inputs": [
        {
          "internalType": "uint256",
          "name": "tokens",
          "type": "uint256"
        }
      ],
      "name": "setReservedTokens",
      "outputs": [],
      "stateMutability": "nonpayable",
      "type": "function"
    },
    {
      "inputs": [
        {
          "internalType": "uint256",
          "name": "tokenId",
          "type": "uint256"
        },
        {
          "internalType": "address",
          "name": "receiver",
          "type": "address"
        },
        {
          "internalType": "uint96",
          "name": "feeNumerator",
          "type": "uint96"
        }
      ],
      "name": "setRoyaltyForToken",
      "outputs": [],
      "stateMutability": "nonpayable",
      "type": "function"
    },
    {
      "inputs": [
        {
          "internalType": "uint256",
          "name": "startPrice",
          "type": "uint256"
        }
      ],
      "name": "setStartPrice",
      "outputs": [],
      "stateMutability": "nonpayable",
      "type": "function"
    },
    {
      "inputs": [
        {
          "internalType": "uint256",
          "name": "startTime",
          "type": "uint256"
        }
      ],
      "name": "setStartTime",
      "outputs": [],
      "stateMutability": "nonpayable",
      "type": "function"
    },
    {
      "inputs": [
        {
          "internalType": "string",
          "name": "symbol",
          "type": "string"
        }
      ],
      "name": "setSymbol",
      "outputs": [],
      "stateMutability": "nonpayable",
      "type": "function"
    },
    {
      "inputs": [
        {
          "internalType": "uint256",
          "name": "quantity",
          "type": "uint256"
        }
      ],
      "name": "setTotalQuantity",
      "outputs": [],
      "stateMutability": "nonpayable",
      "type": "function"
    },
    {
      "inputs": [],
      "name": "startingPrice",
      "outputs": [
        {
          "internalType": "uint256",
          "name": "",
          "type": "uint256"
        }
      ],
      "stateMutability": "view",
      "type": "function"
    },
    {
      "inputs": [],
      "name": "startingTimestamp",
      "outputs": [
        {
          "internalType": "uint256",
          "name": "",
          "type": "uint256"
        }
      ],
      "stateMutability": "view",
      "type": "function"
    },
    {
      "inputs": [
        {
          "internalType": "bytes4",
          "name": "interfaceId",
          "type": "bytes4"
        }
      ],
      "name": "supportsInterface",
      "outputs": [
        {
          "internalType": "bool",
          "name": "",
          "type": "bool"
        }
      ],
      "stateMutability": "view",
      "type": "function"
    },
    {
      "inputs": [],
      "name": "symbol",
      "outputs": [
        {
          "internalType": "string",
          "name": "",
          "type": "string"
        }
      ],
      "stateMutability": "view",
      "type": "function"
    },
    {
      "inputs": [],
      "name": "toggleDelayReveal",
      "outputs": [],
      "stateMutability": "nonpayable",
      "type": "function"
    },
    {
      "inputs": [
        {
          "internalType": "uint256",
          "name": "tokenId",
          "type": "uint256"
        }
      ],
      "name": "tokenURI",
      "outputs": [
        {
          "internalType": "string",
          "name": "",
          "type": "string"
        }
      ],
      "stateMutability": "view",
      "type": "function"
    },
    {
      "inputs": [
        {
          "internalType": "address",
          "name": "wallet",
          "type": "address"
        }
      ],
      "name": "tokensMinted",
      "outputs": [
        {
          "internalType": "uint256",
          "name": "",
          "type": "uint256"
        }
      ],
      "stateMutability": "view",
      "type": "function"
    },
    {
      "inputs": [],
      "name": "totalQuantity",
      "outputs": [
        {
          "internalType": "uint256",
          "name": "",
          "type": "uint256"
        }
      ],
      "stateMutability": "view",
      "type": "function"
    },
    {
      "inputs": [],
      "name": "totalSupply",
      "outputs": [
        {
          "internalType": "uint256",
          "name": "",
          "type": "uint256"
        }
      ],
      "stateMutability": "view",
      "type": "function"
    },
    {
      "inputs": [
        {
          "internalType": "address",
          "name": "from",
          "type": "address"
        },
        {
          "internalType": "address",
          "name": "to",
          "type": "address"
        },
        {
          "internalType": "uint256",
          "name": "tokenId",
          "type": "uint256"
        }
      ],
      "name": "transferFrom",
      "outputs": [],
      "stateMutability": "nonpayable",
      "type": "function"
    },
    {
      "inputs": [
        {
          "internalType": "address",
          "name": "newOwner",
          "type": "address"
        }
      ],
      "name": "transferOwnership",
      "outputs": [],
      "stateMutability": "nonpayable",
      "type": "function"
    },
    {
      "inputs": [],
      "name": "unpause",
      "outputs": [],
      "stateMutability": "nonpayable",
      "type": "function"
    },
    {
      "inputs": [],
      "name": "withdrawFunds",
      "outputs": [],
      "stateMutability": "nonpayable",
      "type": "function"
    },
    {
      "inputs": [],
      "name": "withdrawUnmintedTokens",
      "outputs": [],
      "stateMutability": "nonpayable",
      "type": "function"
    }
  ],
  "bytecode": "0x608060405234801561001057600080fd5b506144ff806100206000396000f3fe6080604052600436106105075760003560e01c806370a0823111610294578063c47f00271161015e578063da3ef23f116100d6578063e9b3ea651161008a578063ef0fefd51161006f578063ef0fefd514610e58578063f2fde38b14610e78578063fa89401a14610e9857600080fd5b8063e9b3ea6514610e0a578063eaa6db0314610e3857600080fd5b8063de7fcb1d116100bb578063de7fcb1d14610d76578063e315019d14610d8d578063e985e9c514610da257600080fd5b8063da3ef23f14610d3b578063de09daea14610d5b57600080fd5b8063cb2ef6f71161012d578063d3ff166c11610112578063d3ff166c14610cfa578063d6bbe73914610d0f578063d6fbf20214610d2457600080fd5b8063cb2ef6f714610ca7578063ccb98ffc14610cda57600080fd5b8063c47f002714610c3b578063c616f41214610c5b578063c668286214610c72578063c87b56dd14610c8757600080fd5b8063a0a8e4601161020c578063b228d925116101c0578063b84c8246116101a5578063b84c824614610bdb578063b88d4fde14610bfb578063bb55f25c14610c1b57600080fd5b8063b228d92514610ba4578063b74ace8814610bbb57600080fd5b8063a475b5dd116101f1578063a475b5dd14610b58578063a6b513ee14610b6d578063ab88d28614610b8457600080fd5b8063a0a8e46014610b1c578063a22cb46514610b3857600080fd5b80638cabe05a1161026357806390498f931161024857806390498f9314610ad257806395d89b4114610af25780639d1b464a14610b0757600080fd5b80638cabe05a14610a695780638da5cb5b14610ab457600080fd5b806370a0823114610a08578063715018a614610a285780638456cb5914610a3d5780638878627214610a5257600080fd5b80633a914807116103d557806355f804b31161034d5780636352211e116103015780636c0360eb116102e65780636c0360eb146109c05780636ecd2306146109d55780636f4f2837146109e857600080fd5b80636352211e1461098b57806367768ceb146109ab57600080fd5b80635a67a20d116103325780635a67a20d146109455780635c975abb1461095c5780635e5294b71461097457600080fd5b806355f804b3146108f6578063572b6c051461091657600080fd5b806342842e0e116103a457806354214f691161038957806354214f691461089657806354610481146108b6578063547520fe146108d657600080fd5b806342842e0e1461085b57806349e510971461087b57600080fd5b80633a914807146107f15780633e0a322d146108115780633eefe239146108315780633f4ba83a1461084657600080fd5b80630c01ae34116104835780631c67cc611161043757806324600fc31161041c57806324600fc31461078657806326cddbfb1461079b5780632a55205a146107b257600080fd5b80631c67cc611461074657806323b872dd1461076657600080fd5b806315a553471161046857806315a55347146106c657806317d86154146106dd57806318160ddd146106fd57600080fd5b80630c01ae341461066357806313dd1f211461067a57600080fd5b806306fdde03116104da578063081812fc116104bf578063081812fc1461060357806308d6f96c14610623578063095ea7b31461064357600080fd5b806306fdde03146105a8578063079fe40e146105ca57600080fd5b806301ffc9a71461050c578063027903ef1461054157806302e87e1c1461056357806304634d8d14610588575b600080fd5b34801561051857600080fd5b5061052c610527366004613d5b565b610eb8565b60405190151581526020015b60405180910390f35b34801561054d57600080fd5b5061056161055c366004613d78565b610ee4565b005b34801561056f57600080fd5b5061057a6101705481565b604051908152602001610538565b34801561059457600080fd5b506105616105a3366004613dc9565b610ef2565b3480156105b457600080fd5b506105bd610f08565b6040516105389190613e54565b3480156105d657600080fd5b50610163546201000090046001600160a01b03165b6040516001600160a01b039091168152602001610538565b34801561060f57600080fd5b506105eb61061e366004613d78565b610faa565b34801561062f57600080fd5b5061056161063e366004613d78565b611026565b34801561064f57600080fd5b5061056161065e366004613e67565b611034565b34801561066f57600080fd5b5061057a6101655481565b34801561068657600080fd5b5061069a610695366004613d78565b611155565b604080516001600160a01b0390931683526bffffffffffffffffffffffff909116602083015201610538565b3480156106d257600080fd5b5061057a61016a5481565b3480156106e957600080fd5b506105616106f8366004613d78565b6111e6565b34801561070957600080fd5b507f2569078dfb4b0305704d3008e7403993ae9601b85f7ae5e742de3de8f8011c41546000805160206144aa83398151915254036000190161057a565b34801561075257600080fd5b50610561610761366004613d78565b6111f4565b34801561077257600080fd5b50610561610781366004613e91565b611202565b34801561079257600080fd5b506105616114c3565b3480156107a757600080fd5b5061057a61016f5481565b3480156107be57600080fd5b506107d26107cd366004613ecd565b611630565b604080516001600160a01b039093168352602083019190915201610538565b3480156107fd57600080fd5b5061056161080c366004613eef565b6116eb565b34801561081d57600080fd5b5061056161082c366004613d78565b611703565b34801561083d57600080fd5b50610561611711565b34801561085257600080fd5b50610561611827565b34801561086757600080fd5b50610561610876366004613e91565b611837565b34801561088757600080fd5b5061016b5461052c9060ff1681565b3480156108a257600080fd5b506101635461052c90610100900460ff1681565b3480156108c257600080fd5b5061057a6108d1366004613f2b565b611852565b3480156108e257600080fd5b506105616108f1366004613d78565b61189c565b34801561090257600080fd5b5061056161091136600461401c565b6118aa565b34801561092257600080fd5b5061052c610931366004613f2b565b6097546001600160a01b0391821691161490565b34801561095157600080fd5b5061057a61016d5481565b34801561096857600080fd5b5060ca5460ff1661052c565b34801561098057600080fd5b5061057a6101695481565b34801561099757600080fd5b506105eb6109a6366004613d78565b6118c6565b3480156109b757600080fd5b5061052c6118d1565b3480156109cc57600080fd5b506105bd6118ee565b6105616109e3366004614051565b61197d565b3480156109f457600080fd5b50610561610a03366004613f2b565b611e0b565b348015610a1457600080fd5b5061057a610a23366004613f2b565b611e1f565b348015610a3457600080fd5b50610561611ea6565b348015610a4957600080fd5b50610561611eb8565b348015610a5e57600080fd5b5061057a6101685481565b348015610a7557600080fd5b50604080518082019091526033546001600160a01b038116808352600160a01b9091046bffffffffffffffffffffffff1660209092018290529061069a565b348015610ac057600080fd5b5060fc546001600160a01b03166105eb565b348015610ade57600080fd5b50610561610aed36600461401c565b611ec8565b348015610afe57600080fd5b506105bd611f46565b348015610b1357600080fd5b5061057a611f65565b348015610b2857600080fd5b5060405160018152602001610538565b348015610b4457600080fd5b50610561610b53366004614074565b61203c565b348015610b6457600080fd5b5061056161210a565b348015610b7957600080fd5b5061057a61016e5481565b348015610b9057600080fd5b50610561610b9f366004613d78565b612205565b348015610bb057600080fd5b5061057a6101665481565b348015610bc757600080fd5b50610561610bd63660046140b0565b612213565b348015610be757600080fd5b50610561610bf636600461401c565b612534565b348015610c0757600080fd5b50610561610c163660046141f8565b61256e565b348015610c2757600080fd5b50610561610c36366004613d78565b6125b8565b348015610c4757600080fd5b50610561610c5636600461401c565b6125c6565b348015610c6757600080fd5b5061057a6101645481565b348015610c7e57600080fd5b506105bd612600565b348015610c9357600080fd5b506105bd610ca2366004613d78565b61260e565b348015610cb357600080fd5b507f46616972447574636841756374696f6e0000000000000000000000000000000061057a565b348015610ce657600080fd5b50610561610cf5366004613d78565b61270c565b348015610d0657600080fd5b506105bd61271a565b348015610d1b57600080fd5b50610561612728565b348015610d3057600080fd5b5061057a61016c5481565b348015610d4757600080fd5b50610561610d5636600461401c565b612745565b348015610d6757600080fd5b506101635461052c9060ff1681565b348015610d8257600080fd5b5061057a6101675481565b348015610d9957600080fd5b50610561612761565b348015610dae57600080fd5b5061052c610dbd366004614274565b6001600160a01b0391821660009081527f2569078dfb4b0305704d3008e7403993ae9601b85f7ae5e742de3de8f8011c476020908152604080832093909416825291909152205460ff1690565b348015610e1657600080fd5b5061057a610e25366004613f2b565b6101716020526000908152604090205481565b348015610e4457600080fd5b50610561610e53366004613d78565b6128fc565b348015610e6457600080fd5b50610561610e73366004613d78565b61290a565b348015610e8457600080fd5b50610561610e93366004613f2b565b612918565b348015610ea457600080fd5b50610561610eb3366004613f2b565b6129a5565b6000610ec382612c00565b80610ede575063152a902d60e11b6001600160e01b03198316145b92915050565b610eec612c4e565b61016a55565b610efa612c4e565b610f048282612cc7565b5050565b60606000805160206144aa8339815191526002018054610f279061429e565b80601f0160208091040260200160405190810160405280929190818152602001828054610f539061429e565b8015610fa05780601f10610f7557610100808354040283529160200191610fa0565b820191906000526020600020905b815481529060010190602001808311610f8357829003601f168201915b5050505050905090565b6000610fb582612dce565b610feb576040517fcf4700e400000000000000000000000000000000000000000000000000000000815260040160405180910390fd5b5060009081527f2569078dfb4b0305704d3008e7403993ae9601b85f7ae5e742de3de8f8011c4660205260409020546001600160a01b031690565b61102e612c4e565b61016d55565b600061103f826118c6565b9050336001600160a01b038216146110cd576001600160a01b03811660009081527f2569078dfb4b0305704d3008e7403993ae9601b85f7ae5e742de3de8f8011c476020908152604080832033845290915290205460ff166110cd576040517fcfb3b94200000000000000000000000000000000000000000000000000000000815260040160405180910390fd5b60008281527f2569078dfb4b0305704d3008e7403993ae9601b85f7ae5e742de3de8f8011c466020526040808220805473ffffffffffffffffffffffffffffffffffffffff19166001600160a01b0387811691821790925591518593918516917f8c5be1e5ebec7d5bd14f71427d1e84f3dd0314c0f7b2291e5b200ac8c7c3b92591a4505050565b60008181526034602090815260408083208151808301909252546001600160a01b038116808352600160a01b9091046bffffffffffffffffffffffff169282019290925282916111d45750604080518082019091526033546001600160a01b0381168252600160a01b90046bffffffffffffffffffffffff1660208201525b80516020909101519094909350915050565b6111ee612c4e565b61016c55565b6111fc612c4e565b61016755565b600061120d82612e2f565b9050836001600160a01b0316816001600160a01b03161461125a576040517fa114810000000000000000000000000000000000000000000000000000000000815260040160405180910390fd5b60008281527f2569078dfb4b0305704d3008e7403993ae9601b85f7ae5e742de3de8f8011c46602052604090208054338082146001600160a01b0388169091141761131b576001600160a01b03861660009081527f2569078dfb4b0305704d3008e7403993ae9601b85f7ae5e742de3de8f8011c476020908152604080832033845290915290205460ff1661131b576040517f59c896be00000000000000000000000000000000000000000000000000000000815260040160405180910390fd5b6001600160a01b03851661135b576040517fea553b3400000000000000000000000000000000000000000000000000000000815260040160405180910390fd5b801561136657600082555b6001600160a01b0386811660009081527f2569078dfb4b0305704d3008e7403993ae9601b85f7ae5e742de3de8f8011c4560205260408082208054600019019055918716808252919020805460010190554260a01b17600160e11b1760008581527f2569078dfb4b0305704d3008e7403993ae9601b85f7ae5e742de3de8f8011c446020526040902055600160e11b831661147a576001840160008181527f2569078dfb4b0305704d3008e7403993ae9601b85f7ae5e742de3de8f8011c446020526040902054611478576000805160206144aa8339815191525481146114785760008181527f2569078dfb4b0305704d3008e7403993ae9601b85f7ae5e742de3de8f8011c44602052604090208490555b505b83856001600160a01b0316876001600160a01b03167fddf252ad1be2c89b69c2b068fc378daa952ba7f163c4a11628f55a4df523b3ef60405160405180910390a4505050505050565b6114cb612c4e565b610169544210156115235760405162461bcd60e51b815260206004820152601560248201527f4d696e74696e6720686173206e6f7420656e646564000000000000000000000060448201526064015b60405180910390fd5b600261012e5414156115775760405162461bcd60e51b815260206004820152601f60248201527f5265656e7472616e637947756172643a207265656e7472616e742063616c6c00604482015260640161151a565b600261012e55610163546040516000916201000090046001600160a01b03169047908381818185875af1925050503d80600081146115d1576040519150601f19603f3d011682016040523d82523d6000602084013e6115d6565b606091505b50509050806116275760405162461bcd60e51b815260206004820152600f60248201527f5769746864726177206661696c65640000000000000000000000000000000000604482015260640161151a565b50600161012e55565b60008281526034602090815260408083208151808301909252546001600160a01b038116808352600160a01b9091046bffffffffffffffffffffffff169282019290925282916116af5750604080518082019091526033546001600160a01b0381168252600160a01b90046bffffffffffffffffffffffff1660208201525b6020810151600090612710906116d3906bffffffffffffffffffffffff16876142ef565b6116dd919061430e565b915196919550909350505050565b6116f3612c4e565b6116fe838383612f03565b505050565b61170b612c4e565b61016855565b611719612c4e565b600061016a541161176c5760405162461bcd60e51b815260206004820152601760248201527f4e6f20746f6b656e732077657265207265736572766564000000000000000000604482015260640161151a565b61016b5460ff16156117c05760405162461bcd60e51b815260206004820181905260248201527f546f6b656e73206861766520616c7265616479206265656e206d696e74656421604482015260640161151a565b61016b805460ff191660011790555b600a61016a54111561181157600a61016a60008282546117ef9190614330565b909155505060fc5461180c906001600160a01b03165b600a61301b565b6117cf565b61182561181c613035565b61016a5461301b565b565b61182f612c4e565b61182561303f565b6116fe8383836040518060200160405280600081525061256e565b6001600160a01b03811660009081527f2569078dfb4b0305704d3008e7403993ae9601b85f7ae5e742de3de8f8011c4560205260408082205467ffffffffffffffff911c16610ede565b6118a4612c4e565b61016655565b6118b2612c4e565b8051610f0490610160906020840190613cac565b6000610ede82612e2f565b60006101685442101580156118e95750610169544211155b905090565b61016080546118fc9061429e565b80601f01602080910402602001604051908101604052809291908181526020018280546119289061429e565b80156119755780601f1061194a57610100808354040283529160200191611975565b820191906000526020600020905b81548152906001019060200180831161195857829003601f168201915b505050505081565b611985613097565b61198d613035565b6001600160a01b0316326001600160a01b0316146119ed5760405162461bcd60e51b815260206004820152601e60248201527f5468652063616c6c657220697320616e6f7468657220636f6e74726163740000604482015260640161151a565b600261012e541415611a415760405162461bcd60e51b815260206004820152601f60248201527f5265656e7472616e637947756172643a207265656e7472616e742063616c6c00604482015260640161151a565b600261012e5561016a5461016454600091611a5b91614330565b905061016854421015611ab05760405162461bcd60e51b815260206004820152601860248201527f4d696e74696e6720686173206e6f742073746172746564210000000000000000604482015260640161151a565b61016954421115611b035760405162461bcd60e51b815260206004820152601260248201527f4d696e74696e672068617320656e646564210000000000000000000000000000604482015260640161151a565b60008260ff1611611b565760405162461bcd60e51b815260206004820152601560248201527f5175616e746974792063616e206e6f7420626520300000000000000000000000604482015260640161151a565b806101655410611ba85760405162461bcd60e51b815260206004820152601560248201527f417373657473206861766520736f6c64206f7574210000000000000000000000604482015260640161151a565b808260ff1661016554611bbb9190614347565b1115611c095760405162461bcd60e51b815260206004820152601560248201527f4578636565647320746f74616c20617373657473210000000000000000000000604482015260640161151a565b6101675415611c8e57610167548260ff161115611c8e5760405162461bcd60e51b815260206004820152602560248201527f45786365656473206d696e747320616c6c6f77656420706572207472616e736160448201527f6374696f6e000000000000000000000000000000000000000000000000000000606482015260840161151a565b610166548260ff16611ca16108d1613035565b611cab9190614347565b1115611cf95760405162461bcd60e51b815260206004820152601760248201527f4d696e747320616c6c6f77656420657863656564656421000000000000000000604482015260640161151a565b6000611d03611f65565b9050611d1260ff8416826142ef565b3414611d605760405162461bcd60e51b815260206004820152601d60248201527f45746865722076616c75652073656e7420697320696e636f7272656374000000604482015260640161151a565b818360ff1661016554611d739190614347565b1415611d805761016e8190555b611d8d60ff8416826142ef565b6101716000611d9a613035565b6001600160a01b03166001600160a01b031681526020019081526020016000206000828254611dc99190614347565b925050819055508260ff166101656000828254611de69190614347565b90915550611e009050611df7613035565b8460ff1661301b565b5050600161012e5550565b611e13612c4e565b611e1c816130ea565b50565b60006001600160a01b038216611e61576040517f8f4eb60400000000000000000000000000000000000000000000000000000000815260040160405180910390fd5b506001600160a01b031660009081527f2569078dfb4b0305704d3008e7403993ae9601b85f7ae5e742de3de8f8011c45602052604090205467ffffffffffffffff1690565b611eae612c4e565b611825600061315f565b611ec0612c4e565b6118256131be565b611ed0612c4e565b6101635460ff16611f325760405162461bcd60e51b815260206004820152602660248201527f44656c6179206d6574617461646174612072657665616c206973206e6f7420656044820152651b98589b195960d21b606482015260840161151a565b8051610f0490610161906020840190613cac565b60606000805160206144aa8339815191526003018054610f279061429e565b600061016854421015611fba5760405162461bcd60e51b815260206004820152601860248201527f4d696e74696e6720686173206e6f742073746172746564210000000000000000604482015260640161151a565b60006101685442611fcb9190614330565b9050600061016f546101705483611fe2919061430e565b611fec91906142ef565b61016e54909150156120035761016e549250505090565b61016d5461016c546120159190614330565b81106120265761016d549250505090565b8061016c546120359190614330565b9250505090565b6001600160a01b03821633141561207f576040517fb06307db00000000000000000000000000000000000000000000000000000000815260040160405180910390fd5b3360008181527f2569078dfb4b0305704d3008e7403993ae9601b85f7ae5e742de3de8f8011c47602090815260408083206001600160a01b03871680855290835292819020805460ff191686151590811790915590519081529192917f17307eab39ab6107e8899845ad3d59bd9653f200f220920489ca2b5937696c31910160405180910390a35050565b612112612c4e565b6101635460ff166121745760405162461bcd60e51b815260206004820152602660248201527f44656c6179206d6574617461646174612072657665616c206973206e6f7420656044820152651b98589b195960d21b606482015260840161151a565b61016354610100900460ff16156121f35760405162461bcd60e51b815260206004820152602260248201527f4d657461646174612068617320616c7265616479206265656e2072657665616c60448201527f6564000000000000000000000000000000000000000000000000000000000000606482015260840161151a565b610163805461ff001916610100179055565b61220d612c4e565b61016455565b7fee151c8401928dc223602bb187aff91b9a56c7cae5476ef1b3287b085a16c85f54610100900460ff1661226c577fee151c8401928dc223602bb187aff91b9a56c7cae5476ef1b3287b085a16c85f5460ff1615612270565b303b155b6122e25760405162461bcd60e51b815260206004820152603760248201527f455243373231415f5f496e697469616c697a61626c653a20636f6e747261637460448201527f20697320616c726561647920696e697469616c697a6564000000000000000000606482015260840161151a565b7fee151c8401928dc223602bb187aff91b9a56c7cae5476ef1b3287b085a16c85f54610100900460ff16158015612342577fee151c8401928dc223602bb187aff91b9a56c7cae5476ef1b3287b085a16c85f805461ffff19166101011790555b600054610100900460ff16158080156123625750600054600160ff909116105b8061237c5750303b15801561237c575060005460ff166001145b6123ee5760405162461bcd60e51b815260206004820152602e60248201527f496e697469616c697a61626c653a20636f6e747261637420697320616c72656160448201527f647920696e697469616c697a6564000000000000000000000000000000000000606482015260840161151a565b6000805460ff191660011790558015612411576000805461ff0019166101001790555b6124196131fc565b6124228961326f565b61242c88886132eb565b612434613391565b61243c613404565b6124458a613477565b61244e866130ea565b6124588585612cc7565b825161016455602083015161016a55604083015161016655606083015161016755608083015161016c5560a083015161016d5560c083015161016f5560e083015161017055610100830151610168556101208301516101695580156124f7576000805461ff0019169055604051600181527f7f26b83ff96e1f2b6a682f133852f6798a09c465da95921460cefb38474024989060200160405180910390a15b508015612529577fee151c8401928dc223602bb187aff91b9a56c7cae5476ef1b3287b085a16c85f805461ff00191690555b505050505050505050565b61253c612c4e565b8051610f04907f2569078dfb4b0305704d3008e7403993ae9601b85f7ae5e742de3de8f8011c43906020840190613cac565b612579848484611202565b6001600160a01b0383163b156125b257612595848484846134e2565b6125b2576040516368d2bf6b60e11b815260040160405180910390fd5b50505050565b6125c0612c4e565b61016e55565b6125ce612c4e565b8051610f04907f2569078dfb4b0305704d3008e7403993ae9601b85f7ae5e742de3de8f8011c42906020840190613cac565b61016280546118fc9061429e565b606061261982612dce565b61264f576040517fa14c4b5000000000000000000000000000000000000000000000000000000000815260040160405180910390fd5b6101635460ff16801561266b575061016354610100900460ff16155b1561270357610161805461267e9061429e565b80601f01602080910402602001604051908101604052809291908181526020018280546126aa9061429e565b80156126f75780601f106126cc576101008083540402835291602001916126f7565b820191906000526020600020905b8154815290600101906020018083116126da57829003601f168201915b50505050509050919050565b610ede826135cb565b612714612c4e565b61016955565b61016180546118fc9061429e565b612730612c4e565b610163805460ff19811660ff90911615179055565b61274d612c4e565b8051610f0490610162906020840190613cac565b612769612c4e565b610169544210156127bc5760405162461bcd60e51b815260206004820152601560248201527f4d696e74696e6720686173206e6f7420656e6465640000000000000000000000604482015260640161151a565b600261012e5414156128105760405162461bcd60e51b815260206004820152601f60248201527f5265656e7472616e637947756172643a207265656e7472616e742063616c6c00604482015260640161151a565b600261012e557f2569078dfb4b0305704d3008e7403993ae9601b85f7ae5e742de3de8f8011c41546000805160206144aa833981519152546000919003600019016101645461285f9190614330565b9050600081116128b15760405162461bcd60e51b815260206004820152601160248201527f4e6f204e4654732077657265206c656674000000000000000000000000000000604482015260640161151a565b600a8111156128e1576128c5600a82614330565b90506128dc61180560fc546001600160a01b031690565b6128b1565b6116276128f660fc546001600160a01b031690565b8261301b565b612904612c4e565b61016f55565b612912612c4e565b61017055565b612920612c4e565b6001600160a01b03811661299c5760405162461bcd60e51b815260206004820152602660248201527f4f776e61626c653a206e6577206f776e657220697320746865207a65726f206160448201527f6464726573730000000000000000000000000000000000000000000000000000606482015260840161151a565b611e1c8161315f565b6129ad612c4e565b61016954421015612a005760405162461bcd60e51b815260206004820152601560248201527f4d696e74696e6720686173206e6f7420656e6465640000000000000000000000604482015260640161151a565b600261012e541415612a545760405162461bcd60e51b815260206004820152601f60248201527f5265656e7472616e637947756172643a207265656e7472616e742063616c6c00604482015260640161151a565b600261012e556001600160a01b03811660009081526101716020526040902054612ac05760405162461bcd60e51b815260206004820152601f60248201527f41646472657373206e6f7420656c696769626c6520666f7220726566756e6400604482015260640161151a565b6000612acb82611852565b61016e54612ad991906142ef565b6001600160a01b03831660009081526101716020526040902054612afd9190614330565b905060008111612b4f5760405162461bcd60e51b815260206004820152601f60248201527f41646472657373206e6f7420656c696769626c6520666f7220726566756e6400604482015260640161151a565b6001600160a01b038216600081815261017160205260408082208290555190919083908381818185875af1925050503d8060008114612baa576040519150601f19603f3d011682016040523d82523d6000602084013e612baf565b606091505b5050905080611e005760405162461bcd60e51b815260206004820152600d60248201527f526566756e64206661696c656400000000000000000000000000000000000000604482015260640161151a565b60006001600160e01b0319821663152a902d60e11b1480610ede57507f01ffc9a7000000000000000000000000000000000000000000000000000000006001600160e01b0319831614610ede565b612c56613035565b6001600160a01b0316612c7160fc546001600160a01b031690565b6001600160a01b0316146118255760405162461bcd60e51b815260206004820181905260248201527f4f776e61626c653a2063616c6c6572206973206e6f7420746865206f776e6572604482015260640161151a565b6127106bffffffffffffffffffffffff82161115612d3a5760405162461bcd60e51b815260206004820152602a60248201527f455243323938313a20726f79616c7479206665652077696c6c206578636565646044820152692073616c65507269636560b01b606482015260840161151a565b6001600160a01b038216612d905760405162461bcd60e51b815260206004820152601960248201527f455243323938313a20696e76616c696420726563656976657200000000000000604482015260640161151a565b604080518082019091526001600160a01b039092168083526bffffffffffffffffffffffff9091166020909201829052600160a01b90910217603355565b600081600111158015612def57506000805160206144aa8339815191525482105b8015610ede57505060009081527f2569078dfb4b0305704d3008e7403993ae9601b85f7ae5e742de3de8f8011c446020526040902054600160e01b161590565b60008180600111612ed1576000805160206144aa83398151915254811015612ed15760008181527f2569078dfb4b0305704d3008e7403993ae9601b85f7ae5e742de3de8f8011c446020526040902054600160e01b8116612ecf575b80612ec857506000190160008181527f2569078dfb4b0305704d3008e7403993ae9601b85f7ae5e742de3de8f8011c446020526040902054612e8b565b9392505050565b505b6040517fdf2d9b4200000000000000000000000000000000000000000000000000000000815260040160405180910390fd5b6127106bffffffffffffffffffffffff82161115612f765760405162461bcd60e51b815260206004820152602a60248201527f455243323938313a20726f79616c7479206665652077696c6c206578636565646044820152692073616c65507269636560b01b606482015260840161151a565b6001600160a01b038216612fcc5760405162461bcd60e51b815260206004820152601b60248201527f455243323938313a20496e76616c696420706172616d65746572730000000000604482015260640161151a565b6040805180820182526001600160a01b0393841681526bffffffffffffffffffffffff92831660208083019182526000968752603490529190942093519051909116600160a01b029116179055565b610f0482826040518060200160405280600081525061362d565b60006118e96136b4565b6130476136dc565b60ca805460ff191690557f5db9ee0a495bf2e6ff9c91a7834c1ba4fdd244a5e8aa4e537bd38aeae4b073aa61307a613035565b6040516001600160a01b03909116815260200160405180910390a1565b60ca5460ff16156118255760405162461bcd60e51b815260206004820152601060248201527f5061757361626c653a2070617573656400000000000000000000000000000000604482015260640161151a565b61016380547fffffffffffffffffffff0000000000000000000000000000000000000000ffff16620100006001600160a01b038416908102919091179091556040519081527f299d17e95023f496e0ffc4909cff1a61f74bb5eb18de6f900f4155bfa1b3b3339060200160405180910390a150565b60fc80546001600160a01b0383811673ffffffffffffffffffffffffffffffffffffffff19831681179093556040519116919082907f8be0079c531659141344cd1fd0a4f28419497f9722a3daafe3b4186f6b6457e090600090a35050565b6131c6613097565b60ca805460ff191660011790557f62e78cea01bee320cd4e420270b5ea74000d11b0c9f74754ebdbfc544b05a25861307a613035565b600054610100900460ff166132675760405162461bcd60e51b815260206004820152602b60248201527f496e697469616c697a61626c653a20636f6e7472616374206973206e6f74206960448201526a6e697469616c697a696e6760a81b606482015260840161151a565b61182561372e565b600054610100900460ff166132da5760405162461bcd60e51b815260206004820152602b60248201527f496e697469616c697a61626c653a20636f6e7472616374206973206e6f74206960448201526a6e697469616c697a696e6760a81b606482015260840161151a565b6132e26137a1565b611e1c8161380c565b7fee151c8401928dc223602bb187aff91b9a56c7cae5476ef1b3287b085a16c85f54610100900460ff166133875760405162461bcd60e51b815260206004820152603460248201527f455243373231415f5f496e697469616c697a61626c653a20636f6e747261637460448201527f206973206e6f7420696e697469616c697a696e67000000000000000000000000606482015260840161151a565b610f0482826138a6565b600054610100900460ff166133fc5760405162461bcd60e51b815260206004820152602b60248201527f496e697469616c697a61626c653a20636f6e7472616374206973206e6f74206960448201526a6e697469616c697a696e6760a81b606482015260840161151a565b6118256139be565b600054610100900460ff1661346f5760405162461bcd60e51b815260206004820152602b60248201527f496e697469616c697a61626c653a20636f6e7472616374206973206e6f74206960448201526a6e697469616c697a696e6760a81b606482015260840161151a565b611825613a6e565b600054610100900460ff1661299c5760405162461bcd60e51b815260206004820152602b60248201527f496e697469616c697a61626c653a20636f6e7472616374206973206e6f74206960448201526a6e697469616c697a696e6760a81b606482015260840161151a565b604051630a85bd0160e11b81526000906001600160a01b0385169063150b7a029061351790339089908890889060040161435f565b6020604051808303816000875af1925050508015613552575060408051601f3d908101601f1916820190925261354f9181019061439b565b60015b6135ad573d808015613580576040519150601f19603f3d011682016040523d82523d6000602084013e613585565b606091505b5080516135a5576040516368d2bf6b60e11b815260040160405180910390fd5b805181602001fd5b6001600160e01b031916630a85bd0160e11b1490505b949350505050565b606060006135d7613ae5565b90508051600014156135f85760405180602001604052806000815250612ec8565b8061360284613af5565b610162604051602001613617939291906143b8565b6040516020818303038152906040529392505050565b6136378383613b44565b6001600160a01b0383163b156116fe576000805160206144aa833981519152548281035b61366e60008683806001019450866134e2565b61368b576040516368d2bf6b60e11b815260040160405180910390fd5b81811061365b57816000805160206144aa83398151915254146136ad57600080fd5b5050505050565b6097546000906001600160a01b03163314156136d7575060131936013560601c90565b503390565b60ca5460ff166118255760405162461bcd60e51b815260206004820152601460248201527f5061757361626c653a206e6f7420706175736564000000000000000000000000604482015260640161151a565b600054610100900460ff166137995760405162461bcd60e51b815260206004820152602b60248201527f496e697469616c697a61626c653a20636f6e7472616374206973206e6f74206960448201526a6e697469616c697a696e6760a81b606482015260840161151a565b600161012e55565b600054610100900460ff166118255760405162461bcd60e51b815260206004820152602b60248201527f496e697469616c697a61626c653a20636f6e7472616374206973206e6f74206960448201526a6e697469616c697a696e6760a81b606482015260840161151a565b600054610100900460ff166138775760405162461bcd60e51b815260206004820152602b60248201527f496e697469616c697a61626c653a20636f6e7472616374206973206e6f74206960448201526a6e697469616c697a696e6760a81b606482015260840161151a565b6097805473ffffffffffffffffffffffffffffffffffffffff19166001600160a01b0392909216919091179055565b7fee151c8401928dc223602bb187aff91b9a56c7cae5476ef1b3287b085a16c85f54610100900460ff166139425760405162461bcd60e51b815260206004820152603460248201527f455243373231415f5f496e697469616c697a61626c653a20636f6e747261637460448201527f206973206e6f7420696e697469616c697a696e67000000000000000000000000606482015260840161151a565b8151613974907f2569078dfb4b0305704d3008e7403993ae9601b85f7ae5e742de3de8f8011c42906020850190613cac565b5080516139a7907f2569078dfb4b0305704d3008e7403993ae9601b85f7ae5e742de3de8f8011c43906020840190613cac565b5060016000805160206144aa833981519152555050565b600054610100900460ff16613a295760405162461bcd60e51b815260206004820152602b60248201527f496e697469616c697a61626c653a20636f6e7472616374206973206e6f74206960448201526a6e697469616c697a696e6760a81b606482015260840161151a565b6040805180820190915260058082527f2e6a736f6e0000000000000000000000000000000000000000000000000000006020909201918252611e1c9161016291613cac565b600054610100900460ff16613ad95760405162461bcd60e51b815260206004820152602b60248201527f496e697469616c697a61626c653a20636f6e7472616374206973206e6f74206960448201526a6e697469616c697a696e6760a81b606482015260840161151a565b60ca805460ff19169055565b60606101608054610f279061429e565b604080516080810191829052607f0190826030600a8206018353600a90045b8015613b3257600183039250600a81066030018353600a9004613b14565b50819003601f19909101908152919050565b6000805160206144aa833981519152546001600160a01b038316613b94576040517f2e07630000000000000000000000000000000000000000000000000000000000815260040160405180910390fd5b81613bcb576040517fb562e8dd00000000000000000000000000000000000000000000000000000000815260040160405180910390fd5b6001600160a01b03831660008181527f2569078dfb4b0305704d3008e7403993ae9601b85f7ae5e742de3de8f8011c456020526040902080546801000000000000000185020190554260a01b6001841460e11b171760008281527f2569078dfb4b0305704d3008e7403993ae9601b85f7ae5e742de3de8f8011c446020526040902055808281015b6040516001830192906001600160a01b038716906000907fddf252ad1be2c89b69c2b068fc378daa952ba7f163c4a11628f55a4df523b3ef908290a4808210613c53576000805160206144aa8339815191525550505050565b828054613cb89061429e565b90600052602060002090601f016020900481019282613cda5760008555613d20565b82601f10613cf357805160ff1916838001178555613d20565b82800160010185558215613d20579182015b82811115613d20578251825591602001919060010190613d05565b50613d2c929150613d30565b5090565b5b80821115613d2c5760008155600101613d31565b6001600160e01b031981168114611e1c57600080fd5b600060208284031215613d6d57600080fd5b8135612ec881613d45565b600060208284031215613d8a57600080fd5b5035919050565b80356001600160a01b0381168114613da857600080fd5b919050565b80356bffffffffffffffffffffffff81168114613da857600080fd5b60008060408385031215613ddc57600080fd5b613de583613d91565b9150613df360208401613dad565b90509250929050565b60005b83811015613e17578181015183820152602001613dff565b838111156125b25750506000910152565b60008151808452613e40816020860160208601613dfc565b601f01601f19169290920160200192915050565b602081526000612ec86020830184613e28565b60008060408385031215613e7a57600080fd5b613e8383613d91565b946020939093013593505050565b600080600060608486031215613ea657600080fd5b613eaf84613d91565b9250613ebd60208501613d91565b9150604084013590509250925092565b60008060408385031215613ee057600080fd5b50508035926020909101359150565b600080600060608486031215613f0457600080fd5b83359250613f1460208501613d91565b9150613f2260408501613dad565b90509250925092565b600060208284031215613f3d57600080fd5b612ec882613d91565b634e487b7160e01b600052604160045260246000fd5b604051610140810167ffffffffffffffff81118282101715613f8057613f80613f46565b60405290565b600067ffffffffffffffff80841115613fa157613fa1613f46565b604051601f8501601f19908116603f01168101908282118183101715613fc957613fc9613f46565b81604052809350858152868686011115613fe257600080fd5b858560208301376000602087830101525050509392505050565b600082601f83011261400d57600080fd5b612ec883833560208501613f86565b60006020828403121561402e57600080fd5b813567ffffffffffffffff81111561404557600080fd5b6135c384828501613ffc565b60006020828403121561406357600080fd5b813560ff81168114612ec857600080fd5b6000806040838503121561408757600080fd5b61409083613d91565b9150602083013580151581146140a557600080fd5b809150509250929050565b600080600080600080600080888a036102208112156140ce57600080fd5b6140d78a613d91565b98506140e560208b01613d91565b975060408a013567ffffffffffffffff8082111561410257600080fd5b61410e8d838e01613ffc565b985060608c013591508082111561412457600080fd5b506141318c828d01613ffc565b96505061414060808b01613d91565b945061414e60a08b01613d91565b935061415c60c08b01613dad565b92506101408060df198301121561417257600080fd5b61417a613f5c565b915060e08b01358252610100808c01356020840152610120808d01356040850152828d013560608501526101608d013560808501526101808d013560a08501526101a08d013560c08501526101c08d013560e08501526101e08d0135828501526102008d013581850152505050809150509295985092959890939650565b6000806000806080858703121561420e57600080fd5b61421785613d91565b935061422560208601613d91565b925060408501359150606085013567ffffffffffffffff81111561424857600080fd5b8501601f8101871361425957600080fd5b61426887823560208401613f86565b91505092959194509250565b6000806040838503121561428757600080fd5b61429083613d91565b9150613df360208401613d91565b600181811c908216806142b257607f821691505b602082108114156142d357634e487b7160e01b600052602260045260246000fd5b50919050565b634e487b7160e01b600052601160045260246000fd5b6000816000190483118215151615614309576143096142d9565b500290565b60008261432b57634e487b7160e01b600052601260045260246000fd5b500490565b600082821015614342576143426142d9565b500390565b6000821982111561435a5761435a6142d9565b500190565b60006001600160a01b038087168352808616602084015250836040830152608060608301526143916080830184613e28565b9695505050505050565b6000602082840312156143ad57600080fd5b8151612ec881613d45565b6000845160206143cb8285838a01613dfc565b81840191507f2f0000000000000000000000000000000000000000000000000000000000000082526001865161440681838601858b01613dfc565b865493019260009080831c8382168061442057607f821691505b85821081141561443e57634e487b7160e01b84526022600452602484fd5b808015614452576001811461446757614498565b60ff1984168887015282880186019450614498565b60008b81526020902060005b8481101561448e5781548a8201890152908701908801614473565b5050858389010194505b50929b9a505050505050505050505056fe2569078dfb4b0305704d3008e7403993ae9601b85f7ae5e742de3de8f8011c40a26469706673582212205ea5adff70afc013a4a852bf0561a18530d314432d2f8362b4a47b4d09901ec164736f6c634300080a0033",
  "linkReferences": {},
  "deployedLinkReferences": {}
}