{
  "_format": "hh-sol-artifact-1",
  "contractName": "ClassicMint",
  "sourceName": "contracts/templates/classics/ClassicMint.sol",
  "abi": [
    {
      "inputs": [],
      "name": "ApprovalCallerNotOwnerNorApproved",
      "type": "error"
    },
    {
      "inputs": [],
      "name": "ApprovalQueryForNonexistentToken",
      "type": "error"
    },
    {
      "inputs": [],
      "name": "ApproveToCaller",
      "type": "error"
    },
    {
      "inputs": [],
      "name": "BalanceQueryForZeroAddress",
      "type": "error"
    },
    {
      "inputs": [],
      "name": "MintERC2309QuantityExceedsLimit",
      "type": "error"
    },
    {
      "inputs": [],
      "name": "MintToZeroAddress",
      "type": "error"
    },
    {
      "inputs": [],
      "name": "MintZeroQuantity",
      "type": "error"
    },
    {
      "inputs": [],
      "name": "OwnerQueryForNonexistentToken",
      "type": "error"
    },
    {
      "inputs": [],
      "name": "OwnershipNotInitializedForExtraData",
      "type": "error"
    },
    {
      "inputs": [],
      "name": "TransferCallerNotOwnerNorApproved",
      "type": "error"
    },
    {
      "inputs": [],
      "name": "TransferFromIncorrectOwner",
      "type": "error"
    },
    {
      "inputs": [],
      "name": "TransferToNonERC721ReceiverImplementer",
      "type": "error"
    },
    {
      "inputs": [],
      "name": "TransferToZeroAddress",
      "type": "error"
    },
    {
      "inputs": [],
      "name": "URIQueryForNonexistentToken",
      "type": "error"
    },
    {
      "anonymous": false,
      "inputs": [
        {
          "indexed": true,
          "internalType": "address",
          "name": "owner",
          "type": "address"
        },
        {
          "indexed": true,
          "internalType": "address",
          "name": "approved",
          "type": "address"
        },
        {
          "indexed": true,
          "internalType": "uint256",
          "name": "tokenId",
          "type": "uint256"
        }
      ],
      "name": "Approval",
      "type": "event"
    },
    {
      "anonymous": false,
      "inputs": [
        {
          "indexed": true,
          "internalType": "address",
          "name": "owner",
          "type": "address"
        },
        {
          "indexed": true,
          "internalType": "address",
          "name": "operator",
          "type": "address"
        },
        {
          "indexed": false,
          "internalType": "bool",
          "name": "approved",
          "type": "bool"
        }
      ],
      "name": "ApprovalForAll",
      "type": "event"
    },
    {
      "anonymous": false,
      "inputs": [
        {
          "indexed": true,
          "internalType": "uint256",
          "name": "fromTokenId",
          "type": "uint256"
        },
        {
          "indexed": false,
          "internalType": "uint256",
          "name": "toTokenId",
          "type": "uint256"
        },
        {
          "indexed": true,
          "internalType": "address",
          "name": "from",
          "type": "address"
        },
        {
          "indexed": true,
          "internalType": "address",
          "name": "to",
          "type": "address"
        }
      ],
      "name": "ConsecutiveTransfer",
      "type": "event"
    },
    {
      "anonymous": false,
      "inputs": [
        {
          "indexed": false,
          "internalType": "uint8",
          "name": "version",
          "type": "uint8"
        }
      ],
      "name": "Initialized",
      "type": "event"
    },
    {
      "anonymous": false,
      "inputs": [
        {
          "indexed": true,
          "internalType": "address",
          "name": "previousOwner",
          "type": "address"
        },
        {
          "indexed": true,
          "internalType": "address",
          "name": "newOwner",
          "type": "address"
        }
      ],
      "name": "OwnershipTransferred",
      "type": "event"
    },
    {
      "anonymous": false,
      "inputs": [
        {
          "indexed": false,
          "internalType": "address",
          "name": "account",
          "type": "address"
        }
      ],
      "name": "Paused",
      "type": "event"
    },
    {
      "anonymous": false,
      "inputs": [
        {
          "indexed": true,
          "internalType": "address",
          "name": "from",
          "type": "address"
        },
        {
          "indexed": true,
          "internalType": "address",
          "name": "to",
          "type": "address"
        },
        {
          "indexed": true,
          "internalType": "uint256",
          "name": "tokenId",
          "type": "uint256"
        }
      ],
      "name": "Transfer",
      "type": "event"
    },
    {
      "anonymous": false,
      "inputs": [
        {
          "indexed": false,
          "internalType": "address",
          "name": "account",
          "type": "address"
        }
      ],
      "name": "Unpaused",
      "type": "event"
    },
    {
      "inputs": [
        {
          "internalType": "address",
          "name": "to",
          "type": "address"
        },
        {
          "internalType": "uint256",
          "name": "tokenId",
          "type": "uint256"
        }
      ],
      "name": "approve",
      "outputs": [],
      "stateMutability": "nonpayable",
      "type": "function"
    },
    {
      "inputs": [
        {
          "internalType": "address",
          "name": "owner",
          "type": "address"
        }
      ],
      "name": "balanceOf",
      "outputs": [
        {
          "internalType": "uint256",
          "name": "",
          "type": "uint256"
        }
      ],
      "stateMutability": "view",
      "type": "function"
    },
    {
      "inputs": [],
      "name": "baseExtension",
      "outputs": [
        {
          "internalType": "string",
          "name": "",
          "type": "string"
        }
      ],
      "stateMutability": "view",
      "type": "function"
    },
    {
      "inputs": [],
      "name": "baseURI",
      "outputs": [
        {
          "internalType": "string",
          "name": "",
          "type": "string"
        }
      ],
      "stateMutability": "view",
      "type": "function"
    },
    {
      "inputs": [],
      "name": "contractType",
      "outputs": [
        {
          "internalType": "bytes32",
          "name": "",
          "type": "bytes32"
        }
      ],
      "stateMutability": "pure",
      "type": "function"
    },
    {
      "inputs": [],
      "name": "contractVersion",
      "outputs": [
        {
          "internalType": "uint8",
          "name": "",
          "type": "uint8"
        }
      ],
      "stateMutability": "pure",
      "type": "function"
    },
    {
      "inputs": [],
      "name": "delayReveal",
      "outputs": [
        {
          "internalType": "bool",
          "name": "",
          "type": "bool"
        }
      ],
      "stateMutability": "view",
      "type": "function"
    },
    {
      "inputs": [],
      "name": "endingTimestamp",
      "outputs": [
        {
          "internalType": "uint256",
          "name": "",
          "type": "uint256"
        }
      ],
      "stateMutability": "view",
      "type": "function"
    },
    {
      "inputs": [
        {
          "internalType": "uint256",
          "name": "tokenId",
          "type": "uint256"
        }
      ],
      "name": "getApproved",
      "outputs": [
        {
          "internalType": "address",
          "name": "",
          "type": "address"
        }
      ],
      "stateMutability": "view",
      "type": "function"
    },
    {
      "inputs": [],
      "name": "hasMintStarted",
      "outputs": [
        {
          "internalType": "bool",
          "name": "",
          "type": "bool"
        }
      ],
      "stateMutability": "view",
      "type": "function"
    },
    {
      "inputs": [
        {
          "internalType": "string",
          "name": "name",
          "type": "string"
        },
        {
          "internalType": "string",
          "name": "symbol",
          "type": "string"
        },
        {
          "components": [
            {
              "internalType": "uint256",
              "name": "quantity",
              "type": "uint256"
            },
            {
              "internalType": "uint256",
              "name": "reservedTokens",
              "type": "uint256"
            },
            {
              "internalType": "uint256",
              "name": "maxMint",
              "type": "uint256"
            },
            {
              "internalType": "uint256",
              "name": "maxMintTx",
              "type": "uint256"
            },
            {
              "internalType": "uint256",
              "name": "price",
              "type": "uint256"
            },
            {
              "internalType": "uint256",
              "name": "startTime",
              "type": "uint256"
            },
            {
              "internalType": "uint256",
              "name": "endTime",
              "type": "uint256"
            }
          ],
          "internalType": "struct ClassicMint.SaleConfig",
          "name": "saleConfig",
          "type": "tuple"
        }
      ],
      "name": "initialize",
      "outputs": [],
      "stateMutability": "nonpayable",
      "type": "function"
    },
    {
      "inputs": [
        {
          "internalType": "address",
          "name": "owner",
          "type": "address"
        },
        {
          "internalType": "address",
          "name": "operator",
          "type": "address"
        }
      ],
      "name": "isApprovedForAll",
      "outputs": [
        {
          "internalType": "bool",
          "name": "",
          "type": "bool"
        }
      ],
      "stateMutability": "view",
      "type": "function"
    },
    {
      "inputs": [],
      "name": "isReservedTokensMinted",
      "outputs": [
        {
          "internalType": "bool",
          "name": "",
          "type": "bool"
        }
      ],
      "stateMutability": "view",
      "type": "function"
    },
    {
      "inputs": [],
      "name": "isRevealed",
      "outputs": [
        {
          "internalType": "bool",
          "name": "",
          "type": "bool"
        }
      ],
      "stateMutability": "view",
      "type": "function"
    },
    {
      "inputs": [],
      "name": "maxMintPerTx",
      "outputs": [
        {
          "internalType": "uint256",
          "name": "",
          "type": "uint256"
        }
      ],
      "stateMutability": "view",
      "type": "function"
    },
    {
      "inputs": [],
      "name": "maxMintPerWallet",
      "outputs": [
        {
          "internalType": "uint256",
          "name": "",
          "type": "uint256"
        }
      ],
      "stateMutability": "view",
      "type": "function"
    },
    {
      "inputs": [
        {
          "internalType": "uint8",
          "name": "quantity",
          "type": "uint8"
        }
      ],
      "name": "mint",
      "outputs": [],
      "stateMutability": "payable",
      "type": "function"
    },
    {
      "inputs": [],
      "name": "mintPrice",
      "outputs": [
        {
          "internalType": "uint256",
          "name": "",
          "type": "uint256"
        }
      ],
      "stateMutability": "view",
      "type": "function"
    },
    {
      "inputs": [],
      "name": "mintReservedTokens",
      "outputs": [],
      "stateMutability": "nonpayable",
      "type": "function"
    },
    {
      "inputs": [],
      "name": "mintTotalSupply",
      "outputs": [
        {
          "internalType": "uint256",
          "name": "",
          "type": "uint256"
        }
      ],
      "stateMutability": "view",
      "type": "function"
    },
    {
      "inputs": [],
      "name": "name",
      "outputs": [
        {
          "internalType": "string",
          "name": "",
          "type": "string"
        }
      ],
      "stateMutability": "view",
      "type": "function"
    },
    {
      "inputs": [],
      "name": "owner",
      "outputs": [
        {
          "internalType": "address",
          "name": "",
          "type": "address"
        }
      ],
      "stateMutability": "view",
      "type": "function"
    },
    {
      "inputs": [
        {
          "internalType": "uint256",
          "name": "tokenId",
          "type": "uint256"
        }
      ],
      "name": "ownerOf",
      "outputs": [
        {
          "internalType": "address",
          "name": "",
          "type": "address"
        }
      ],
      "stateMutability": "view",
      "type": "function"
    },
    {
      "inputs": [],
      "name": "pause",
      "outputs": [],
      "stateMutability": "nonpayable",
      "type": "function"
    },
    {
      "inputs": [],
      "name": "paused",
      "outputs": [
        {
          "internalType": "bool",
          "name": "",
          "type": "bool"
        }
      ],
      "stateMutability": "view",
      "type": "function"
    },
    {
      "inputs": [],
      "name": "previewURI",
      "outputs": [
        {
          "internalType": "string",
          "name": "",
          "type": "string"
        }
      ],
      "stateMutability": "view",
      "type": "function"
    },
    {
      "inputs": [],
      "name": "renounceOwnership",
      "outputs": [],
      "stateMutability": "nonpayable",
      "type": "function"
    },
    {
      "inputs": [],
      "name": "reservedTokens",
      "outputs": [
        {
          "internalType": "uint256",
          "name": "",
          "type": "uint256"
        }
      ],
      "stateMutability": "view",
      "type": "function"
    },
    {
      "inputs": [],
      "name": "reveal",
      "outputs": [],
      "stateMutability": "nonpayable",
      "type": "function"
    },
    {
      "inputs": [
        {
          "internalType": "address",
          "name": "from",
          "type": "address"
        },
        {
          "internalType": "address",
          "name": "to",
          "type": "address"
        },
        {
          "internalType": "uint256",
          "name": "tokenId",
          "type": "uint256"
        }
      ],
      "name": "safeTransferFrom",
      "outputs": [],
      "stateMutability": "nonpayable",
      "type": "function"
    },
    {
      "inputs": [
        {
          "internalType": "address",
          "name": "from",
          "type": "address"
        },
        {
          "internalType": "address",
          "name": "to",
          "type": "address"
        },
        {
          "internalType": "uint256",
          "name": "tokenId",
          "type": "uint256"
        },
        {
          "internalType": "bytes",
          "name": "_data",
          "type": "bytes"
        }
      ],
      "name": "safeTransferFrom",
      "outputs": [],
      "stateMutability": "nonpayable",
      "type": "function"
    },
    {
      "inputs": [
        {
          "internalType": "address",
          "name": "operator",
          "type": "address"
        },
        {
          "internalType": "bool",
          "name": "approved",
          "type": "bool"
        }
      ],
      "name": "setApprovalForAll",
      "outputs": [],
      "stateMutability": "nonpayable",
      "type": "function"
    },
    {
      "inputs": [
        {
          "internalType": "string",
          "name": "extension",
          "type": "string"
        }
      ],
      "name": "setBaseExtension",
      "outputs": [],
      "stateMutability": "nonpayable",
      "type": "function"
    },
    {
      "inputs": [
        {
          "internalType": "string",
          "name": "uri",
          "type": "string"
        }
      ],
      "name": "setBaseURI",
      "outputs": [],
      "stateMutability": "nonpayable",
      "type": "function"
    },
    {
      "inputs": [
        {
          "internalType": "uint256",
          "name": "endTime",
          "type": "uint256"
        }
      ],
      "name": "setEndTime",
      "outputs": [],
      "stateMutability": "nonpayable",
      "type": "function"
    },
    {
      "inputs": [
        {
          "internalType": "uint256",
          "name": "maxMint",
          "type": "uint256"
        }
      ],
      "name": "setMaxMint",
      "outputs": [],
      "stateMutability": "nonpayable",
      "type": "function"
    },
    {
      "inputs": [
        {
          "internalType": "uint256",
          "name": "maxMintTx",
          "type": "uint256"
        }
      ],
      "name": "setMaxMintTx",
      "outputs": [],
      "stateMutability": "nonpayable",
      "type": "function"
    },
    {
      "inputs": [
        {
          "internalType": "uint256",
          "name": "price",
          "type": "uint256"
        }
      ],
      "name": "setMintPrice",
      "outputs": [],
      "stateMutability": "nonpayable",
      "type": "function"
    },
    {
      "inputs": [
        {
          "internalType": "string",
          "name": "name",
          "type": "string"
        }
      ],
      "name": "setName",
      "outputs": [],
      "stateMutability": "nonpayable",
      "type": "function"
    },
    {
      "inputs": [
        {
          "internalType": "string",
          "name": "uri",
          "type": "string"
        }
      ],
      "name": "setPreviewURI",
      "outputs": [],
      "stateMutability": "nonpayable",
      "type": "function"
    },
    {
      "inputs": [
        {
          "internalType": "uint256",
          "name": "tokens",
          "type": "uint256"
        }
      ],
      "name": "setReservedTokens",
      "outputs": [],
      "stateMutability": "nonpayable",
      "type": "function"
    },
    {
      "inputs": [
        {
          "internalType": "uint256",
          "name": "startTime",
          "type": "uint256"
        }
      ],
      "name": "setStartTime",
      "outputs": [],
      "stateMutability": "nonpayable",
      "type": "function"
    },
    {
      "inputs": [
        {
          "internalType": "string",
          "name": "symbol",
          "type": "string"
        }
      ],
      "name": "setSymbol",
      "outputs": [],
      "stateMutability": "nonpayable",
      "type": "function"
    },
    {
      "inputs": [
        {
          "internalType": "uint256",
          "name": "quantity",
          "type": "uint256"
        }
      ],
      "name": "setTotalQuantity",
      "outputs": [],
      "stateMutability": "nonpayable",
      "type": "function"
    },
    {
      "inputs": [],
      "name": "startingTimestamp",
      "outputs": [
        {
          "internalType": "uint256",
          "name": "",
          "type": "uint256"
        }
      ],
      "stateMutability": "view",
      "type": "function"
    },
    {
      "inputs": [
        {
          "internalType": "bytes4",
          "name": "interfaceId",
          "type": "bytes4"
        }
      ],
      "name": "supportsInterface",
      "outputs": [
        {
          "internalType": "bool",
          "name": "",
          "type": "bool"
        }
      ],
      "stateMutability": "view",
      "type": "function"
    },
    {
      "inputs": [],
      "name": "symbol",
      "outputs": [
        {
          "internalType": "string",
          "name": "",
          "type": "string"
        }
      ],
      "stateMutability": "view",
      "type": "function"
    },
    {
      "inputs": [],
      "name": "toggleDelayReveal",
      "outputs": [],
      "stateMutability": "nonpayable",
      "type": "function"
    },
    {
      "inputs": [
        {
          "internalType": "uint256",
          "name": "tokenId",
          "type": "uint256"
        }
      ],
      "name": "tokenURI",
      "outputs": [
        {
          "internalType": "string",
          "name": "",
          "type": "string"
        }
      ],
      "stateMutability": "view",
      "type": "function"
    },
    {
      "inputs": [
        {
          "internalType": "address",
          "name": "wallet",
          "type": "address"
        }
      ],
      "name": "tokensMinted",
      "outputs": [
        {
          "internalType": "uint256",
          "name": "",
          "type": "uint256"
        }
      ],
      "stateMutability": "view",
      "type": "function"
    },
    {
      "inputs": [],
      "name": "totalQuantity",
      "outputs": [
        {
          "internalType": "uint256",
          "name": "",
          "type": "uint256"
        }
      ],
      "stateMutability": "view",
      "type": "function"
    },
    {
      "inputs": [],
      "name": "totalSupply",
      "outputs": [
        {
          "internalType": "uint256",
          "name": "",
          "type": "uint256"
        }
      ],
      "stateMutability": "view",
      "type": "function"
    },
    {
      "inputs": [
        {
          "internalType": "address",
          "name": "from",
          "type": "address"
        },
        {
          "internalType": "address",
          "name": "to",
          "type": "address"
        },
        {
          "internalType": "uint256",
          "name": "tokenId",
          "type": "uint256"
        }
      ],
      "name": "transferFrom",
      "outputs": [],
      "stateMutability": "nonpayable",
      "type": "function"
    },
    {
      "inputs": [
        {
          "internalType": "address",
          "name": "newOwner",
          "type": "address"
        }
      ],
      "name": "transferOwnership",
      "outputs": [],
      "stateMutability": "nonpayable",
      "type": "function"
    },
    {
      "inputs": [],
      "name": "unpause",
      "outputs": [],
      "stateMutability": "nonpayable",
      "type": "function"
    },
    {
      "inputs": [],
      "name": "withdrawFunds",
      "outputs": [],
      "stateMutability": "nonpayable",
      "type": "function"
    },
    {
      "inputs": [],
      "name": "withdrawUnmintedTokens",
      "outputs": [],
      "stateMutability": "nonpayable",
      "type": "function"
    }
  ],
  "bytecode": "0x60c06040526005608081905264173539b7b760d91b60a0908152620000289160cb91906200003d565b503480156200003657600080fd5b5062000120565b8280546200004b90620000e3565b90600052602060002090601f0160209004810192826200006f5760008555620000ba565b82601f106200008a57805160ff1916838001178555620000ba565b82800160010185558215620000ba579182015b82811115620000ba5782518255916020019190600101906200009d565b50620000c8929150620000cc565b5090565b5b80821115620000c85760008155600101620000cd565b600181811c90821680620000f857607f821691505b602082108114156200011a57634e487b7160e01b600052602260045260246000fd5b50919050565b61345a80620001306000396000f3fe6080604052600436106103765760003560e01c8063715018a6116101d1578063c47f002711610102578063d6bbe739116100a0578063e315019d1161006f578063e315019d1461099a578063e985e9c5146109af578063f2fde38b14610a17578063f4a0a52814610a3757600080fd5b8063d6bbe73914610935578063da3ef23f1461094a578063de09daea1461096a578063de7fcb1d1461098457600080fd5b8063c87b56dd116100dc578063c87b56dd146108ad578063cb2ef6f7146108cd578063ccb98ffc14610900578063d3ff166c1461092057600080fd5b8063c47f002714610862578063c616f41214610882578063c66828621461089857600080fd5b8063a0a8e4601161016f578063ab88d28611610149578063ab88d286146107ec578063b228d9251461080c578063b84c824614610822578063b88d4fde1461084257600080fd5b8063a0a8e4601461079b578063a22cb465146107b7578063a475b5dd146107d757600080fd5b80638da5cb5b116101ab5780638da5cb5b1461072857806390498f931461074657806395d89b4114610766578063993546301461077b57600080fd5b8063715018a6146106e85780638456cb59146106fd578063887862721461071257600080fd5b806342842e0e116102ab5780635e5294b7116102495780636817c76c116102235780636817c76c1461068a5780636c0360eb146106a05780636ecd2306146106b557806370a08231146106c857600080fd5b80635e5294b71461063f5780636352211e1461065557806367768ceb1461067557600080fd5b8063546104811161028557806354610481146105c7578063547520fe146105e757806355f804b3146106075780635c975abb1461062757600080fd5b806342842e0e1461056e57806349e510971461058e57806354214f69146105a857600080fd5b806318160ddd1161031857806324600fc3116102f257806324600fc31461050f5780633e0a322d146105245780633eefe239146105445780633f4ba83a1461055957600080fd5b806318160ddd146104865780631c67cc61146104cf57806323b872dd146104ef57600080fd5b8063081812fc11610354578063081812fc146103f4578063095ea7b31461042c5780630c01ae341461044c57806315a553471461047057600080fd5b806301ffc9a71461037b578063027903ef146103b057806306fdde03146103d2575b600080fd5b34801561038757600080fd5b5061039b610396366004612dfa565b610a57565b60405190151581526020015b60405180910390f35b3480156103bc57600080fd5b506103d06103cb366004612e17565b610af4565b005b3480156103de57600080fd5b506103e7610b01565b6040516103a79190612e88565b34801561040057600080fd5b5061041461040f366004612e17565b610ba3565b6040516001600160a01b0390911681526020016103a7565b34801561043857600080fd5b506103d0610447366004612eb7565b610c1f565b34801561045857600080fd5b5061046260ce5481565b6040519081526020016103a7565b34801561047c57600080fd5b5061046260d35481565b34801561049257600080fd5b507f2569078dfb4b0305704d3008e7403993ae9601b85f7ae5e742de3de8f8011c4154600080516020613405833981519152540360001901610462565b3480156104db57600080fd5b506103d06104ea366004612e17565b610d40565b3480156104fb57600080fd5b506103d061050a366004612ee1565b610d4d565b34801561051b57600080fd5b506103d061100e565b34801561053057600080fd5b506103d061053f366004612e17565b611181565b34801561055057600080fd5b506103d061118e565b34801561056557600080fd5b506103d0611297565b34801561057a57600080fd5b506103d0610589366004612ee1565b6112a7565b34801561059a57600080fd5b5060d45461039b9060ff1681565b3480156105b457600080fd5b5060cc5461039b90610100900460ff1681565b3480156105d357600080fd5b506104626105e2366004612f1d565b6112c7565b3480156105f357600080fd5b506103d0610602366004612e17565b611311565b34801561061357600080fd5b506103d061062236600461300d565b61131e565b34801561063357600080fd5b5060335460ff1661039b565b34801561064b57600080fd5b5061046260d25481565b34801561066157600080fd5b50610414610670366004612e17565b61133d565b34801561068157600080fd5b5061039b611348565b34801561069657600080fd5b5061046260d55481565b3480156106ac57600080fd5b506103e7611363565b6103d06106c3366004613042565b6113f1565b3480156106d457600080fd5b506104626106e3366004612f1d565b6117d7565b3480156106f457600080fd5b506103d061185e565b34801561070957600080fd5b506103d0611870565b34801561071e57600080fd5b5061046260d15481565b34801561073457600080fd5b506065546001600160a01b0316610414565b34801561075257600080fd5b506103d061076136600461300d565b611880565b34801561077257600080fd5b506103e76118fb565b34801561078757600080fd5b506103d0610796366004613065565b61191a565b3480156107a757600080fd5b50604051600181526020016103a7565b3480156107c357600080fd5b506103d06107d2366004613130565b611bed565b3480156107e357600080fd5b506103d0611cbb565b3480156107f857600080fd5b506103d0610807366004612e17565b611db2565b34801561081857600080fd5b5061046260cf5481565b34801561082e57600080fd5b506103d061083d36600461300d565b611dbf565b34801561084e57600080fd5b506103d061085d36600461316c565b611df9565b34801561086e57600080fd5b506103d061087d36600461300d565b611e3d565b34801561088e57600080fd5b5061046260cd5481565b3480156108a457600080fd5b506103e7611e77565b3480156108b957600080fd5b506103e76108c8366004612e17565b611e84565b3480156108d957600080fd5b507f436c6173736963204d696e740000000000000000000000000000000000000000610462565b34801561090c57600080fd5b506103d061091b366004612e17565b611f7f565b34801561092c57600080fd5b506103e7611f8c565b34801561094157600080fd5b506103d0611f99565b34801561095657600080fd5b506103d061096536600461300d565b611fb5565b34801561097657600080fd5b5060cc5461039b9060ff1681565b34801561099057600080fd5b5061046260d05481565b3480156109a657600080fd5b506103d0611fd0565b3480156109bb57600080fd5b5061039b6109ca3660046131e8565b6001600160a01b0391821660009081527f2569078dfb4b0305704d3008e7403993ae9601b85f7ae5e742de3de8f8011c476020908152604080832093909416825291909152205460ff1690565b348015610a2357600080fd5b506103d0610a32366004612f1d565b612167565b348015610a4357600080fd5b506103d0610a52366004612e17565b6121f7565b60007f01ffc9a7000000000000000000000000000000000000000000000000000000006001600160e01b031983161480610aba57507f80ac58cd000000000000000000000000000000000000000000000000000000006001600160e01b03198316145b80610aee57507f5b5e139f000000000000000000000000000000000000000000000000000000006001600160e01b03198316145b92915050565b610afc612204565b60d355565b60606000805160206134058339815191526002018054610b209061321b565b80601f0160208091040260200160405190810160405280929190818152602001828054610b4c9061321b565b8015610b995780601f10610b6e57610100808354040283529160200191610b99565b820191906000526020600020905b815481529060010190602001808311610b7c57829003601f168201915b5050505050905090565b6000610bae8261225e565b610be4576040517fcf4700e400000000000000000000000000000000000000000000000000000000815260040160405180910390fd5b5060009081527f2569078dfb4b0305704d3008e7403993ae9601b85f7ae5e742de3de8f8011c4660205260409020546001600160a01b031690565b6000610c2a8261133d565b9050336001600160a01b03821614610cb8576001600160a01b03811660009081527f2569078dfb4b0305704d3008e7403993ae9601b85f7ae5e742de3de8f8011c476020908152604080832033845290915290205460ff16610cb8576040517fcfb3b94200000000000000000000000000000000000000000000000000000000815260040160405180910390fd5b60008281527f2569078dfb4b0305704d3008e7403993ae9601b85f7ae5e742de3de8f8011c466020526040808220805473ffffffffffffffffffffffffffffffffffffffff19166001600160a01b0387811691821790925591518593918516917f8c5be1e5ebec7d5bd14f71427d1e84f3dd0314c0f7b2291e5b200ac8c7c3b92591a4505050565b610d48612204565b60d055565b6000610d58826122bf565b9050836001600160a01b0316816001600160a01b031614610da5576040517fa114810000000000000000000000000000000000000000000000000000000000815260040160405180910390fd5b60008281527f2569078dfb4b0305704d3008e7403993ae9601b85f7ae5e742de3de8f8011c46602052604090208054338082146001600160a01b03881690911417610e66576001600160a01b03861660009081527f2569078dfb4b0305704d3008e7403993ae9601b85f7ae5e742de3de8f8011c476020908152604080832033845290915290205460ff16610e66576040517f59c896be00000000000000000000000000000000000000000000000000000000815260040160405180910390fd5b6001600160a01b038516610ea6576040517fea553b3400000000000000000000000000000000000000000000000000000000815260040160405180910390fd5b8015610eb157600082555b6001600160a01b0386811660009081527f2569078dfb4b0305704d3008e7403993ae9601b85f7ae5e742de3de8f8011c4560205260408082208054600019019055918716808252919020805460010190554260a01b17600160e11b1760008581527f2569078dfb4b0305704d3008e7403993ae9601b85f7ae5e742de3de8f8011c446020526040902055600160e11b8316610fc5576001840160008181527f2569078dfb4b0305704d3008e7403993ae9601b85f7ae5e742de3de8f8011c446020526040902054610fc357600080516020613405833981519152548114610fc35760008181527f2569078dfb4b0305704d3008e7403993ae9601b85f7ae5e742de3de8f8011c44602052604090208490555b505b83856001600160a01b0316876001600160a01b03167fddf252ad1be2c89b69c2b068fc378daa952ba7f163c4a11628f55a4df523b3ef60405160405180910390a4505050505050565b611016612204565b60d25442101561106d5760405162461bcd60e51b815260206004820152601560248201527f4d696e74696e6720686173206e6f7420656e646564000000000000000000000060448201526064015b60405180910390fd5b600260975414156110c05760405162461bcd60e51b815260206004820152601f60248201527f5265656e7472616e637947756172643a207265656e7472616e742063616c6c006044820152606401611064565b600260975560006110d96065546001600160a01b031690565b6001600160a01b03164760405160006040518083038185875af1925050503d8060008114611123576040519150601f19603f3d011682016040523d82523d6000602084013e611128565b606091505b50509050806111795760405162461bcd60e51b815260206004820152600f60248201527f5472616e73666572206661696c656400000000000000000000000000000000006044820152606401611064565b506001609755565b611189612204565b60d155565b611196612204565b600060d354116111e85760405162461bcd60e51b815260206004820152601760248201527f4e6f20746f6b656e7320776572652072657365727665640000000000000000006044820152606401611064565b60d45460ff161561123b5760405162461bcd60e51b815260206004820181905260248201527f546f6b656e73206861766520616c7265616479206265656e206d696e746564216044820152606401611064565b60d4805460ff191660011790555b600a60d354111561128957600a60d36000828254611267919061326c565b9091555050606554611284906001600160a01b03165b600a612393565b611249565b6112953360d354612393565b565b61129f612204565b6112956123ad565b6112c283838360405180602001604052806000815250611df9565b505050565b6001600160a01b03811660009081527f2569078dfb4b0305704d3008e7403993ae9601b85f7ae5e742de3de8f8011c4560205260408082205467ffffffffffffffff911c16610aee565b611319612204565b60cf55565b611326612204565b80516113399060c9906020840190612d4b565b5050565b6000610aee826122bf565b600060d154421015801561135e575060d2544211155b905090565b60c980546113709061321b565b80601f016020809104026020016040519081016040528092919081815260200182805461139c9061321b565b80156113e95780601f106113be576101008083540402835291602001916113e9565b820191906000526020600020905b8154815290600101906020018083116113cc57829003601f168201915b505050505081565b6113f96123ff565b3233146114485760405162461bcd60e51b815260206004820152601e60248201527f5468652063616c6c657220697320616e6f7468657220636f6e747261637400006044820152606401611064565b6002609754141561149b5760405162461bcd60e51b815260206004820152601f60248201527f5265656e7472616e637947756172643a207265656e7472616e742063616c6c006044820152606401611064565b600260975560d35460cd546000916114b29161326c565b905060d1544210156115065760405162461bcd60e51b815260206004820152601860248201527f4d696e74696e6720686173206e6f7420737461727465642100000000000000006044820152606401611064565b60d2544211156115585760405162461bcd60e51b815260206004820152601260248201527f4d696e74696e672068617320656e6465642100000000000000000000000000006044820152606401611064565b60008260ff16116115ab5760405162461bcd60e51b815260206004820152601560248201527f5175616e746974792063616e206e6f74206265203000000000000000000000006044820152606401611064565b8060ce54106115fc5760405162461bcd60e51b815260206004820152601560248201527f417373657473206861766520736f6c64206f75742100000000000000000000006044820152606401611064565b808260ff1660ce5461160e9190613283565b111561165c5760405162461bcd60e51b815260206004820152601560248201527f4578636565647320746f74616c206173736574732100000000000000000000006044820152606401611064565b60d054156116df5760d0548260ff1611156116df5760405162461bcd60e51b815260206004820152602560248201527f45786365656473206d696e747320616c6c6f77656420706572207472616e736160448201527f6374696f6e0000000000000000000000000000000000000000000000000000006064820152608401611064565b60cf548260ff166116ef336112c7565b6116f99190613283565b11156117475760405162461bcd60e51b815260206004820152601760248201527f4d696e747320616c6c6f776564206578636565646564210000000000000000006044820152606401611064565b8160ff1660d554611758919061329b565b34146117a65760405162461bcd60e51b815260206004820152601d60248201527f45746865722076616c75652073656e7420697320696e636f72726563740000006044820152606401611064565b8160ff1660ce60008282546117bb9190613283565b909155506117ce90503360ff8416612393565b50506001609755565b60006001600160a01b038216611819576040517f8f4eb60400000000000000000000000000000000000000000000000000000000815260040160405180910390fd5b506001600160a01b031660009081527f2569078dfb4b0305704d3008e7403993ae9601b85f7ae5e742de3de8f8011c45602052604090205467ffffffffffffffff1690565b611866612204565b6112956000612452565b611878612204565b6112956124b1565b611888612204565b60cc5460ff166118e85760405162461bcd60e51b815260206004820152602560248201527f44656c6179206d65746174646174612072657665616c206973206e6f7420656e60448201526418589b195960da1b6064820152608401611064565b80516113399060ca906020840190612d4b565b60606000805160206134058339815191526003018054610b209061321b565b7fee151c8401928dc223602bb187aff91b9a56c7cae5476ef1b3287b085a16c85f54610100900460ff16611973577fee151c8401928dc223602bb187aff91b9a56c7cae5476ef1b3287b085a16c85f5460ff1615611977565b303b155b6119e95760405162461bcd60e51b815260206004820152603760248201527f455243373231415f5f496e697469616c697a61626c653a20636f6e747261637460448201527f20697320616c726561647920696e697469616c697a65640000000000000000006064820152608401611064565b7fee151c8401928dc223602bb187aff91b9a56c7cae5476ef1b3287b085a16c85f54610100900460ff16158015611a49577fee151c8401928dc223602bb187aff91b9a56c7cae5476ef1b3287b085a16c85f805461ffff19166101011790555b600054610100900460ff1615808015611a695750600054600160ff909116105b80611a835750303b158015611a83575060005460ff166001145b611af55760405162461bcd60e51b815260206004820152602e60248201527f496e697469616c697a61626c653a20636f6e747261637420697320616c72656160448201527f647920696e697469616c697a65640000000000000000000000000000000000006064820152608401611064565b6000805460ff191660011790558015611b18576000805461ff0019166101001790555b611b2285856124ee565b611b2a612594565b611b32612607565b611b3a61267a565b825160cd55602083015160d355608083015160d555604083015160cf55606083015160d05560a083015160d15560c083015160d2558015611bb5576000805461ff0019169055604051600181527f7f26b83ff96e1f2b6a682f133852f6798a09c465da95921460cefb38474024989060200160405180910390a15b508015611be7577fee151c8401928dc223602bb187aff91b9a56c7cae5476ef1b3287b085a16c85f805461ff00191690555b50505050565b6001600160a01b038216331415611c30576040517fb06307db00000000000000000000000000000000000000000000000000000000815260040160405180910390fd5b3360008181527f2569078dfb4b0305704d3008e7403993ae9601b85f7ae5e742de3de8f8011c47602090815260408083206001600160a01b03871680855290835292819020805460ff191686151590811790915590519081529192917f17307eab39ab6107e8899845ad3d59bd9653f200f220920489ca2b5937696c31910160405180910390a35050565b611cc3612204565b60cc5460ff16611d235760405162461bcd60e51b815260206004820152602560248201527f44656c6179206d65746174646174612072657665616c206973206e6f7420656e60448201526418589b195960da1b6064820152608401611064565b60cc54610100900460ff1615611da15760405162461bcd60e51b815260206004820152602260248201527f4d657461646174612068617320616c7265616479206265656e2072657665616c60448201527f65640000000000000000000000000000000000000000000000000000000000006064820152608401611064565b60cc805461ff001916610100179055565b611dba612204565b60cd55565b611dc7612204565b8051611339907f2569078dfb4b0305704d3008e7403993ae9601b85f7ae5e742de3de8f8011c43906020840190612d4b565b611e04848484610d4d565b6001600160a01b0383163b15611be757611e20848484846126ed565b611be7576040516368d2bf6b60e11b815260040160405180910390fd5b611e45612204565b8051611339907f2569078dfb4b0305704d3008e7403993ae9601b85f7ae5e742de3de8f8011c42906020840190612d4b565b60cb80546113709061321b565b6060611e8f8261225e565b611ec5576040517fa14c4b5000000000000000000000000000000000000000000000000000000000815260040160405180910390fd5b60cc5460ff168015611edf575060cc54610100900460ff16155b15611f765760ca8054611ef19061321b565b80601f0160208091040260200160405190810160405280929190818152602001828054611f1d9061321b565b8015611f6a5780601f10611f3f57610100808354040283529160200191611f6a565b820191906000526020600020905b815481529060010190602001808311611f4d57829003601f168201915b50505050509050919050565b610aee826127d6565b611f87612204565b60d255565b60ca80546113709061321b565b611fa1612204565b60cc805460ff19811660ff90911615179055565b611fbd612204565b80516113399060cb906020840190612d4b565b611fd8612204565b60d25442101561202a5760405162461bcd60e51b815260206004820152601560248201527f4d696e74696e6720686173206e6f7420656e64656400000000000000000000006044820152606401611064565b6002609754141561207d5760405162461bcd60e51b815260206004820152601f60248201527f5265656e7472616e637947756172643a207265656e7472616e742063616c6c006044820152606401611064565b60026097557f2569078dfb4b0305704d3008e7403993ae9601b85f7ae5e742de3de8f8011c41546000805160206134058339815191525460009190036000190160cd546120ca919061326c565b90506000811161211c5760405162461bcd60e51b815260206004820152601160248201527f4e6f204e4654732077657265206c6566740000000000000000000000000000006044820152606401611064565b600a81111561214c57612130600a8261326c565b905061214761127d6065546001600160a01b031690565b61211c565b6111796121616065546001600160a01b031690565b82612393565b61216f612204565b6001600160a01b0381166121eb5760405162461bcd60e51b815260206004820152602660248201527f4f776e61626c653a206e6577206f776e657220697320746865207a65726f206160448201527f64647265737300000000000000000000000000000000000000000000000000006064820152608401611064565b6121f481612452565b50565b6121ff612204565b60d555565b6065546001600160a01b031633146112955760405162461bcd60e51b815260206004820181905260248201527f4f776e61626c653a2063616c6c6572206973206e6f7420746865206f776e65726044820152606401611064565b60008160011115801561227f57506000805160206134058339815191525482105b8015610aee57505060009081527f2569078dfb4b0305704d3008e7403993ae9601b85f7ae5e742de3de8f8011c446020526040902054600160e01b161590565b6000818060011161236157600080516020613405833981519152548110156123615760008181527f2569078dfb4b0305704d3008e7403993ae9601b85f7ae5e742de3de8f8011c446020526040902054600160e01b811661235f575b8061235857506000190160008181527f2569078dfb4b0305704d3008e7403993ae9601b85f7ae5e742de3de8f8011c44602052604090205461231b565b9392505050565b505b6040517fdf2d9b4200000000000000000000000000000000000000000000000000000000815260040160405180910390fd5b611339828260405180602001604052806000815250612837565b6123b56128be565b6033805460ff191690557f5db9ee0a495bf2e6ff9c91a7834c1ba4fdd244a5e8aa4e537bd38aeae4b073aa335b6040516001600160a01b03909116815260200160405180910390a1565b60335460ff16156112955760405162461bcd60e51b815260206004820152601060248201527f5061757361626c653a20706175736564000000000000000000000000000000006044820152606401611064565b606580546001600160a01b0383811673ffffffffffffffffffffffffffffffffffffffff19831681179093556040519116919082907f8be0079c531659141344cd1fd0a4f28419497f9722a3daafe3b4186f6b6457e090600090a35050565b6124b96123ff565b6033805460ff191660011790557f62e78cea01bee320cd4e420270b5ea74000d11b0c9f74754ebdbfc544b05a2586123e23390565b7fee151c8401928dc223602bb187aff91b9a56c7cae5476ef1b3287b085a16c85f54610100900460ff1661258a5760405162461bcd60e51b815260206004820152603460248201527f455243373231415f5f496e697469616c697a61626c653a20636f6e747261637460448201527f206973206e6f7420696e697469616c697a696e670000000000000000000000006064820152608401611064565b6113398282612910565b600054610100900460ff166125ff5760405162461bcd60e51b815260206004820152602b60248201527f496e697469616c697a61626c653a20636f6e7472616374206973206e6f74206960448201526a6e697469616c697a696e6760a81b6064820152608401611064565b611295612a28565b600054610100900460ff166126725760405162461bcd60e51b815260206004820152602b60248201527f496e697469616c697a61626c653a20636f6e7472616374206973206e6f74206960448201526a6e697469616c697a696e6760a81b6064820152608401611064565b611295612a9c565b600054610100900460ff166126e55760405162461bcd60e51b815260206004820152602b60248201527f496e697469616c697a61626c653a20636f6e7472616374206973206e6f74206960448201526a6e697469616c697a696e6760a81b6064820152608401611064565b611295612b13565b604051630a85bd0160e11b81526000906001600160a01b0385169063150b7a02906127229033908990889088906004016132ba565b6020604051808303816000875af192505050801561275d575060408051601f3d908101601f1916820190925261275a918101906132f6565b60015b6127b8573d80801561278b576040519150601f19603f3d011682016040523d82523d6000602084013e612790565b606091505b5080516127b0576040516368d2bf6b60e11b815260040160405180910390fd5b805181602001fd5b6001600160e01b031916630a85bd0160e11b1490505b949350505050565b606060006127e2612b85565b90508051600014156128035760405180602001604052806000815250612358565b8061280d84612b94565b60cb60405160200161282193929190613313565b6040516020818303038152906040529392505050565b6128418383612be3565b6001600160a01b0383163b156112c257600080516020613405833981519152548281035b61287860008683806001019450866126ed565b612895576040516368d2bf6b60e11b815260040160405180910390fd5b818110612865578160008051602061340583398151915254146128b757600080fd5b5050505050565b60335460ff166112955760405162461bcd60e51b815260206004820152601460248201527f5061757361626c653a206e6f74207061757365640000000000000000000000006044820152606401611064565b7fee151c8401928dc223602bb187aff91b9a56c7cae5476ef1b3287b085a16c85f54610100900460ff166129ac5760405162461bcd60e51b815260206004820152603460248201527f455243373231415f5f496e697469616c697a61626c653a20636f6e747261637460448201527f206973206e6f7420696e697469616c697a696e670000000000000000000000006064820152608401611064565b81516129de907f2569078dfb4b0305704d3008e7403993ae9601b85f7ae5e742de3de8f8011c42906020850190612d4b565b508051612a11907f2569078dfb4b0305704d3008e7403993ae9601b85f7ae5e742de3de8f8011c43906020840190612d4b565b506001600080516020613405833981519152555050565b600054610100900460ff16612a935760405162461bcd60e51b815260206004820152602b60248201527f496e697469616c697a61626c653a20636f6e7472616374206973206e6f74206960448201526a6e697469616c697a696e6760a81b6064820152608401611064565b61129533612452565b600054610100900460ff16612b075760405162461bcd60e51b815260206004820152602b60248201527f496e697469616c697a61626c653a20636f6e7472616374206973206e6f74206960448201526a6e697469616c697a696e6760a81b6064820152608401611064565b6033805460ff19169055565b600054610100900460ff16612b7e5760405162461bcd60e51b815260206004820152602b60248201527f496e697469616c697a61626c653a20636f6e7472616374206973206e6f74206960448201526a6e697469616c697a696e6760a81b6064820152608401611064565b6001609755565b606060c98054610b209061321b565b604080516080810191829052607f0190826030600a8206018353600a90045b8015612bd157600183039250600a81066030018353600a9004612bb3565b50819003601f19909101908152919050565b600080516020613405833981519152546001600160a01b038316612c33576040517f2e07630000000000000000000000000000000000000000000000000000000000815260040160405180910390fd5b81612c6a576040517fb562e8dd00000000000000000000000000000000000000000000000000000000815260040160405180910390fd5b6001600160a01b03831660008181527f2569078dfb4b0305704d3008e7403993ae9601b85f7ae5e742de3de8f8011c456020526040902080546801000000000000000185020190554260a01b6001841460e11b171760008281527f2569078dfb4b0305704d3008e7403993ae9601b85f7ae5e742de3de8f8011c446020526040902055808281015b6040516001830192906001600160a01b038716906000907fddf252ad1be2c89b69c2b068fc378daa952ba7f163c4a11628f55a4df523b3ef908290a4808210612cf2576000805160206134058339815191525550505050565b828054612d579061321b565b90600052602060002090601f016020900481019282612d795760008555612dbf565b82601f10612d9257805160ff1916838001178555612dbf565b82800160010185558215612dbf579182015b82811115612dbf578251825591602001919060010190612da4565b50612dcb929150612dcf565b5090565b5b80821115612dcb5760008155600101612dd0565b6001600160e01b0319811681146121f457600080fd5b600060208284031215612e0c57600080fd5b813561235881612de4565b600060208284031215612e2957600080fd5b5035919050565b60005b83811015612e4b578181015183820152602001612e33565b83811115611be75750506000910152565b60008151808452612e74816020860160208601612e30565b601f01601f19169290920160200192915050565b6020815260006123586020830184612e5c565b80356001600160a01b0381168114612eb257600080fd5b919050565b60008060408385031215612eca57600080fd5b612ed383612e9b565b946020939093013593505050565b600080600060608486031215612ef657600080fd5b612eff84612e9b565b9250612f0d60208501612e9b565b9150604084013590509250925092565b600060208284031215612f2f57600080fd5b61235882612e9b565b634e487b7160e01b600052604160045260246000fd5b60405160e0810167ffffffffffffffff81118282101715612f7157612f71612f38565b60405290565b600067ffffffffffffffff80841115612f9257612f92612f38565b604051601f8501601f19908116603f01168101908282118183101715612fba57612fba612f38565b81604052809350858152868686011115612fd357600080fd5b858560208301376000602087830101525050509392505050565b600082601f830112612ffe57600080fd5b61235883833560208501612f77565b60006020828403121561301f57600080fd5b813567ffffffffffffffff81111561303657600080fd5b6127ce84828501612fed565b60006020828403121561305457600080fd5b813560ff8116811461235857600080fd5b600080600083850361012081121561307c57600080fd5b843567ffffffffffffffff8082111561309457600080fd5b6130a088838901612fed565b955060208701359150808211156130b657600080fd5b506130c387828801612fed565b93505060e0603f19820112156130d857600080fd5b506130e1612f4e565b60408501358152606085013560208201526080850135604082015260a0850135606082015260c0850135608082015260e085013560a082015261010085013560c0820152809150509250925092565b6000806040838503121561314357600080fd5b61314c83612e9b565b91506020830135801515811461316157600080fd5b809150509250929050565b6000806000806080858703121561318257600080fd5b61318b85612e9b565b935061319960208601612e9b565b925060408501359150606085013567ffffffffffffffff8111156131bc57600080fd5b8501601f810187136131cd57600080fd5b6131dc87823560208401612f77565b91505092959194509250565b600080604083850312156131fb57600080fd5b61320483612e9b565b915061321260208401612e9b565b90509250929050565b600181811c9082168061322f57607f821691505b6020821081141561325057634e487b7160e01b600052602260045260246000fd5b50919050565b634e487b7160e01b600052601160045260246000fd5b60008282101561327e5761327e613256565b500390565b6000821982111561329657613296613256565b500190565b60008160001904831182151516156132b5576132b5613256565b500290565b60006001600160a01b038087168352808616602084015250836040830152608060608301526132ec6080830184612e5c565b9695505050505050565b60006020828403121561330857600080fd5b815161235881612de4565b6000845160206133268285838a01612e30565b81840191507f2f0000000000000000000000000000000000000000000000000000000000000082526001865161336181838601858b01612e30565b865493019260009080831c8382168061337b57607f821691505b85821081141561339957634e487b7160e01b84526022600452602484fd5b8080156133ad57600181146133c2576133f3565b60ff19841688870152828801860194506133f3565b60008b81526020902060005b848110156133e95781548a82018901529087019088016133ce565b5050858389010194505b50929b9a505050505050505050505056fe2569078dfb4b0305704d3008e7403993ae9601b85f7ae5e742de3de8f8011c40a2646970667358221220cd1e3a3292cef1c80e195e46628a3996ea94832164623dc8f4f679d88ac64ca964736f6c634300080a0033",
  "linkReferences": {},
  "deployedLinkReferences": {}
}